{
	"contracts.sol": {
		"JobContract": {
			"abi": [
				{
					"inputs": [
						{
							"internalType": "address",
							"name": "_escrowContractAddress",
							"type": "address"
						}
					],
					"stateMutability": "nonpayable",
					"type": "constructor"
				},
				{
					"anonymous": false,
					"inputs": [
						{
							"indexed": true,
							"internalType": "uint256",
							"name": "jobId",
							"type": "uint256"
						},
						{
							"indexed": false,
							"internalType": "address",
							"name": "freelancer",
							"type": "address"
						}
					],
					"name": "JobAssigned",
					"type": "event"
				},
				{
					"anonymous": false,
					"inputs": [
						{
							"indexed": true,
							"internalType": "uint256",
							"name": "jobId",
							"type": "uint256"
						}
					],
					"name": "JobCompleted",
					"type": "event"
				},
				{
					"anonymous": false,
					"inputs": [
						{
							"indexed": true,
							"internalType": "uint256",
							"name": "jobId",
							"type": "uint256"
						},
						{
							"indexed": false,
							"internalType": "string",
							"name": "description",
							"type": "string"
						},
						{
							"indexed": false,
							"internalType": "uint256",
							"name": "budget",
							"type": "uint256"
						},
						{
							"indexed": false,
							"internalType": "address",
							"name": "client",
							"type": "address"
						}
					],
					"name": "JobCreated",
					"type": "event"
				},
				{
					"inputs": [
						{
							"internalType": "uint256",
							"name": "_jobId",
							"type": "uint256"
						},
						{
							"internalType": "address",
							"name": "_freelancer",
							"type": "address"
						}
					],
					"name": "assignFreelancer",
					"outputs": [],
					"stateMutability": "payable",
					"type": "function"
				},
				{
					"inputs": [
						{
							"internalType": "string",
							"name": "_description",
							"type": "string"
						},
						{
							"internalType": "uint256",
							"name": "_budget",
							"type": "uint256"
						}
					],
					"name": "createJob",
					"outputs": [],
					"stateMutability": "nonpayable",
					"type": "function"
				},
				{
					"inputs": [],
					"name": "escrowContract",
					"outputs": [
						{
							"internalType": "contract EscrowContract",
							"name": "",
							"type": "address"
						}
					],
					"stateMutability": "view",
					"type": "function"
				},
				{
					"inputs": [],
					"name": "jobCounter",
					"outputs": [
						{
							"internalType": "uint256",
							"name": "",
							"type": "uint256"
						}
					],
					"stateMutability": "view",
					"type": "function"
				},
				{
					"inputs": [
						{
							"internalType": "uint256",
							"name": "",
							"type": "uint256"
						}
					],
					"name": "jobs",
					"outputs": [
						{
							"internalType": "string",
							"name": "description",
							"type": "string"
						},
						{
							"internalType": "uint256",
							"name": "budget",
							"type": "uint256"
						},
						{
							"internalType": "address",
							"name": "client",
							"type": "address"
						},
						{
							"internalType": "address",
							"name": "freelancer",
							"type": "address"
						},
						{
							"internalType": "bool",
							"name": "completed",
							"type": "bool"
						}
					],
					"stateMutability": "view",
					"type": "function"
				},
				{
					"inputs": [
						{
							"internalType": "uint256",
							"name": "_jobId",
							"type": "uint256"
						}
					],
					"name": "markJobCompleted",
					"outputs": [],
					"stateMutability": "nonpayable",
					"type": "function"
				}
			],
			"devdoc": {
				"kind": "dev",
				"methods": {},
				"version": 1
			},
			"evm": {
				"assembly": "    /* \"contracts.sol\":1467:3871  contract JobContract {... */\n  mstore(0x40, 0x80)\n    /* \"contracts.sol\":2001:2210  constructor(address _escrowContractAddress) {... */\n  callvalue\n  dup1\n  iszero\n  tag_1\n  jumpi\n  0x00\n  dup1\n  revert\ntag_1:\n  pop\n  mload(0x40)\n  sub(codesize, bytecodeSize)\n  dup1\n  bytecodeSize\n  dup4\n  codecopy\n  dup2\n  dup2\n  add\n  0x40\n  mstore\n  dup2\n  add\n  swap1\n  tag_2\n  swap2\n  swap1\n  tag_3\n  jump\t// in\ntag_2:\n    /* \"contracts.sol\":2098:2099  0 */\n  0x00\n    /* \"contracts.sol\":2064:2100  _escrowContractAddress != address(0) */\n  0xffffffffffffffffffffffffffffffffffffffff\n  and\n    /* \"contracts.sol\":2064:2086  _escrowContractAddress */\n  dup2\n    /* \"contracts.sol\":2064:2100  _escrowContractAddress != address(0) */\n  0xffffffffffffffffffffffffffffffffffffffff\n  and\n  sub\n    /* \"contracts.sol\":2056:2136  require(_escrowContractAddress != address(0), \"Invalid escrow contract address\") */\n  tag_6\n  jumpi\n  mload(0x40)\n  0x08c379a000000000000000000000000000000000000000000000000000000000\n  dup2\n  mstore\n  0x04\n  add\n  tag_7\n  swap1\n  tag_8\n  jump\t// in\ntag_7:\n  mload(0x40)\n  dup1\n  swap2\n  sub\n  swap1\n  revert\ntag_6:\n    /* \"contracts.sol\":2179:2201  _escrowContractAddress */\n  dup1\n    /* \"contracts.sol\":2147:2161  escrowContract */\n  0x02\n  0x00\n    /* \"contracts.sol\":2147:2202  escrowContract = EscrowContract(_escrowContractAddress) */\n  0x0100\n  exp\n  dup2\n  sload\n  dup2\n  0xffffffffffffffffffffffffffffffffffffffff\n  mul\n  not\n  and\n  swap1\n  dup4\n  0xffffffffffffffffffffffffffffffffffffffff\n  and\n  mul\n  or\n  swap1\n  sstore\n  pop\n    /* \"contracts.sol\":2001:2210  constructor(address _escrowContractAddress) {... */\n  pop\n    /* \"contracts.sol\":1467:3871  contract JobContract {... */\n  jump(tag_9)\n    /* \"#utility.yul\":88:205   */\ntag_11:\n    /* \"#utility.yul\":197:198   */\n  0x00\n    /* \"#utility.yul\":194:195   */\n  dup1\n    /* \"#utility.yul\":187:199   */\n  revert\n    /* \"#utility.yul\":334:460   */\ntag_13:\n    /* \"#utility.yul\":371:378   */\n  0x00\n    /* \"#utility.yul\":411:453   */\n  0xffffffffffffffffffffffffffffffffffffffff\n    /* \"#utility.yul\":404:409   */\n  dup3\n    /* \"#utility.yul\":400:454   */\n  and\n    /* \"#utility.yul\":389:454   */\n  swap1\n  pop\n    /* \"#utility.yul\":334:460   */\n  swap2\n  swap1\n  pop\n  jump\t// out\n    /* \"#utility.yul\":466:562   */\ntag_14:\n    /* \"#utility.yul\":503:510   */\n  0x00\n    /* \"#utility.yul\":532:556   */\n  tag_26\n    /* \"#utility.yul\":550:555   */\n  dup3\n    /* \"#utility.yul\":532:556   */\n  tag_13\n  jump\t// in\ntag_26:\n    /* \"#utility.yul\":521:556   */\n  swap1\n  pop\n    /* \"#utility.yul\":466:562   */\n  swap2\n  swap1\n  pop\n  jump\t// out\n    /* \"#utility.yul\":568:690   */\ntag_15:\n    /* \"#utility.yul\":641:665   */\n  tag_28\n    /* \"#utility.yul\":659:664   */\n  dup2\n    /* \"#utility.yul\":641:665   */\n  tag_14\n  jump\t// in\ntag_28:\n    /* \"#utility.yul\":634:639   */\n  dup2\n    /* \"#utility.yul\":631:666   */\n  eq\n    /* \"#utility.yul\":621:684   */\n  tag_29\n  jumpi\n    /* \"#utility.yul\":680:681   */\n  0x00\n    /* \"#utility.yul\":677:678   */\n  dup1\n    /* \"#utility.yul\":670:682   */\n  revert\n    /* \"#utility.yul\":621:684   */\ntag_29:\n    /* \"#utility.yul\":568:690   */\n  pop\n  jump\t// out\n    /* \"#utility.yul\":696:839   */\ntag_16:\n    /* \"#utility.yul\":753:758   */\n  0x00\n    /* \"#utility.yul\":784:790   */\n  dup2\n    /* \"#utility.yul\":778:791   */\n  mload\n    /* \"#utility.yul\":769:791   */\n  swap1\n  pop\n    /* \"#utility.yul\":800:833   */\n  tag_31\n    /* \"#utility.yul\":827:832   */\n  dup2\n    /* \"#utility.yul\":800:833   */\n  tag_15\n  jump\t// in\ntag_31:\n    /* \"#utility.yul\":696:839   */\n  swap3\n  swap2\n  pop\n  pop\n  jump\t// out\n    /* \"#utility.yul\":845:1196   */\ntag_3:\n    /* \"#utility.yul\":915:921   */\n  0x00\n    /* \"#utility.yul\":964:966   */\n  0x20\n    /* \"#utility.yul\":952:961   */\n  dup3\n    /* \"#utility.yul\":943:950   */\n  dup5\n    /* \"#utility.yul\":939:962   */\n  sub\n    /* \"#utility.yul\":935:967   */\n  slt\n    /* \"#utility.yul\":932:1051   */\n  iszero\n  tag_33\n  jumpi\n    /* \"#utility.yul\":970:1049   */\n  tag_34\n  tag_11\n  jump\t// in\ntag_34:\n    /* \"#utility.yul\":932:1051   */\ntag_33:\n    /* \"#utility.yul\":1090:1091   */\n  0x00\n    /* \"#utility.yul\":1115:1179   */\n  tag_35\n    /* \"#utility.yul\":1171:1178   */\n  dup5\n    /* \"#utility.yul\":1162:1168   */\n  dup3\n    /* \"#utility.yul\":1151:1160   */\n  dup6\n    /* \"#utility.yul\":1147:1169   */\n  add\n    /* \"#utility.yul\":1115:1179   */\n  tag_16\n  jump\t// in\ntag_35:\n    /* \"#utility.yul\":1105:1179   */\n  swap2\n  pop\n    /* \"#utility.yul\":1061:1189   */\n  pop\n    /* \"#utility.yul\":845:1196   */\n  swap3\n  swap2\n  pop\n  pop\n  jump\t// out\n    /* \"#utility.yul\":1202:1371   */\ntag_17:\n    /* \"#utility.yul\":1286:1297   */\n  0x00\n    /* \"#utility.yul\":1320:1326   */\n  dup3\n    /* \"#utility.yul\":1315:1318   */\n  dup3\n    /* \"#utility.yul\":1308:1327   */\n  mstore\n    /* \"#utility.yul\":1360:1364   */\n  0x20\n    /* \"#utility.yul\":1355:1358   */\n  dup3\n    /* \"#utility.yul\":1351:1365   */\n  add\n    /* \"#utility.yul\":1336:1365   */\n  swap1\n  pop\n    /* \"#utility.yul\":1202:1371   */\n  swap3\n  swap2\n  pop\n  pop\n  jump\t// out\n    /* \"#utility.yul\":1377:1558   */\ntag_18:\n    /* \"#utility.yul\":1517:1550   */\n  0x496e76616c696420657363726f7720636f6e7472616374206164647265737300\n    /* \"#utility.yul\":1513:1514   */\n  0x00\n    /* \"#utility.yul\":1505:1511   */\n  dup3\n    /* \"#utility.yul\":1501:1515   */\n  add\n    /* \"#utility.yul\":1494:1551   */\n  mstore\n    /* \"#utility.yul\":1377:1558   */\n  pop\n  jump\t// out\n    /* \"#utility.yul\":1564:1930   */\ntag_19:\n    /* \"#utility.yul\":1706:1709   */\n  0x00\n    /* \"#utility.yul\":1727:1794   */\n  tag_39\n    /* \"#utility.yul\":1791:1793   */\n  0x1f\n    /* \"#utility.yul\":1786:1789   */\n  dup4\n    /* \"#utility.yul\":1727:1794   */\n  tag_17\n  jump\t// in\ntag_39:\n    /* \"#utility.yul\":1720:1794   */\n  swap2\n  pop\n    /* \"#utility.yul\":1803:1896   */\n  tag_40\n    /* \"#utility.yul\":1892:1895   */\n  dup3\n    /* \"#utility.yul\":1803:1896   */\n  tag_18\n  jump\t// in\ntag_40:\n    /* \"#utility.yul\":1921:1923   */\n  0x20\n    /* \"#utility.yul\":1916:1919   */\n  dup3\n    /* \"#utility.yul\":1912:1924   */\n  add\n    /* \"#utility.yul\":1905:1924   */\n  swap1\n  pop\n    /* \"#utility.yul\":1564:1930   */\n  swap2\n  swap1\n  pop\n  jump\t// out\n    /* \"#utility.yul\":1936:2355   */\ntag_8:\n    /* \"#utility.yul\":2102:2106   */\n  0x00\n    /* \"#utility.yul\":2140:2142   */\n  0x20\n    /* \"#utility.yul\":2129:2138   */\n  dup3\n    /* \"#utility.yul\":2125:2143   */\n  add\n    /* \"#utility.yul\":2117:2143   */\n  swap1\n  pop\n    /* \"#utility.yul\":2189:2198   */\n  dup2\n    /* \"#utility.yul\":2183:2187   */\n  dup2\n    /* \"#utility.yul\":2179:2199   */\n  sub\n    /* \"#utility.yul\":2175:2176   */\n  0x00\n    /* \"#utility.yul\":2164:2173   */\n  dup4\n    /* \"#utility.yul\":2160:2177   */\n  add\n    /* \"#utility.yul\":2153:2200   */\n  mstore\n    /* \"#utility.yul\":2217:2348   */\n  tag_42\n    /* \"#utility.yul\":2343:2347   */\n  dup2\n    /* \"#utility.yul\":2217:2348   */\n  tag_19\n  jump\t// in\ntag_42:\n    /* \"#utility.yul\":2209:2348   */\n  swap1\n  pop\n    /* \"#utility.yul\":1936:2355   */\n  swap2\n  swap1\n  pop\n  jump\t// out\n    /* \"contracts.sol\":1467:3871  contract JobContract {... */\ntag_9:\n  dataSize(sub_0)\n  dup1\n  dataOffset(sub_0)\n  0x00\n  codecopy\n  0x00\n  return\nstop\n\nsub_0: assembly {\n        /* \"contracts.sol\":1467:3871  contract JobContract {... */\n      mstore(0x40, 0x80)\n      jumpi(tag_1, lt(calldatasize, 0x04))\n      shr(0xe0, calldataload(0x00))\n      dup1\n      0x180aedf3\n      eq\n      tag_2\n      jumpi\n      dup1\n      0x50355d76\n      eq\n      tag_3\n      jumpi\n      dup1\n      0x5713b2b6\n      eq\n      tag_4\n      jumpi\n      dup1\n      0x5c1615f3\n      eq\n      tag_5\n      jumpi\n      dup1\n      0xc949756c\n      eq\n      tag_6\n      jumpi\n      dup1\n      0xe42a96e7\n      eq\n      tag_7\n      jumpi\n    tag_1:\n      0x00\n      dup1\n      revert\n        /* \"contracts.sol\":1691:1726  mapping(uint256 => Job) public jobs */\n    tag_2:\n      callvalue\n      dup1\n      iszero\n      tag_8\n      jumpi\n      0x00\n      dup1\n      revert\n    tag_8:\n      pop\n      tag_9\n      0x04\n      dup1\n      calldatasize\n      sub\n      dup2\n      add\n      swap1\n      tag_10\n      swap2\n      swap1\n      tag_11\n      jump\t// in\n    tag_10:\n      tag_12\n      jump\t// in\n    tag_9:\n      mload(0x40)\n      tag_13\n      swap6\n      swap5\n      swap4\n      swap3\n      swap2\n      swap1\n      tag_14\n      jump\t// in\n    tag_13:\n      mload(0x40)\n      dup1\n      swap2\n      sub\n      swap1\n      return\n        /* \"contracts.sol\":1659:1684  uint256 public jobCounter */\n    tag_3:\n      callvalue\n      dup1\n      iszero\n      tag_15\n      jumpi\n      0x00\n      dup1\n      revert\n    tag_15:\n      pop\n      tag_16\n      tag_17\n      jump\t// in\n    tag_16:\n      mload(0x40)\n      tag_18\n      swap2\n      swap1\n      tag_19\n      jump\t// in\n    tag_18:\n      mload(0x40)\n      dup1\n      swap2\n      sub\n      swap1\n      return\n        /* \"contracts.sol\":2222:2700  function createJob(string memory _description, uint256 _budget) external {... */\n    tag_4:\n      callvalue\n      dup1\n      iszero\n      tag_20\n      jumpi\n      0x00\n      dup1\n      revert\n    tag_20:\n      pop\n      tag_21\n      0x04\n      dup1\n      calldatasize\n      sub\n      dup2\n      add\n      swap1\n      tag_22\n      swap2\n      swap1\n      tag_23\n      jump\t// in\n    tag_22:\n      tag_24\n      jump\t// in\n    tag_21:\n      stop\n        /* \"contracts.sol\":3426:3868  function markJobCompleted(uint256 _jobId) external {... */\n    tag_5:\n      callvalue\n      dup1\n      iszero\n      tag_25\n      jumpi\n      0x00\n      dup1\n      revert\n    tag_25:\n      pop\n      tag_26\n      0x04\n      dup1\n      calldatasize\n      sub\n      dup2\n      add\n      swap1\n      tag_27\n      swap2\n      swap1\n      tag_11\n      jump\t// in\n    tag_27:\n      tag_28\n      jump\t// in\n    tag_26:\n      stop\n        /* \"contracts.sol\":2712:3414  function assignFreelancer(uint256 _jobId, address _freelancer) external payable {... */\n    tag_6:\n      tag_29\n      0x04\n      dup1\n      calldatasize\n      sub\n      dup2\n      add\n      swap1\n      tag_30\n      swap2\n      swap1\n      tag_31\n      jump\t// in\n    tag_30:\n      tag_32\n      jump\t// in\n    tag_29:\n      stop\n        /* \"contracts.sol\":1733:1769  EscrowContract public escrowContract */\n    tag_7:\n      callvalue\n      dup1\n      iszero\n      tag_33\n      jumpi\n      0x00\n      dup1\n      revert\n    tag_33:\n      pop\n      tag_34\n      tag_35\n      jump\t// in\n    tag_34:\n      mload(0x40)\n      tag_36\n      swap2\n      swap1\n      tag_37\n      jump\t// in\n    tag_36:\n      mload(0x40)\n      dup1\n      swap2\n      sub\n      swap1\n      return\n        /* \"contracts.sol\":1691:1726  mapping(uint256 => Job) public jobs */\n    tag_12:\n      mstore(0x20, 0x01)\n      dup1\n      0x00\n      mstore\n      keccak256(0x00, 0x40)\n      0x00\n      swap2\n      pop\n      swap1\n      pop\n      dup1\n      0x00\n      add\n      dup1\n      sload\n      tag_38\n      swap1\n      tag_39\n      jump\t// in\n    tag_38:\n      dup1\n      0x1f\n      add\n      0x20\n      dup1\n      swap2\n      div\n      mul\n      0x20\n      add\n      mload(0x40)\n      swap1\n      dup2\n      add\n      0x40\n      mstore\n      dup1\n      swap3\n      swap2\n      swap1\n      dup2\n      dup2\n      mstore\n      0x20\n      add\n      dup3\n      dup1\n      sload\n      tag_40\n      swap1\n      tag_39\n      jump\t// in\n    tag_40:\n      dup1\n      iszero\n      tag_41\n      jumpi\n      dup1\n      0x1f\n      lt\n      tag_42\n      jumpi\n      0x0100\n      dup1\n      dup4\n      sload\n      div\n      mul\n      dup4\n      mstore\n      swap2\n      0x20\n      add\n      swap2\n      jump(tag_41)\n    tag_42:\n      dup3\n      add\n      swap2\n      swap1\n      0x00\n      mstore\n      keccak256(0x00, 0x20)\n      swap1\n    tag_43:\n      dup2\n      sload\n      dup2\n      mstore\n      swap1\n      0x01\n      add\n      swap1\n      0x20\n      add\n      dup1\n      dup4\n      gt\n      tag_43\n      jumpi\n      dup3\n      swap1\n      sub\n      0x1f\n      and\n      dup3\n      add\n      swap2\n    tag_41:\n      pop\n      pop\n      pop\n      pop\n      pop\n      swap1\n      dup1\n      0x01\n      add\n      sload\n      swap1\n      dup1\n      0x02\n      add\n      0x00\n      swap1\n      sload\n      swap1\n      0x0100\n      exp\n      swap1\n      div\n      0xffffffffffffffffffffffffffffffffffffffff\n      and\n      swap1\n      dup1\n      0x03\n      add\n      0x00\n      swap1\n      sload\n      swap1\n      0x0100\n      exp\n      swap1\n      div\n      0xffffffffffffffffffffffffffffffffffffffff\n      and\n      swap1\n      dup1\n      0x03\n      add\n      0x14\n      swap1\n      sload\n      swap1\n      0x0100\n      exp\n      swap1\n      div\n      0xff\n      and\n      swap1\n      pop\n      dup6\n      jump\t// out\n        /* \"contracts.sol\":1659:1684  uint256 public jobCounter */\n    tag_17:\n      sload(0x00)\n      dup2\n      jump\t// out\n        /* \"contracts.sol\":2222:2700  function createJob(string memory _description, uint256 _budget) external {... */\n    tag_24:\n        /* \"contracts.sol\":2324:2325  0 */\n      0x00\n        /* \"contracts.sol\":2314:2321  _budget */\n      dup2\n        /* \"contracts.sol\":2314:2325  _budget > 0 */\n      gt\n        /* \"contracts.sol\":2306:2359  require(_budget > 0, \"Budget must be greater than 0\") */\n      tag_45\n      jumpi\n      mload(0x40)\n      0x08c379a000000000000000000000000000000000000000000000000000000000\n      dup2\n      mstore\n      0x04\n      add\n      tag_46\n      swap1\n      tag_47\n      jump\t// in\n    tag_46:\n      mload(0x40)\n      dup1\n      swap2\n      sub\n      swap1\n      revert\n    tag_45:\n        /* \"contracts.sol\":2380:2390  jobCounter */\n      0x00\n      dup1\n        /* \"contracts.sol\":2380:2392  jobCounter++ */\n      dup2\n      sload\n      dup1\n      swap3\n      swap2\n      swap1\n      tag_48\n      swap1\n      tag_49\n      jump\t// in\n    tag_48:\n      swap2\n      swap1\n      pop\n      sstore\n      pop\n        /* \"contracts.sol\":2422:2609  Job({... */\n      mload(0x40)\n      dup1\n      0xa0\n      add\n      0x40\n      mstore\n      dup1\n        /* \"contracts.sol\":2454:2466  _description */\n      dup4\n        /* \"contracts.sol\":2422:2609  Job({... */\n      dup2\n      mstore\n      0x20\n      add\n        /* \"contracts.sol\":2489:2496  _budget */\n      dup3\n        /* \"contracts.sol\":2422:2609  Job({... */\n      dup2\n      mstore\n      0x20\n      add\n        /* \"contracts.sol\":2519:2529  msg.sender */\n      caller\n        /* \"contracts.sol\":2422:2609  Job({... */\n      0xffffffffffffffffffffffffffffffffffffffff\n      and\n      dup2\n      mstore\n      0x20\n      add\n        /* \"contracts.sol\":2564:2565  0 */\n      0x00\n        /* \"contracts.sol\":2422:2609  Job({... */\n      0xffffffffffffffffffffffffffffffffffffffff\n      and\n      dup2\n      mstore\n      0x20\n      add\n        /* \"contracts.sol\":2592:2597  false */\n      0x00\n        /* \"contracts.sol\":2422:2609  Job({... */\n      iszero\n      iszero\n      dup2\n      mstore\n      pop\n        /* \"contracts.sol\":2403:2407  jobs */\n      0x01\n        /* \"contracts.sol\":2403:2419  jobs[jobCounter] */\n      0x00\n        /* \"contracts.sol\":2408:2418  jobCounter */\n      dup1\n      sload\n        /* \"contracts.sol\":2403:2419  jobs[jobCounter] */\n      dup2\n      mstore\n      0x20\n      add\n      swap1\n      dup2\n      mstore\n      0x20\n      add\n      0x00\n      keccak256\n        /* \"contracts.sol\":2403:2609  jobs[jobCounter] = Job({... */\n      0x00\n      dup3\n      add\n      mload\n      dup2\n      0x00\n      add\n      swap1\n      dup2\n      tag_50\n      swap2\n      swap1\n      tag_51\n      jump\t// in\n    tag_50:\n      pop\n      0x20\n      dup3\n      add\n      mload\n      dup2\n      0x01\n      add\n      sstore\n      0x40\n      dup3\n      add\n      mload\n      dup2\n      0x02\n      add\n      exp(0x0100, 0x00)\n      dup2\n      sload\n      dup2\n      0xffffffffffffffffffffffffffffffffffffffff\n      mul\n      not\n      and\n      swap1\n      dup4\n      0xffffffffffffffffffffffffffffffffffffffff\n      and\n      mul\n      or\n      swap1\n      sstore\n      pop\n      0x60\n      dup3\n      add\n      mload\n      dup2\n      0x03\n      add\n      exp(0x0100, 0x00)\n      dup2\n      sload\n      dup2\n      0xffffffffffffffffffffffffffffffffffffffff\n      mul\n      not\n      and\n      swap1\n      dup4\n      0xffffffffffffffffffffffffffffffffffffffff\n      and\n      mul\n      or\n      swap1\n      sstore\n      pop\n      0x80\n      dup3\n      add\n      mload\n      dup2\n      0x03\n      add\n      exp(0x0100, 0x14)\n      dup2\n      sload\n      dup2\n      0xff\n      mul\n      not\n      and\n      swap1\n      dup4\n      iszero\n      iszero\n      mul\n      or\n      swap1\n      sstore\n      pop\n      swap1\n      pop\n      pop\n        /* \"contracts.sol\":2646:2656  jobCounter */\n      sload(0x00)\n        /* \"contracts.sol\":2635:2692  JobCreated(jobCounter, _description, _budget, msg.sender) */\n      0xc5216daa12e6ac2fd90bb3cac0a45cf705bd6114d0ad74be0d311e0f8e31a63e\n        /* \"contracts.sol\":2658:2670  _description */\n      dup4\n        /* \"contracts.sol\":2672:2679  _budget */\n      dup4\n        /* \"contracts.sol\":2681:2691  msg.sender */\n      caller\n        /* \"contracts.sol\":2635:2692  JobCreated(jobCounter, _description, _budget, msg.sender) */\n      mload(0x40)\n      tag_52\n      swap4\n      swap3\n      swap2\n      swap1\n      tag_53\n      jump\t// in\n    tag_52:\n      mload(0x40)\n      dup1\n      swap2\n      sub\n      swap1\n      log2\n        /* \"contracts.sol\":2222:2700  function createJob(string memory _description, uint256 _budget) external {... */\n      pop\n      pop\n      jump\t// out\n        /* \"contracts.sol\":3426:3868  function markJobCompleted(uint256 _jobId) external {... */\n    tag_28:\n        /* \"contracts.sol\":3488:3503  Job storage job */\n      0x00\n        /* \"contracts.sol\":3506:3510  jobs */\n      0x01\n        /* \"contracts.sol\":3506:3518  jobs[_jobId] */\n      0x00\n        /* \"contracts.sol\":3511:3517  _jobId */\n      dup4\n        /* \"contracts.sol\":3506:3518  jobs[_jobId] */\n      dup2\n      mstore\n      0x20\n      add\n      swap1\n      dup2\n      mstore\n      0x20\n      add\n      0x00\n      keccak256\n        /* \"contracts.sol\":3488:3518  Job storage job = jobs[_jobId] */\n      swap1\n      pop\n        /* \"contracts.sol\":3551:3561  msg.sender */\n      caller\n        /* \"contracts.sol\":3537:3561  job.client == msg.sender */\n      0xffffffffffffffffffffffffffffffffffffffff\n      and\n        /* \"contracts.sol\":3537:3540  job */\n      dup2\n        /* \"contracts.sol\":3537:3547  job.client */\n      0x02\n      add\n      0x00\n      swap1\n      sload\n      swap1\n      0x0100\n      exp\n      swap1\n      div\n      0xffffffffffffffffffffffffffffffffffffffff\n      and\n        /* \"contracts.sol\":3537:3561  job.client == msg.sender */\n      0xffffffffffffffffffffffffffffffffffffffff\n      and\n      eq\n        /* \"contracts.sol\":3529:3594  require(job.client == msg.sender, \"Only client can complete job\") */\n      tag_55\n      jumpi\n      mload(0x40)\n      0x08c379a000000000000000000000000000000000000000000000000000000000\n      dup2\n      mstore\n      0x04\n      add\n      tag_56\n      swap1\n      tag_57\n      jump\t// in\n    tag_56:\n      mload(0x40)\n      dup1\n      swap2\n      sub\n      swap1\n      revert\n    tag_55:\n        /* \"contracts.sol\":3639:3640  0 */\n      0x00\n        /* \"contracts.sol\":3613:3641  job.freelancer != address(0) */\n      0xffffffffffffffffffffffffffffffffffffffff\n      and\n        /* \"contracts.sol\":3613:3616  job */\n      dup2\n        /* \"contracts.sol\":3613:3627  job.freelancer */\n      0x03\n      add\n      0x00\n      swap1\n      sload\n      swap1\n      0x0100\n      exp\n      swap1\n      div\n      0xffffffffffffffffffffffffffffffffffffffff\n      and\n        /* \"contracts.sol\":3613:3641  job.freelancer != address(0) */\n      0xffffffffffffffffffffffffffffffffffffffff\n      and\n      sub\n        /* \"contracts.sol\":3605:3668  require(job.freelancer != address(0), \"No freelancer assigned\") */\n      tag_58\n      jumpi\n      mload(0x40)\n      0x08c379a000000000000000000000000000000000000000000000000000000000\n      dup2\n      mstore\n      0x04\n      add\n      tag_59\n      swap1\n      tag_60\n      jump\t// in\n    tag_59:\n      mload(0x40)\n      dup1\n      swap2\n      sub\n      swap1\n      revert\n    tag_58:\n        /* \"contracts.sol\":3688:3691  job */\n      dup1\n        /* \"contracts.sol\":3688:3701  job.completed */\n      0x03\n      add\n      0x14\n      swap1\n      sload\n      swap1\n      0x0100\n      exp\n      swap1\n      div\n      0xff\n      and\n        /* \"contracts.sol\":3687:3701  !job.completed */\n      iszero\n        /* \"contracts.sol\":3679:3727  require(!job.completed, \"Job already completed\") */\n      tag_61\n      jumpi\n      mload(0x40)\n      0x08c379a000000000000000000000000000000000000000000000000000000000\n      dup2\n      mstore\n      0x04\n      add\n      tag_62\n      swap1\n      tag_63\n      jump\t// in\n    tag_62:\n      mload(0x40)\n      dup1\n      swap2\n      sub\n      swap1\n      revert\n    tag_61:\n        /* \"contracts.sol\":3764:3768  true */\n      0x01\n        /* \"contracts.sol\":3748:3751  job */\n      dup2\n        /* \"contracts.sol\":3748:3761  job.completed */\n      0x03\n      add\n      0x14\n        /* \"contracts.sol\":3748:3768  job.completed = true */\n      0x0100\n      exp\n      dup2\n      sload\n      dup2\n      0xff\n      mul\n      not\n      and\n      swap1\n      dup4\n      iszero\n      iszero\n      mul\n      or\n      swap1\n      sstore\n      pop\n        /* \"contracts.sol\":3779:3793  escrowContract */\n      0x02\n      0x00\n      swap1\n      sload\n      swap1\n      0x0100\n      exp\n      swap1\n      div\n      0xffffffffffffffffffffffffffffffffffffffff\n      and\n        /* \"contracts.sol\":3779:3806  escrowContract.releaseFunds */\n      0xffffffffffffffffffffffffffffffffffffffff\n      and\n      0x4d68282f\n        /* \"contracts.sol\":3807:3813  _jobId */\n      dup4\n        /* \"contracts.sol\":3779:3814  escrowContract.releaseFunds(_jobId) */\n      mload(0x40)\n      dup3\n      0xffffffff\n      and\n      0xe0\n      shl\n      dup2\n      mstore\n      0x04\n      add\n      tag_64\n      swap2\n      swap1\n      tag_19\n      jump\t// in\n    tag_64:\n      0x00\n      mload(0x40)\n      dup1\n      dup4\n      sub\n      dup2\n      0x00\n      dup8\n      dup1\n      extcodesize\n      iszero\n      dup1\n      iszero\n      tag_65\n      jumpi\n      0x00\n      dup1\n      revert\n    tag_65:\n      pop\n      gas\n      call\n      iszero\n      dup1\n      iszero\n      tag_67\n      jumpi\n      returndatasize\n      0x00\n      dup1\n      returndatacopy\n      revert(0x00, returndatasize)\n    tag_67:\n      pop\n      pop\n      pop\n      pop\n        /* \"contracts.sol\":3853:3859  _jobId */\n      dup2\n        /* \"contracts.sol\":3840:3860  JobCompleted(_jobId) */\n      0x02244c8529cb95e213ee542e76e7776342b3dabd10203d01472bbf4441be8929\n      mload(0x40)\n      mload(0x40)\n      dup1\n      swap2\n      sub\n      swap1\n      log2\n        /* \"contracts.sol\":3477:3868  {... */\n      pop\n        /* \"contracts.sol\":3426:3868  function markJobCompleted(uint256 _jobId) external {... */\n      pop\n      jump\t// out\n        /* \"contracts.sol\":2712:3414  function assignFreelancer(uint256 _jobId, address _freelancer) external payable {... */\n    tag_32:\n        /* \"contracts.sol\":2803:2818  Job storage job */\n      0x00\n        /* \"contracts.sol\":2821:2825  jobs */\n      0x01\n        /* \"contracts.sol\":2821:2833  jobs[_jobId] */\n      0x00\n        /* \"contracts.sol\":2826:2832  _jobId */\n      dup5\n        /* \"contracts.sol\":2821:2833  jobs[_jobId] */\n      dup2\n      mstore\n      0x20\n      add\n      swap1\n      dup2\n      mstore\n      0x20\n      add\n      0x00\n      keccak256\n        /* \"contracts.sol\":2803:2833  Job storage job = jobs[_jobId] */\n      swap1\n      pop\n        /* \"contracts.sol\":2866:2876  msg.sender */\n      caller\n        /* \"contracts.sol\":2852:2876  job.client == msg.sender */\n      0xffffffffffffffffffffffffffffffffffffffff\n      and\n        /* \"contracts.sol\":2852:2855  job */\n      dup2\n        /* \"contracts.sol\":2852:2862  job.client */\n      0x02\n      add\n      0x00\n      swap1\n      sload\n      swap1\n      0x0100\n      exp\n      swap1\n      div\n      0xffffffffffffffffffffffffffffffffffffffff\n      and\n        /* \"contracts.sol\":2852:2876  job.client == msg.sender */\n      0xffffffffffffffffffffffffffffffffffffffff\n      and\n      eq\n        /* \"contracts.sol\":2844:2914  require(job.client == msg.sender, \"Only client can assign freelancer\") */\n      tag_69\n      jumpi\n      mload(0x40)\n      0x08c379a000000000000000000000000000000000000000000000000000000000\n      dup2\n      mstore\n      0x04\n      add\n      tag_70\n      swap1\n      tag_71\n      jump\t// in\n    tag_70:\n      mload(0x40)\n      dup1\n      swap2\n      sub\n      swap1\n      revert\n    tag_69:\n        /* \"contracts.sol\":2959:2960  0 */\n      0x00\n        /* \"contracts.sol\":2933:2961  job.freelancer == address(0) */\n      0xffffffffffffffffffffffffffffffffffffffff\n      and\n        /* \"contracts.sol\":2933:2936  job */\n      dup2\n        /* \"contracts.sol\":2933:2947  job.freelancer */\n      0x03\n      add\n      0x00\n      swap1\n      sload\n      swap1\n      0x0100\n      exp\n      swap1\n      div\n      0xffffffffffffffffffffffffffffffffffffffff\n      and\n        /* \"contracts.sol\":2933:2961  job.freelancer == address(0) */\n      0xffffffffffffffffffffffffffffffffffffffff\n      and\n      eq\n        /* \"contracts.sol\":2925:2993  require(job.freelancer == address(0), \"Freelancer already assigned\") */\n      tag_72\n      jumpi\n      mload(0x40)\n      0x08c379a000000000000000000000000000000000000000000000000000000000\n      dup2\n      mstore\n      0x04\n      add\n      tag_73\n      swap1\n      tag_74\n      jump\t// in\n    tag_73:\n      mload(0x40)\n      dup1\n      swap2\n      sub\n      swap1\n      revert\n    tag_72:\n        /* \"contracts.sol\":3013:3016  job */\n      dup1\n        /* \"contracts.sol\":3013:3026  job.completed */\n      0x03\n      add\n      0x14\n      swap1\n      sload\n      swap1\n      0x0100\n      exp\n      swap1\n      div\n      0xff\n      and\n        /* \"contracts.sol\":3012:3026  !job.completed */\n      iszero\n        /* \"contracts.sol\":3004:3052  require(!job.completed, \"Job already completed\") */\n      tag_75\n      jumpi\n      mload(0x40)\n      0x08c379a000000000000000000000000000000000000000000000000000000000\n      dup2\n      mstore\n      0x04\n      add\n      tag_76\n      swap1\n      tag_63\n      jump\t// in\n    tag_76:\n      mload(0x40)\n      dup1\n      swap2\n      sub\n      swap1\n      revert\n    tag_75:\n        /* \"contracts.sol\":3094:3095  0 */\n      0x00\n        /* \"contracts.sol\":3071:3096  _freelancer != address(0) */\n      0xffffffffffffffffffffffffffffffffffffffff\n      and\n        /* \"contracts.sol\":3071:3082  _freelancer */\n      dup3\n        /* \"contracts.sol\":3071:3096  _freelancer != address(0) */\n      0xffffffffffffffffffffffffffffffffffffffff\n      and\n      sub\n        /* \"contracts.sol\":3063:3127  require(_freelancer != address(0), \"Invalid freelancer address\") */\n      tag_77\n      jumpi\n      mload(0x40)\n      0x08c379a000000000000000000000000000000000000000000000000000000000\n      dup2\n      mstore\n      0x04\n      add\n      tag_78\n      swap1\n      tag_79\n      jump\t// in\n    tag_78:\n      mload(0x40)\n      dup1\n      swap2\n      sub\n      swap1\n      revert\n    tag_77:\n        /* \"contracts.sol\":3159:3162  job */\n      dup1\n        /* \"contracts.sol\":3159:3169  job.budget */\n      0x01\n      add\n      sload\n        /* \"contracts.sol\":3146:3155  msg.value */\n      callvalue\n        /* \"contracts.sol\":3146:3169  msg.value == job.budget */\n      eq\n        /* \"contracts.sol\":3138:3203  require(msg.value == job.budget, \"Must send exact budget amount\") */\n      tag_80\n      jumpi\n      mload(0x40)\n      0x08c379a000000000000000000000000000000000000000000000000000000000\n      dup2\n      mstore\n      0x04\n      add\n      tag_81\n      swap1\n      tag_82\n      jump\t// in\n    tag_81:\n      mload(0x40)\n      dup1\n      swap2\n      sub\n      swap1\n      revert\n    tag_80:\n        /* \"contracts.sol\":3241:3252  _freelancer */\n      dup2\n        /* \"contracts.sol\":3224:3227  job */\n      dup2\n        /* \"contracts.sol\":3224:3238  job.freelancer */\n      0x03\n      add\n      0x00\n        /* \"contracts.sol\":3224:3252  job.freelancer = _freelancer */\n      0x0100\n      exp\n      dup2\n      sload\n      dup2\n      0xffffffffffffffffffffffffffffffffffffffff\n      mul\n      not\n      and\n      swap1\n      dup4\n      0xffffffffffffffffffffffffffffffffffffffff\n      and\n      mul\n      or\n      swap1\n      sstore\n      pop\n        /* \"contracts.sol\":3273:3287  escrowContract */\n      0x02\n      0x00\n      swap1\n      sload\n      swap1\n      0x0100\n      exp\n      swap1\n      div\n      0xffffffffffffffffffffffffffffffffffffffff\n      and\n        /* \"contracts.sol\":3273:3300  escrowContract.createEscrow */\n      0xffffffffffffffffffffffffffffffffffffffff\n      and\n      0xdbcd72f0\n        /* \"contracts.sol\":3308:3317  msg.value */\n      callvalue\n        /* \"contracts.sol\":3319:3325  _jobId */\n      dup6\n        /* \"contracts.sol\":3335:3346  _freelancer */\n      dup6\n        /* \"contracts.sol\":3273:3348  escrowContract.createEscrow{value: msg.value}(_jobId, payable(_freelancer)) */\n      mload(0x40)\n      dup5\n      0xffffffff\n      and\n      0xe0\n      shl\n      dup2\n      mstore\n      0x04\n      add\n      tag_83\n      swap3\n      swap2\n      swap1\n      tag_84\n      jump\t// in\n    tag_83:\n      0x00\n      mload(0x40)\n      dup1\n      dup4\n      sub\n      dup2\n      dup6\n      dup9\n      dup1\n      extcodesize\n      iszero\n      dup1\n      iszero\n      tag_85\n      jumpi\n      0x00\n      dup1\n      revert\n    tag_85:\n      pop\n      gas\n      call\n      iszero\n      dup1\n      iszero\n      tag_87\n      jumpi\n      returndatasize\n      0x00\n      dup1\n      returndatacopy\n      revert(0x00, returndatasize)\n    tag_87:\n      pop\n      pop\n      pop\n      pop\n      pop\n        /* \"contracts.sol\":3386:3392  _jobId */\n      dup3\n        /* \"contracts.sol\":3374:3406  JobAssigned(_jobId, _freelancer) */\n      0x3738a681a43a0b6a554742a08bae57e0215e8a774217dc2e7de6c9411b6d0ddc\n        /* \"contracts.sol\":3394:3405  _freelancer */\n      dup4\n        /* \"contracts.sol\":3374:3406  JobAssigned(_jobId, _freelancer) */\n      mload(0x40)\n      tag_88\n      swap2\n      swap1\n      tag_89\n      jump\t// in\n    tag_88:\n      mload(0x40)\n      dup1\n      swap2\n      sub\n      swap1\n      log2\n        /* \"contracts.sol\":2792:3414  {... */\n      pop\n        /* \"contracts.sol\":2712:3414  function assignFreelancer(uint256 _jobId, address _freelancer) external payable {... */\n      pop\n      pop\n      jump\t// out\n        /* \"contracts.sol\":1733:1769  EscrowContract public escrowContract */\n    tag_35:\n      0x02\n      0x00\n      swap1\n      sload\n      swap1\n      0x0100\n      exp\n      swap1\n      div\n      0xffffffffffffffffffffffffffffffffffffffff\n      and\n      dup2\n      jump\t// out\n        /* \"#utility.yul\":7:82   */\n    tag_90:\n        /* \"#utility.yul\":40:46   */\n      0x00\n        /* \"#utility.yul\":73:75   */\n      0x40\n        /* \"#utility.yul\":67:76   */\n      mload\n        /* \"#utility.yul\":57:76   */\n      swap1\n      pop\n        /* \"#utility.yul\":7:82   */\n      swap1\n      jump\t// out\n        /* \"#utility.yul\":88:205   */\n    tag_91:\n        /* \"#utility.yul\":197:198   */\n      0x00\n        /* \"#utility.yul\":194:195   */\n      dup1\n        /* \"#utility.yul\":187:199   */\n      revert\n        /* \"#utility.yul\":211:328   */\n    tag_92:\n        /* \"#utility.yul\":320:321   */\n      0x00\n        /* \"#utility.yul\":317:318   */\n      dup1\n        /* \"#utility.yul\":310:322   */\n      revert\n        /* \"#utility.yul\":334:411   */\n    tag_93:\n        /* \"#utility.yul\":371:378   */\n      0x00\n        /* \"#utility.yul\":400:405   */\n      dup2\n        /* \"#utility.yul\":389:405   */\n      swap1\n      pop\n        /* \"#utility.yul\":334:411   */\n      swap2\n      swap1\n      pop\n      jump\t// out\n        /* \"#utility.yul\":417:539   */\n    tag_94:\n        /* \"#utility.yul\":490:514   */\n      tag_163\n        /* \"#utility.yul\":508:513   */\n      dup2\n        /* \"#utility.yul\":490:514   */\n      tag_93\n      jump\t// in\n    tag_163:\n        /* \"#utility.yul\":483:488   */\n      dup2\n        /* \"#utility.yul\":480:515   */\n      eq\n        /* \"#utility.yul\":470:533   */\n      tag_164\n      jumpi\n        /* \"#utility.yul\":529:530   */\n      0x00\n        /* \"#utility.yul\":526:527   */\n      dup1\n        /* \"#utility.yul\":519:531   */\n      revert\n        /* \"#utility.yul\":470:533   */\n    tag_164:\n        /* \"#utility.yul\":417:539   */\n      pop\n      jump\t// out\n        /* \"#utility.yul\":545:684   */\n    tag_95:\n        /* \"#utility.yul\":591:596   */\n      0x00\n        /* \"#utility.yul\":629:635   */\n      dup2\n        /* \"#utility.yul\":616:636   */\n      calldataload\n        /* \"#utility.yul\":607:636   */\n      swap1\n      pop\n        /* \"#utility.yul\":645:678   */\n      tag_166\n        /* \"#utility.yul\":672:677   */\n      dup2\n        /* \"#utility.yul\":645:678   */\n      tag_94\n      jump\t// in\n    tag_166:\n        /* \"#utility.yul\":545:684   */\n      swap3\n      swap2\n      pop\n      pop\n      jump\t// out\n        /* \"#utility.yul\":690:1019   */\n    tag_11:\n        /* \"#utility.yul\":749:755   */\n      0x00\n        /* \"#utility.yul\":798:800   */\n      0x20\n        /* \"#utility.yul\":786:795   */\n      dup3\n        /* \"#utility.yul\":777:784   */\n      dup5\n        /* \"#utility.yul\":773:796   */\n      sub\n        /* \"#utility.yul\":769:801   */\n      slt\n        /* \"#utility.yul\":766:885   */\n      iszero\n      tag_168\n      jumpi\n        /* \"#utility.yul\":804:883   */\n      tag_169\n      tag_91\n      jump\t// in\n    tag_169:\n        /* \"#utility.yul\":766:885   */\n    tag_168:\n        /* \"#utility.yul\":924:925   */\n      0x00\n        /* \"#utility.yul\":949:1002   */\n      tag_170\n        /* \"#utility.yul\":994:1001   */\n      dup5\n        /* \"#utility.yul\":985:991   */\n      dup3\n        /* \"#utility.yul\":974:983   */\n      dup6\n        /* \"#utility.yul\":970:992   */\n      add\n        /* \"#utility.yul\":949:1002   */\n      tag_95\n      jump\t// in\n    tag_170:\n        /* \"#utility.yul\":939:1002   */\n      swap2\n      pop\n        /* \"#utility.yul\":895:1012   */\n      pop\n        /* \"#utility.yul\":690:1019   */\n      swap3\n      swap2\n      pop\n      pop\n      jump\t// out\n        /* \"#utility.yul\":1025:1124   */\n    tag_96:\n        /* \"#utility.yul\":1077:1083   */\n      0x00\n        /* \"#utility.yul\":1111:1116   */\n      dup2\n        /* \"#utility.yul\":1105:1117   */\n      mload\n        /* \"#utility.yul\":1095:1117   */\n      swap1\n      pop\n        /* \"#utility.yul\":1025:1124   */\n      swap2\n      swap1\n      pop\n      jump\t// out\n        /* \"#utility.yul\":1130:1299   */\n    tag_97:\n        /* \"#utility.yul\":1214:1225   */\n      0x00\n        /* \"#utility.yul\":1248:1254   */\n      dup3\n        /* \"#utility.yul\":1243:1246   */\n      dup3\n        /* \"#utility.yul\":1236:1255   */\n      mstore\n        /* \"#utility.yul\":1288:1292   */\n      0x20\n        /* \"#utility.yul\":1283:1286   */\n      dup3\n        /* \"#utility.yul\":1279:1293   */\n      add\n        /* \"#utility.yul\":1264:1293   */\n      swap1\n      pop\n        /* \"#utility.yul\":1130:1299   */\n      swap3\n      swap2\n      pop\n      pop\n      jump\t// out\n        /* \"#utility.yul\":1305:1444   */\n    tag_98:\n        /* \"#utility.yul\":1394:1400   */\n      dup3\n        /* \"#utility.yul\":1389:1392   */\n      dup2\n        /* \"#utility.yul\":1384:1387   */\n      dup4\n        /* \"#utility.yul\":1378:1401   */\n      mcopy\n        /* \"#utility.yul\":1435:1436   */\n      0x00\n        /* \"#utility.yul\":1426:1432   */\n      dup4\n        /* \"#utility.yul\":1421:1424   */\n      dup4\n        /* \"#utility.yul\":1417:1433   */\n      add\n        /* \"#utility.yul\":1410:1437   */\n      mstore\n        /* \"#utility.yul\":1305:1444   */\n      pop\n      pop\n      pop\n      jump\t// out\n        /* \"#utility.yul\":1450:1552   */\n    tag_99:\n        /* \"#utility.yul\":1491:1497   */\n      0x00\n        /* \"#utility.yul\":1542:1544   */\n      0x1f\n        /* \"#utility.yul\":1538:1545   */\n      not\n        /* \"#utility.yul\":1533:1535   */\n      0x1f\n        /* \"#utility.yul\":1526:1531   */\n      dup4\n        /* \"#utility.yul\":1522:1536   */\n      add\n        /* \"#utility.yul\":1518:1546   */\n      and\n        /* \"#utility.yul\":1508:1546   */\n      swap1\n      pop\n        /* \"#utility.yul\":1450:1552   */\n      swap2\n      swap1\n      pop\n      jump\t// out\n        /* \"#utility.yul\":1558:1935   */\n    tag_100:\n        /* \"#utility.yul\":1646:1649   */\n      0x00\n        /* \"#utility.yul\":1674:1713   */\n      tag_176\n        /* \"#utility.yul\":1707:1712   */\n      dup3\n        /* \"#utility.yul\":1674:1713   */\n      tag_96\n      jump\t// in\n    tag_176:\n        /* \"#utility.yul\":1729:1800   */\n      tag_177\n        /* \"#utility.yul\":1793:1799   */\n      dup2\n        /* \"#utility.yul\":1788:1791   */\n      dup6\n        /* \"#utility.yul\":1729:1800   */\n      tag_97\n      jump\t// in\n    tag_177:\n        /* \"#utility.yul\":1722:1800   */\n      swap4\n      pop\n        /* \"#utility.yul\":1809:1874   */\n      tag_178\n        /* \"#utility.yul\":1867:1873   */\n      dup2\n        /* \"#utility.yul\":1862:1865   */\n      dup6\n        /* \"#utility.yul\":1855:1859   */\n      0x20\n        /* \"#utility.yul\":1848:1853   */\n      dup7\n        /* \"#utility.yul\":1844:1860   */\n      add\n        /* \"#utility.yul\":1809:1874   */\n      tag_98\n      jump\t// in\n    tag_178:\n        /* \"#utility.yul\":1899:1928   */\n      tag_179\n        /* \"#utility.yul\":1921:1927   */\n      dup2\n        /* \"#utility.yul\":1899:1928   */\n      tag_99\n      jump\t// in\n    tag_179:\n        /* \"#utility.yul\":1894:1897   */\n      dup5\n        /* \"#utility.yul\":1890:1929   */\n      add\n        /* \"#utility.yul\":1883:1929   */\n      swap2\n      pop\n        /* \"#utility.yul\":1650:1935   */\n      pop\n        /* \"#utility.yul\":1558:1935   */\n      swap3\n      swap2\n      pop\n      pop\n      jump\t// out\n        /* \"#utility.yul\":1941:2059   */\n    tag_101:\n        /* \"#utility.yul\":2028:2052   */\n      tag_181\n        /* \"#utility.yul\":2046:2051   */\n      dup2\n        /* \"#utility.yul\":2028:2052   */\n      tag_93\n      jump\t// in\n    tag_181:\n        /* \"#utility.yul\":2023:2026   */\n      dup3\n        /* \"#utility.yul\":2016:2053   */\n      mstore\n        /* \"#utility.yul\":1941:2059   */\n      pop\n      pop\n      jump\t// out\n        /* \"#utility.yul\":2065:2191   */\n    tag_102:\n        /* \"#utility.yul\":2102:2109   */\n      0x00\n        /* \"#utility.yul\":2142:2184   */\n      0xffffffffffffffffffffffffffffffffffffffff\n        /* \"#utility.yul\":2135:2140   */\n      dup3\n        /* \"#utility.yul\":2131:2185   */\n      and\n        /* \"#utility.yul\":2120:2185   */\n      swap1\n      pop\n        /* \"#utility.yul\":2065:2191   */\n      swap2\n      swap1\n      pop\n      jump\t// out\n        /* \"#utility.yul\":2197:2293   */\n    tag_103:\n        /* \"#utility.yul\":2234:2241   */\n      0x00\n        /* \"#utility.yul\":2263:2287   */\n      tag_184\n        /* \"#utility.yul\":2281:2286   */\n      dup3\n        /* \"#utility.yul\":2263:2287   */\n      tag_102\n      jump\t// in\n    tag_184:\n        /* \"#utility.yul\":2252:2287   */\n      swap1\n      pop\n        /* \"#utility.yul\":2197:2293   */\n      swap2\n      swap1\n      pop\n      jump\t// out\n        /* \"#utility.yul\":2299:2417   */\n    tag_104:\n        /* \"#utility.yul\":2386:2410   */\n      tag_186\n        /* \"#utility.yul\":2404:2409   */\n      dup2\n        /* \"#utility.yul\":2386:2410   */\n      tag_103\n      jump\t// in\n    tag_186:\n        /* \"#utility.yul\":2381:2384   */\n      dup3\n        /* \"#utility.yul\":2374:2411   */\n      mstore\n        /* \"#utility.yul\":2299:2417   */\n      pop\n      pop\n      jump\t// out\n        /* \"#utility.yul\":2423:2513   */\n    tag_105:\n        /* \"#utility.yul\":2457:2464   */\n      0x00\n        /* \"#utility.yul\":2500:2505   */\n      dup2\n        /* \"#utility.yul\":2493:2506   */\n      iszero\n        /* \"#utility.yul\":2486:2507   */\n      iszero\n        /* \"#utility.yul\":2475:2507   */\n      swap1\n      pop\n        /* \"#utility.yul\":2423:2513   */\n      swap2\n      swap1\n      pop\n      jump\t// out\n        /* \"#utility.yul\":2519:2628   */\n    tag_106:\n        /* \"#utility.yul\":2600:2621   */\n      tag_189\n        /* \"#utility.yul\":2615:2620   */\n      dup2\n        /* \"#utility.yul\":2600:2621   */\n      tag_105\n      jump\t// in\n    tag_189:\n        /* \"#utility.yul\":2595:2598   */\n      dup3\n        /* \"#utility.yul\":2588:2622   */\n      mstore\n        /* \"#utility.yul\":2519:2628   */\n      pop\n      pop\n      jump\t// out\n        /* \"#utility.yul\":2634:3377   */\n    tag_14:\n        /* \"#utility.yul\":2853:2857   */\n      0x00\n        /* \"#utility.yul\":2891:2894   */\n      0xa0\n        /* \"#utility.yul\":2880:2889   */\n      dup3\n        /* \"#utility.yul\":2876:2895   */\n      add\n        /* \"#utility.yul\":2868:2895   */\n      swap1\n      pop\n        /* \"#utility.yul\":2941:2950   */\n      dup2\n        /* \"#utility.yul\":2935:2939   */\n      dup2\n        /* \"#utility.yul\":2931:2951   */\n      sub\n        /* \"#utility.yul\":2927:2928   */\n      0x00\n        /* \"#utility.yul\":2916:2925   */\n      dup4\n        /* \"#utility.yul\":2912:2929   */\n      add\n        /* \"#utility.yul\":2905:2952   */\n      mstore\n        /* \"#utility.yul\":2969:3047   */\n      tag_191\n        /* \"#utility.yul\":3042:3046   */\n      dup2\n        /* \"#utility.yul\":3033:3039   */\n      dup9\n        /* \"#utility.yul\":2969:3047   */\n      tag_100\n      jump\t// in\n    tag_191:\n        /* \"#utility.yul\":2961:3047   */\n      swap1\n      pop\n        /* \"#utility.yul\":3057:3129   */\n      tag_192\n        /* \"#utility.yul\":3125:3127   */\n      0x20\n        /* \"#utility.yul\":3114:3123   */\n      dup4\n        /* \"#utility.yul\":3110:3128   */\n      add\n        /* \"#utility.yul\":3101:3107   */\n      dup8\n        /* \"#utility.yul\":3057:3129   */\n      tag_101\n      jump\t// in\n    tag_192:\n        /* \"#utility.yul\":3139:3211   */\n      tag_193\n        /* \"#utility.yul\":3207:3209   */\n      0x40\n        /* \"#utility.yul\":3196:3205   */\n      dup4\n        /* \"#utility.yul\":3192:3210   */\n      add\n        /* \"#utility.yul\":3183:3189   */\n      dup7\n        /* \"#utility.yul\":3139:3211   */\n      tag_104\n      jump\t// in\n    tag_193:\n        /* \"#utility.yul\":3221:3293   */\n      tag_194\n        /* \"#utility.yul\":3289:3291   */\n      0x60\n        /* \"#utility.yul\":3278:3287   */\n      dup4\n        /* \"#utility.yul\":3274:3292   */\n      add\n        /* \"#utility.yul\":3265:3271   */\n      dup6\n        /* \"#utility.yul\":3221:3293   */\n      tag_104\n      jump\t// in\n    tag_194:\n        /* \"#utility.yul\":3303:3370   */\n      tag_195\n        /* \"#utility.yul\":3365:3368   */\n      0x80\n        /* \"#utility.yul\":3354:3363   */\n      dup4\n        /* \"#utility.yul\":3350:3369   */\n      add\n        /* \"#utility.yul\":3341:3347   */\n      dup5\n        /* \"#utility.yul\":3303:3370   */\n      tag_106\n      jump\t// in\n    tag_195:\n        /* \"#utility.yul\":2634:3377   */\n      swap7\n      swap6\n      pop\n      pop\n      pop\n      pop\n      pop\n      pop\n      jump\t// out\n        /* \"#utility.yul\":3383:3605   */\n    tag_19:\n        /* \"#utility.yul\":3476:3480   */\n      0x00\n        /* \"#utility.yul\":3514:3516   */\n      0x20\n        /* \"#utility.yul\":3503:3512   */\n      dup3\n        /* \"#utility.yul\":3499:3517   */\n      add\n        /* \"#utility.yul\":3491:3517   */\n      swap1\n      pop\n        /* \"#utility.yul\":3527:3598   */\n      tag_197\n        /* \"#utility.yul\":3595:3596   */\n      0x00\n        /* \"#utility.yul\":3584:3593   */\n      dup4\n        /* \"#utility.yul\":3580:3597   */\n      add\n        /* \"#utility.yul\":3571:3577   */\n      dup5\n        /* \"#utility.yul\":3527:3598   */\n      tag_101\n      jump\t// in\n    tag_197:\n        /* \"#utility.yul\":3383:3605   */\n      swap3\n      swap2\n      pop\n      pop\n      jump\t// out\n        /* \"#utility.yul\":3611:3728   */\n    tag_107:\n        /* \"#utility.yul\":3720:3721   */\n      0x00\n        /* \"#utility.yul\":3717:3718   */\n      dup1\n        /* \"#utility.yul\":3710:3722   */\n      revert\n        /* \"#utility.yul\":3734:3851   */\n    tag_108:\n        /* \"#utility.yul\":3843:3844   */\n      0x00\n        /* \"#utility.yul\":3840:3841   */\n      dup1\n        /* \"#utility.yul\":3833:3845   */\n      revert\n        /* \"#utility.yul\":3857:4037   */\n    tag_109:\n        /* \"#utility.yul\":3905:3982   */\n      0x4e487b7100000000000000000000000000000000000000000000000000000000\n        /* \"#utility.yul\":3902:3903   */\n      0x00\n        /* \"#utility.yul\":3895:3983   */\n      mstore\n        /* \"#utility.yul\":4002:4006   */\n      0x41\n        /* \"#utility.yul\":3999:4000   */\n      0x04\n        /* \"#utility.yul\":3992:4007   */\n      mstore\n        /* \"#utility.yul\":4026:4030   */\n      0x24\n        /* \"#utility.yul\":4023:4024   */\n      0x00\n        /* \"#utility.yul\":4016:4031   */\n      revert\n        /* \"#utility.yul\":4043:4324   */\n    tag_110:\n        /* \"#utility.yul\":4126:4153   */\n      tag_202\n        /* \"#utility.yul\":4148:4152   */\n      dup3\n        /* \"#utility.yul\":4126:4153   */\n      tag_99\n      jump\t// in\n    tag_202:\n        /* \"#utility.yul\":4118:4124   */\n      dup2\n        /* \"#utility.yul\":4114:4154   */\n      add\n        /* \"#utility.yul\":4256:4262   */\n      dup2\n        /* \"#utility.yul\":4244:4254   */\n      dup2\n        /* \"#utility.yul\":4241:4263   */\n      lt\n        /* \"#utility.yul\":4220:4238   */\n      0xffffffffffffffff\n        /* \"#utility.yul\":4208:4218   */\n      dup3\n        /* \"#utility.yul\":4205:4239   */\n      gt\n        /* \"#utility.yul\":4202:4264   */\n      or\n        /* \"#utility.yul\":4199:4287   */\n      iszero\n      tag_203\n      jumpi\n        /* \"#utility.yul\":4267:4285   */\n      tag_204\n      tag_109\n      jump\t// in\n    tag_204:\n        /* \"#utility.yul\":4199:4287   */\n    tag_203:\n        /* \"#utility.yul\":4307:4317   */\n      dup1\n        /* \"#utility.yul\":4303:4305   */\n      0x40\n        /* \"#utility.yul\":4296:4318   */\n      mstore\n        /* \"#utility.yul\":4086:4324   */\n      pop\n        /* \"#utility.yul\":4043:4324   */\n      pop\n      pop\n      jump\t// out\n        /* \"#utility.yul\":4330:4459   */\n    tag_111:\n        /* \"#utility.yul\":4364:4370   */\n      0x00\n        /* \"#utility.yul\":4391:4411   */\n      tag_206\n      tag_90\n      jump\t// in\n    tag_206:\n        /* \"#utility.yul\":4381:4411   */\n      swap1\n      pop\n        /* \"#utility.yul\":4420:4453   */\n      tag_207\n        /* \"#utility.yul\":4448:4452   */\n      dup3\n        /* \"#utility.yul\":4440:4446   */\n      dup3\n        /* \"#utility.yul\":4420:4453   */\n      tag_110\n      jump\t// in\n    tag_207:\n        /* \"#utility.yul\":4330:4459   */\n      swap2\n      swap1\n      pop\n      jump\t// out\n        /* \"#utility.yul\":4465:4773   */\n    tag_112:\n        /* \"#utility.yul\":4527:4531   */\n      0x00\n        /* \"#utility.yul\":4617:4635   */\n      0xffffffffffffffff\n        /* \"#utility.yul\":4609:4615   */\n      dup3\n        /* \"#utility.yul\":4606:4636   */\n      gt\n        /* \"#utility.yul\":4603:4659   */\n      iszero\n      tag_209\n      jumpi\n        /* \"#utility.yul\":4639:4657   */\n      tag_210\n      tag_109\n      jump\t// in\n    tag_210:\n        /* \"#utility.yul\":4603:4659   */\n    tag_209:\n        /* \"#utility.yul\":4677:4706   */\n      tag_211\n        /* \"#utility.yul\":4699:4705   */\n      dup3\n        /* \"#utility.yul\":4677:4706   */\n      tag_99\n      jump\t// in\n    tag_211:\n        /* \"#utility.yul\":4669:4706   */\n      swap1\n      pop\n        /* \"#utility.yul\":4761:4765   */\n      0x20\n        /* \"#utility.yul\":4755:4759   */\n      dup2\n        /* \"#utility.yul\":4751:4766   */\n      add\n        /* \"#utility.yul\":4743:4766   */\n      swap1\n      pop\n        /* \"#utility.yul\":4465:4773   */\n      swap2\n      swap1\n      pop\n      jump\t// out\n        /* \"#utility.yul\":4779:4927   */\n    tag_113:\n        /* \"#utility.yul\":4877:4883   */\n      dup3\n        /* \"#utility.yul\":4872:4875   */\n      dup2\n        /* \"#utility.yul\":4867:4870   */\n      dup4\n        /* \"#utility.yul\":4854:4884   */\n      calldatacopy\n        /* \"#utility.yul\":4918:4919   */\n      0x00\n        /* \"#utility.yul\":4909:4915   */\n      dup4\n        /* \"#utility.yul\":4904:4907   */\n      dup4\n        /* \"#utility.yul\":4900:4916   */\n      add\n        /* \"#utility.yul\":4893:4920   */\n      mstore\n        /* \"#utility.yul\":4779:4927   */\n      pop\n      pop\n      pop\n      jump\t// out\n        /* \"#utility.yul\":4933:5358   */\n    tag_114:\n        /* \"#utility.yul\":5011:5016   */\n      0x00\n        /* \"#utility.yul\":5036:5102   */\n      tag_214\n        /* \"#utility.yul\":5052:5101   */\n      tag_215\n        /* \"#utility.yul\":5094:5100   */\n      dup5\n        /* \"#utility.yul\":5052:5101   */\n      tag_112\n      jump\t// in\n    tag_215:\n        /* \"#utility.yul\":5036:5102   */\n      tag_111\n      jump\t// in\n    tag_214:\n        /* \"#utility.yul\":5027:5102   */\n      swap1\n      pop\n        /* \"#utility.yul\":5125:5131   */\n      dup3\n        /* \"#utility.yul\":5118:5123   */\n      dup2\n        /* \"#utility.yul\":5111:5132   */\n      mstore\n        /* \"#utility.yul\":5163:5167   */\n      0x20\n        /* \"#utility.yul\":5156:5161   */\n      dup2\n        /* \"#utility.yul\":5152:5168   */\n      add\n        /* \"#utility.yul\":5201:5204   */\n      dup5\n        /* \"#utility.yul\":5192:5198   */\n      dup5\n        /* \"#utility.yul\":5187:5190   */\n      dup5\n        /* \"#utility.yul\":5183:5199   */\n      add\n        /* \"#utility.yul\":5180:5205   */\n      gt\n        /* \"#utility.yul\":5177:5289   */\n      iszero\n      tag_216\n      jumpi\n        /* \"#utility.yul\":5208:5287   */\n      tag_217\n      tag_108\n      jump\t// in\n    tag_217:\n        /* \"#utility.yul\":5177:5289   */\n    tag_216:\n        /* \"#utility.yul\":5298:5352   */\n      tag_218\n        /* \"#utility.yul\":5345:5351   */\n      dup5\n        /* \"#utility.yul\":5340:5343   */\n      dup3\n        /* \"#utility.yul\":5335:5338   */\n      dup6\n        /* \"#utility.yul\":5298:5352   */\n      tag_113\n      jump\t// in\n    tag_218:\n        /* \"#utility.yul\":5017:5358   */\n      pop\n        /* \"#utility.yul\":4933:5358   */\n      swap4\n      swap3\n      pop\n      pop\n      pop\n      jump\t// out\n        /* \"#utility.yul\":5378:5718   */\n    tag_115:\n        /* \"#utility.yul\":5434:5439   */\n      0x00\n        /* \"#utility.yul\":5483:5486   */\n      dup3\n        /* \"#utility.yul\":5476:5480   */\n      0x1f\n        /* \"#utility.yul\":5468:5474   */\n      dup4\n        /* \"#utility.yul\":5464:5481   */\n      add\n        /* \"#utility.yul\":5460:5487   */\n      slt\n        /* \"#utility.yul\":5450:5572   */\n      tag_220\n      jumpi\n        /* \"#utility.yul\":5491:5570   */\n      tag_221\n      tag_107\n      jump\t// in\n    tag_221:\n        /* \"#utility.yul\":5450:5572   */\n    tag_220:\n        /* \"#utility.yul\":5608:5614   */\n      dup2\n        /* \"#utility.yul\":5595:5615   */\n      calldataload\n        /* \"#utility.yul\":5633:5712   */\n      tag_222\n        /* \"#utility.yul\":5708:5711   */\n      dup5\n        /* \"#utility.yul\":5700:5706   */\n      dup3\n        /* \"#utility.yul\":5693:5697   */\n      0x20\n        /* \"#utility.yul\":5685:5691   */\n      dup7\n        /* \"#utility.yul\":5681:5698   */\n      add\n        /* \"#utility.yul\":5633:5712   */\n      tag_114\n      jump\t// in\n    tag_222:\n        /* \"#utility.yul\":5624:5712   */\n      swap2\n      pop\n        /* \"#utility.yul\":5440:5718   */\n      pop\n        /* \"#utility.yul\":5378:5718   */\n      swap3\n      swap2\n      pop\n      pop\n      jump\t// out\n        /* \"#utility.yul\":5724:6378   */\n    tag_23:\n        /* \"#utility.yul\":5802:5808   */\n      0x00\n        /* \"#utility.yul\":5810:5816   */\n      dup1\n        /* \"#utility.yul\":5859:5861   */\n      0x40\n        /* \"#utility.yul\":5847:5856   */\n      dup4\n        /* \"#utility.yul\":5838:5845   */\n      dup6\n        /* \"#utility.yul\":5834:5857   */\n      sub\n        /* \"#utility.yul\":5830:5862   */\n      slt\n        /* \"#utility.yul\":5827:5946   */\n      iszero\n      tag_224\n      jumpi\n        /* \"#utility.yul\":5865:5944   */\n      tag_225\n      tag_91\n      jump\t// in\n    tag_225:\n        /* \"#utility.yul\":5827:5946   */\n    tag_224:\n        /* \"#utility.yul\":6013:6014   */\n      0x00\n        /* \"#utility.yul\":6002:6011   */\n      dup4\n        /* \"#utility.yul\":5998:6015   */\n      add\n        /* \"#utility.yul\":5985:6016   */\n      calldataload\n        /* \"#utility.yul\":6043:6061   */\n      0xffffffffffffffff\n        /* \"#utility.yul\":6035:6041   */\n      dup2\n        /* \"#utility.yul\":6032:6062   */\n      gt\n        /* \"#utility.yul\":6029:6146   */\n      iszero\n      tag_226\n      jumpi\n        /* \"#utility.yul\":6065:6144   */\n      tag_227\n      tag_92\n      jump\t// in\n    tag_227:\n        /* \"#utility.yul\":6029:6146   */\n    tag_226:\n        /* \"#utility.yul\":6170:6233   */\n      tag_228\n        /* \"#utility.yul\":6225:6232   */\n      dup6\n        /* \"#utility.yul\":6216:6222   */\n      dup3\n        /* \"#utility.yul\":6205:6214   */\n      dup7\n        /* \"#utility.yul\":6201:6223   */\n      add\n        /* \"#utility.yul\":6170:6233   */\n      tag_115\n      jump\t// in\n    tag_228:\n        /* \"#utility.yul\":6160:6233   */\n      swap3\n      pop\n        /* \"#utility.yul\":5956:6243   */\n      pop\n        /* \"#utility.yul\":6282:6284   */\n      0x20\n        /* \"#utility.yul\":6308:6361   */\n      tag_229\n        /* \"#utility.yul\":6353:6360   */\n      dup6\n        /* \"#utility.yul\":6344:6350   */\n      dup3\n        /* \"#utility.yul\":6333:6342   */\n      dup7\n        /* \"#utility.yul\":6329:6351   */\n      add\n        /* \"#utility.yul\":6308:6361   */\n      tag_95\n      jump\t// in\n    tag_229:\n        /* \"#utility.yul\":6298:6361   */\n      swap2\n      pop\n        /* \"#utility.yul\":6253:6371   */\n      pop\n        /* \"#utility.yul\":5724:6378   */\n      swap3\n      pop\n      swap3\n      swap1\n      pop\n      jump\t// out\n        /* \"#utility.yul\":6384:6506   */\n    tag_116:\n        /* \"#utility.yul\":6457:6481   */\n      tag_231\n        /* \"#utility.yul\":6475:6480   */\n      dup2\n        /* \"#utility.yul\":6457:6481   */\n      tag_103\n      jump\t// in\n    tag_231:\n        /* \"#utility.yul\":6450:6455   */\n      dup2\n        /* \"#utility.yul\":6447:6482   */\n      eq\n        /* \"#utility.yul\":6437:6500   */\n      tag_232\n      jumpi\n        /* \"#utility.yul\":6496:6497   */\n      0x00\n        /* \"#utility.yul\":6493:6494   */\n      dup1\n        /* \"#utility.yul\":6486:6498   */\n      revert\n        /* \"#utility.yul\":6437:6500   */\n    tag_232:\n        /* \"#utility.yul\":6384:6506   */\n      pop\n      jump\t// out\n        /* \"#utility.yul\":6512:6651   */\n    tag_117:\n        /* \"#utility.yul\":6558:6563   */\n      0x00\n        /* \"#utility.yul\":6596:6602   */\n      dup2\n        /* \"#utility.yul\":6583:6603   */\n      calldataload\n        /* \"#utility.yul\":6574:6603   */\n      swap1\n      pop\n        /* \"#utility.yul\":6612:6645   */\n      tag_234\n        /* \"#utility.yul\":6639:6644   */\n      dup2\n        /* \"#utility.yul\":6612:6645   */\n      tag_116\n      jump\t// in\n    tag_234:\n        /* \"#utility.yul\":6512:6651   */\n      swap3\n      swap2\n      pop\n      pop\n      jump\t// out\n        /* \"#utility.yul\":6657:7131   */\n    tag_31:\n        /* \"#utility.yul\":6725:6731   */\n      0x00\n        /* \"#utility.yul\":6733:6739   */\n      dup1\n        /* \"#utility.yul\":6782:6784   */\n      0x40\n        /* \"#utility.yul\":6770:6779   */\n      dup4\n        /* \"#utility.yul\":6761:6768   */\n      dup6\n        /* \"#utility.yul\":6757:6780   */\n      sub\n        /* \"#utility.yul\":6753:6785   */\n      slt\n        /* \"#utility.yul\":6750:6869   */\n      iszero\n      tag_236\n      jumpi\n        /* \"#utility.yul\":6788:6867   */\n      tag_237\n      tag_91\n      jump\t// in\n    tag_237:\n        /* \"#utility.yul\":6750:6869   */\n    tag_236:\n        /* \"#utility.yul\":6908:6909   */\n      0x00\n        /* \"#utility.yul\":6933:6986   */\n      tag_238\n        /* \"#utility.yul\":6978:6985   */\n      dup6\n        /* \"#utility.yul\":6969:6975   */\n      dup3\n        /* \"#utility.yul\":6958:6967   */\n      dup7\n        /* \"#utility.yul\":6954:6976   */\n      add\n        /* \"#utility.yul\":6933:6986   */\n      tag_95\n      jump\t// in\n    tag_238:\n        /* \"#utility.yul\":6923:6986   */\n      swap3\n      pop\n        /* \"#utility.yul\":6879:6996   */\n      pop\n        /* \"#utility.yul\":7035:7037   */\n      0x20\n        /* \"#utility.yul\":7061:7114   */\n      tag_239\n        /* \"#utility.yul\":7106:7113   */\n      dup6\n        /* \"#utility.yul\":7097:7103   */\n      dup3\n        /* \"#utility.yul\":7086:7095   */\n      dup7\n        /* \"#utility.yul\":7082:7104   */\n      add\n        /* \"#utility.yul\":7061:7114   */\n      tag_117\n      jump\t// in\n    tag_239:\n        /* \"#utility.yul\":7051:7114   */\n      swap2\n      pop\n        /* \"#utility.yul\":7006:7124   */\n      pop\n        /* \"#utility.yul\":6657:7131   */\n      swap3\n      pop\n      swap3\n      swap1\n      pop\n      jump\t// out\n        /* \"#utility.yul\":7137:7197   */\n    tag_118:\n        /* \"#utility.yul\":7165:7168   */\n      0x00\n        /* \"#utility.yul\":7186:7191   */\n      dup2\n        /* \"#utility.yul\":7179:7191   */\n      swap1\n      pop\n        /* \"#utility.yul\":7137:7197   */\n      swap2\n      swap1\n      pop\n      jump\t// out\n        /* \"#utility.yul\":7203:7345   */\n    tag_119:\n        /* \"#utility.yul\":7253:7262   */\n      0x00\n        /* \"#utility.yul\":7286:7339   */\n      tag_242\n        /* \"#utility.yul\":7304:7338   */\n      tag_243\n        /* \"#utility.yul\":7313:7337   */\n      tag_244\n        /* \"#utility.yul\":7331:7336   */\n      dup5\n        /* \"#utility.yul\":7313:7337   */\n      tag_102\n      jump\t// in\n    tag_244:\n        /* \"#utility.yul\":7304:7338   */\n      tag_118\n      jump\t// in\n    tag_243:\n        /* \"#utility.yul\":7286:7339   */\n      tag_102\n      jump\t// in\n    tag_242:\n        /* \"#utility.yul\":7273:7339   */\n      swap1\n      pop\n        /* \"#utility.yul\":7203:7345   */\n      swap2\n      swap1\n      pop\n      jump\t// out\n        /* \"#utility.yul\":7351:7477   */\n    tag_120:\n        /* \"#utility.yul\":7401:7410   */\n      0x00\n        /* \"#utility.yul\":7434:7471   */\n      tag_246\n        /* \"#utility.yul\":7465:7470   */\n      dup3\n        /* \"#utility.yul\":7434:7471   */\n      tag_119\n      jump\t// in\n    tag_246:\n        /* \"#utility.yul\":7421:7471   */\n      swap1\n      pop\n        /* \"#utility.yul\":7351:7477   */\n      swap2\n      swap1\n      pop\n      jump\t// out\n        /* \"#utility.yul\":7483:7631   */\n    tag_121:\n        /* \"#utility.yul\":7555:7564   */\n      0x00\n        /* \"#utility.yul\":7588:7625   */\n      tag_248\n        /* \"#utility.yul\":7619:7624   */\n      dup3\n        /* \"#utility.yul\":7588:7625   */\n      tag_120\n      jump\t// in\n    tag_248:\n        /* \"#utility.yul\":7575:7625   */\n      swap1\n      pop\n        /* \"#utility.yul\":7483:7631   */\n      swap2\n      swap1\n      pop\n      jump\t// out\n        /* \"#utility.yul\":7637:7812   */\n    tag_122:\n        /* \"#utility.yul\":7746:7805   */\n      tag_250\n        /* \"#utility.yul\":7799:7804   */\n      dup2\n        /* \"#utility.yul\":7746:7805   */\n      tag_121\n      jump\t// in\n    tag_250:\n        /* \"#utility.yul\":7741:7744   */\n      dup3\n        /* \"#utility.yul\":7734:7806   */\n      mstore\n        /* \"#utility.yul\":7637:7812   */\n      pop\n      pop\n      jump\t// out\n        /* \"#utility.yul\":7818:8084   */\n    tag_37:\n        /* \"#utility.yul\":7933:7937   */\n      0x00\n        /* \"#utility.yul\":7971:7973   */\n      0x20\n        /* \"#utility.yul\":7960:7969   */\n      dup3\n        /* \"#utility.yul\":7956:7974   */\n      add\n        /* \"#utility.yul\":7948:7974   */\n      swap1\n      pop\n        /* \"#utility.yul\":7984:8077   */\n      tag_252\n        /* \"#utility.yul\":8074:8075   */\n      0x00\n        /* \"#utility.yul\":8063:8072   */\n      dup4\n        /* \"#utility.yul\":8059:8076   */\n      add\n        /* \"#utility.yul\":8050:8056   */\n      dup5\n        /* \"#utility.yul\":7984:8077   */\n      tag_122\n      jump\t// in\n    tag_252:\n        /* \"#utility.yul\":7818:8084   */\n      swap3\n      swap2\n      pop\n      pop\n      jump\t// out\n        /* \"#utility.yul\":8090:8270   */\n    tag_123:\n        /* \"#utility.yul\":8138:8215   */\n      0x4e487b7100000000000000000000000000000000000000000000000000000000\n        /* \"#utility.yul\":8135:8136   */\n      0x00\n        /* \"#utility.yul\":8128:8216   */\n      mstore\n        /* \"#utility.yul\":8235:8239   */\n      0x22\n        /* \"#utility.yul\":8232:8233   */\n      0x04\n        /* \"#utility.yul\":8225:8240   */\n      mstore\n        /* \"#utility.yul\":8259:8263   */\n      0x24\n        /* \"#utility.yul\":8256:8257   */\n      0x00\n        /* \"#utility.yul\":8249:8264   */\n      revert\n        /* \"#utility.yul\":8276:8596   */\n    tag_39:\n        /* \"#utility.yul\":8320:8326   */\n      0x00\n        /* \"#utility.yul\":8357:8358   */\n      0x02\n        /* \"#utility.yul\":8351:8355   */\n      dup3\n        /* \"#utility.yul\":8347:8359   */\n      div\n        /* \"#utility.yul\":8337:8359   */\n      swap1\n      pop\n        /* \"#utility.yul\":8404:8405   */\n      0x01\n        /* \"#utility.yul\":8398:8402   */\n      dup3\n        /* \"#utility.yul\":8394:8406   */\n      and\n        /* \"#utility.yul\":8425:8443   */\n      dup1\n        /* \"#utility.yul\":8415:8496   */\n      tag_255\n      jumpi\n        /* \"#utility.yul\":8481:8485   */\n      0x7f\n        /* \"#utility.yul\":8473:8479   */\n      dup3\n        /* \"#utility.yul\":8469:8486   */\n      and\n        /* \"#utility.yul\":8459:8486   */\n      swap2\n      pop\n        /* \"#utility.yul\":8415:8496   */\n    tag_255:\n        /* \"#utility.yul\":8543:8545   */\n      0x20\n        /* \"#utility.yul\":8535:8541   */\n      dup3\n        /* \"#utility.yul\":8532:8546   */\n      lt\n        /* \"#utility.yul\":8512:8530   */\n      dup2\n        /* \"#utility.yul\":8509:8547   */\n      sub\n        /* \"#utility.yul\":8506:8590   */\n      tag_256\n      jumpi\n        /* \"#utility.yul\":8562:8580   */\n      tag_257\n      tag_123\n      jump\t// in\n    tag_257:\n        /* \"#utility.yul\":8506:8590   */\n    tag_256:\n        /* \"#utility.yul\":8327:8596   */\n      pop\n        /* \"#utility.yul\":8276:8596   */\n      swap2\n      swap1\n      pop\n      jump\t// out\n        /* \"#utility.yul\":8602:8781   */\n    tag_124:\n        /* \"#utility.yul\":8742:8773   */\n      0x427564676574206d7573742062652067726561746572207468616e2030000000\n        /* \"#utility.yul\":8738:8739   */\n      0x00\n        /* \"#utility.yul\":8730:8736   */\n      dup3\n        /* \"#utility.yul\":8726:8740   */\n      add\n        /* \"#utility.yul\":8719:8774   */\n      mstore\n        /* \"#utility.yul\":8602:8781   */\n      pop\n      jump\t// out\n        /* \"#utility.yul\":8787:9153   */\n    tag_125:\n        /* \"#utility.yul\":8929:8932   */\n      0x00\n        /* \"#utility.yul\":8950:9017   */\n      tag_260\n        /* \"#utility.yul\":9014:9016   */\n      0x1d\n        /* \"#utility.yul\":9009:9012   */\n      dup4\n        /* \"#utility.yul\":8950:9017   */\n      tag_97\n      jump\t// in\n    tag_260:\n        /* \"#utility.yul\":8943:9017   */\n      swap2\n      pop\n        /* \"#utility.yul\":9026:9119   */\n      tag_261\n        /* \"#utility.yul\":9115:9118   */\n      dup3\n        /* \"#utility.yul\":9026:9119   */\n      tag_124\n      jump\t// in\n    tag_261:\n        /* \"#utility.yul\":9144:9146   */\n      0x20\n        /* \"#utility.yul\":9139:9142   */\n      dup3\n        /* \"#utility.yul\":9135:9147   */\n      add\n        /* \"#utility.yul\":9128:9147   */\n      swap1\n      pop\n        /* \"#utility.yul\":8787:9153   */\n      swap2\n      swap1\n      pop\n      jump\t// out\n        /* \"#utility.yul\":9159:9578   */\n    tag_47:\n        /* \"#utility.yul\":9325:9329   */\n      0x00\n        /* \"#utility.yul\":9363:9365   */\n      0x20\n        /* \"#utility.yul\":9352:9361   */\n      dup3\n        /* \"#utility.yul\":9348:9366   */\n      add\n        /* \"#utility.yul\":9340:9366   */\n      swap1\n      pop\n        /* \"#utility.yul\":9412:9421   */\n      dup2\n        /* \"#utility.yul\":9406:9410   */\n      dup2\n        /* \"#utility.yul\":9402:9422   */\n      sub\n        /* \"#utility.yul\":9398:9399   */\n      0x00\n        /* \"#utility.yul\":9387:9396   */\n      dup4\n        /* \"#utility.yul\":9383:9400   */\n      add\n        /* \"#utility.yul\":9376:9423   */\n      mstore\n        /* \"#utility.yul\":9440:9571   */\n      tag_263\n        /* \"#utility.yul\":9566:9570   */\n      dup2\n        /* \"#utility.yul\":9440:9571   */\n      tag_125\n      jump\t// in\n    tag_263:\n        /* \"#utility.yul\":9432:9571   */\n      swap1\n      pop\n        /* \"#utility.yul\":9159:9578   */\n      swap2\n      swap1\n      pop\n      jump\t// out\n        /* \"#utility.yul\":9584:9764   */\n    tag_126:\n        /* \"#utility.yul\":9632:9709   */\n      0x4e487b7100000000000000000000000000000000000000000000000000000000\n        /* \"#utility.yul\":9629:9630   */\n      0x00\n        /* \"#utility.yul\":9622:9710   */\n      mstore\n        /* \"#utility.yul\":9729:9733   */\n      0x11\n        /* \"#utility.yul\":9726:9727   */\n      0x04\n        /* \"#utility.yul\":9719:9734   */\n      mstore\n        /* \"#utility.yul\":9753:9757   */\n      0x24\n        /* \"#utility.yul\":9750:9751   */\n      0x00\n        /* \"#utility.yul\":9743:9758   */\n      revert\n        /* \"#utility.yul\":9770:10003   */\n    tag_49:\n        /* \"#utility.yul\":9809:9812   */\n      0x00\n        /* \"#utility.yul\":9832:9856   */\n      tag_266\n        /* \"#utility.yul\":9850:9855   */\n      dup3\n        /* \"#utility.yul\":9832:9856   */\n      tag_93\n      jump\t// in\n    tag_266:\n        /* \"#utility.yul\":9823:9856   */\n      swap2\n      pop\n        /* \"#utility.yul\":9878:9944   */\n      0xffffffffffffffffffffffffffffffffffffffffffffffffffffffffffffffff\n        /* \"#utility.yul\":9871:9876   */\n      dup3\n        /* \"#utility.yul\":9868:9945   */\n      sub\n        /* \"#utility.yul\":9865:9968   */\n      tag_267\n      jumpi\n        /* \"#utility.yul\":9948:9966   */\n      tag_268\n      tag_126\n      jump\t// in\n    tag_268:\n        /* \"#utility.yul\":9865:9968   */\n    tag_267:\n        /* \"#utility.yul\":9995:9996   */\n      0x01\n        /* \"#utility.yul\":9988:9993   */\n      dup3\n        /* \"#utility.yul\":9984:9997   */\n      add\n        /* \"#utility.yul\":9977:9997   */\n      swap1\n      pop\n        /* \"#utility.yul\":9770:10003   */\n      swap2\n      swap1\n      pop\n      jump\t// out\n        /* \"#utility.yul\":10009:10150   */\n    tag_127:\n        /* \"#utility.yul\":10058:10062   */\n      0x00\n        /* \"#utility.yul\":10081:10084   */\n      dup2\n        /* \"#utility.yul\":10073:10084   */\n      swap1\n      pop\n        /* \"#utility.yul\":10104:10107   */\n      dup2\n        /* \"#utility.yul\":10101:10102   */\n      0x00\n        /* \"#utility.yul\":10094:10108   */\n      mstore\n        /* \"#utility.yul\":10138:10142   */\n      0x20\n        /* \"#utility.yul\":10135:10136   */\n      0x00\n        /* \"#utility.yul\":10125:10143   */\n      keccak256\n        /* \"#utility.yul\":10117:10143   */\n      swap1\n      pop\n        /* \"#utility.yul\":10009:10150   */\n      swap2\n      swap1\n      pop\n      jump\t// out\n        /* \"#utility.yul\":10156:10249   */\n    tag_128:\n        /* \"#utility.yul\":10193:10199   */\n      0x00\n        /* \"#utility.yul\":10240:10242   */\n      0x20\n        /* \"#utility.yul\":10235:10237   */\n      0x1f\n        /* \"#utility.yul\":10228:10233   */\n      dup4\n        /* \"#utility.yul\":10224:10238   */\n      add\n        /* \"#utility.yul\":10220:10243   */\n      div\n        /* \"#utility.yul\":10210:10243   */\n      swap1\n      pop\n        /* \"#utility.yul\":10156:10249   */\n      swap2\n      swap1\n      pop\n      jump\t// out\n        /* \"#utility.yul\":10255:10362   */\n    tag_129:\n        /* \"#utility.yul\":10299:10307   */\n      0x00\n        /* \"#utility.yul\":10349:10354   */\n      dup3\n        /* \"#utility.yul\":10343:10347   */\n      dup3\n        /* \"#utility.yul\":10339:10355   */\n      shl\n        /* \"#utility.yul\":10318:10355   */\n      swap1\n      pop\n        /* \"#utility.yul\":10255:10362   */\n      swap3\n      swap2\n      pop\n      pop\n      jump\t// out\n        /* \"#utility.yul\":10368:10761   */\n    tag_130:\n        /* \"#utility.yul\":10437:10443   */\n      0x00\n        /* \"#utility.yul\":10487:10488   */\n      0x08\n        /* \"#utility.yul\":10475:10485   */\n      dup4\n        /* \"#utility.yul\":10471:10489   */\n      mul\n        /* \"#utility.yul\":10510:10607   */\n      tag_273\n        /* \"#utility.yul\":10540:10606   */\n      0xffffffffffffffffffffffffffffffffffffffffffffffffffffffffffffffff\n        /* \"#utility.yul\":10529:10538   */\n      dup3\n        /* \"#utility.yul\":10510:10607   */\n      tag_129\n      jump\t// in\n    tag_273:\n        /* \"#utility.yul\":10628:10667   */\n      tag_274\n        /* \"#utility.yul\":10658:10666   */\n      dup7\n        /* \"#utility.yul\":10647:10656   */\n      dup4\n        /* \"#utility.yul\":10628:10667   */\n      tag_129\n      jump\t// in\n    tag_274:\n        /* \"#utility.yul\":10616:10667   */\n      swap6\n      pop\n        /* \"#utility.yul\":10700:10704   */\n      dup1\n        /* \"#utility.yul\":10696:10705   */\n      not\n        /* \"#utility.yul\":10689:10694   */\n      dup5\n        /* \"#utility.yul\":10685:10706   */\n      and\n        /* \"#utility.yul\":10676:10706   */\n      swap4\n      pop\n        /* \"#utility.yul\":10749:10753   */\n      dup1\n        /* \"#utility.yul\":10739:10747   */\n      dup7\n        /* \"#utility.yul\":10735:10754   */\n      and\n        /* \"#utility.yul\":10728:10733   */\n      dup5\n        /* \"#utility.yul\":10725:10755   */\n      or\n        /* \"#utility.yul\":10715:10755   */\n      swap3\n      pop\n        /* \"#utility.yul\":10444:10761   */\n      pop\n      pop\n        /* \"#utility.yul\":10368:10761   */\n      swap4\n      swap3\n      pop\n      pop\n      pop\n      jump\t// out\n        /* \"#utility.yul\":10767:10909   */\n    tag_131:\n        /* \"#utility.yul\":10817:10826   */\n      0x00\n        /* \"#utility.yul\":10850:10903   */\n      tag_276\n        /* \"#utility.yul\":10868:10902   */\n      tag_277\n        /* \"#utility.yul\":10877:10901   */\n      tag_278\n        /* \"#utility.yul\":10895:10900   */\n      dup5\n        /* \"#utility.yul\":10877:10901   */\n      tag_93\n      jump\t// in\n    tag_278:\n        /* \"#utility.yul\":10868:10902   */\n      tag_118\n      jump\t// in\n    tag_277:\n        /* \"#utility.yul\":10850:10903   */\n      tag_93\n      jump\t// in\n    tag_276:\n        /* \"#utility.yul\":10837:10903   */\n      swap1\n      pop\n        /* \"#utility.yul\":10767:10909   */\n      swap2\n      swap1\n      pop\n      jump\t// out\n        /* \"#utility.yul\":10915:10990   */\n    tag_132:\n        /* \"#utility.yul\":10958:10961   */\n      0x00\n        /* \"#utility.yul\":10979:10984   */\n      dup2\n        /* \"#utility.yul\":10972:10984   */\n      swap1\n      pop\n        /* \"#utility.yul\":10915:10990   */\n      swap2\n      swap1\n      pop\n      jump\t// out\n        /* \"#utility.yul\":10996:11265   */\n    tag_133:\n        /* \"#utility.yul\":11106:11145   */\n      tag_281\n        /* \"#utility.yul\":11137:11144   */\n      dup4\n        /* \"#utility.yul\":11106:11145   */\n      tag_131\n      jump\t// in\n    tag_281:\n        /* \"#utility.yul\":11167:11258   */\n      tag_282\n        /* \"#utility.yul\":11216:11257   */\n      tag_283\n        /* \"#utility.yul\":11240:11256   */\n      dup3\n        /* \"#utility.yul\":11216:11257   */\n      tag_132\n      jump\t// in\n    tag_283:\n        /* \"#utility.yul\":11208:11214   */\n      dup5\n        /* \"#utility.yul\":11201:11205   */\n      dup5\n        /* \"#utility.yul\":11195:11206   */\n      sload\n        /* \"#utility.yul\":11167:11258   */\n      tag_130\n      jump\t// in\n    tag_282:\n        /* \"#utility.yul\":11161:11165   */\n      dup3\n        /* \"#utility.yul\":11154:11259   */\n      sstore\n        /* \"#utility.yul\":11072:11265   */\n      pop\n        /* \"#utility.yul\":10996:11265   */\n      pop\n      pop\n      pop\n      jump\t// out\n        /* \"#utility.yul\":11271:11344   */\n    tag_134:\n        /* \"#utility.yul\":11316:11319   */\n      0x00\n        /* \"#utility.yul\":11271:11344   */\n      swap1\n      jump\t// out\n        /* \"#utility.yul\":11350:11539   */\n    tag_135:\n        /* \"#utility.yul\":11427:11459   */\n      tag_286\n      tag_134\n      jump\t// in\n    tag_286:\n        /* \"#utility.yul\":11468:11533   */\n      tag_287\n        /* \"#utility.yul\":11526:11532   */\n      dup2\n        /* \"#utility.yul\":11518:11524   */\n      dup5\n        /* \"#utility.yul\":11512:11516   */\n      dup5\n        /* \"#utility.yul\":11468:11533   */\n      tag_133\n      jump\t// in\n    tag_287:\n        /* \"#utility.yul\":11403:11539   */\n      pop\n        /* \"#utility.yul\":11350:11539   */\n      pop\n      pop\n      jump\t// out\n        /* \"#utility.yul\":11545:11731   */\n    tag_136:\n        /* \"#utility.yul\":11605:11725   */\n    tag_289:\n        /* \"#utility.yul\":11622:11625   */\n      dup2\n        /* \"#utility.yul\":11615:11620   */\n      dup2\n        /* \"#utility.yul\":11612:11626   */\n      lt\n        /* \"#utility.yul\":11605:11725   */\n      iszero\n      tag_291\n      jumpi\n        /* \"#utility.yul\":11676:11715   */\n      tag_292\n        /* \"#utility.yul\":11713:11714   */\n      0x00\n        /* \"#utility.yul\":11706:11711   */\n      dup3\n        /* \"#utility.yul\":11676:11715   */\n      tag_135\n      jump\t// in\n    tag_292:\n        /* \"#utility.yul\":11649:11650   */\n      0x01\n        /* \"#utility.yul\":11642:11647   */\n      dup2\n        /* \"#utility.yul\":11638:11651   */\n      add\n        /* \"#utility.yul\":11629:11651   */\n      swap1\n      pop\n        /* \"#utility.yul\":11605:11725   */\n      jump(tag_289)\n    tag_291:\n        /* \"#utility.yul\":11545:11731   */\n      pop\n      pop\n      jump\t// out\n        /* \"#utility.yul\":11737:12280   */\n    tag_137:\n        /* \"#utility.yul\":11838:11840   */\n      0x1f\n        /* \"#utility.yul\":11833:11836   */\n      dup3\n        /* \"#utility.yul\":11830:11841   */\n      gt\n        /* \"#utility.yul\":11827:12273   */\n      iszero\n      tag_294\n      jumpi\n        /* \"#utility.yul\":11872:11910   */\n      tag_295\n        /* \"#utility.yul\":11904:11909   */\n      dup2\n        /* \"#utility.yul\":11872:11910   */\n      tag_127\n      jump\t// in\n    tag_295:\n        /* \"#utility.yul\":11956:11985   */\n      tag_296\n        /* \"#utility.yul\":11974:11984   */\n      dup5\n        /* \"#utility.yul\":11956:11985   */\n      tag_128\n      jump\t// in\n    tag_296:\n        /* \"#utility.yul\":11946:11954   */\n      dup2\n        /* \"#utility.yul\":11942:11986   */\n      add\n        /* \"#utility.yul\":12139:12141   */\n      0x20\n        /* \"#utility.yul\":12127:12137   */\n      dup6\n        /* \"#utility.yul\":12124:12142   */\n      lt\n        /* \"#utility.yul\":12121:12170   */\n      iszero\n      tag_297\n      jumpi\n        /* \"#utility.yul\":12160:12168   */\n      dup2\n        /* \"#utility.yul\":12145:12168   */\n      swap1\n      pop\n        /* \"#utility.yul\":12121:12170   */\n    tag_297:\n        /* \"#utility.yul\":12183:12263   */\n      tag_298\n        /* \"#utility.yul\":12239:12261   */\n      tag_299\n        /* \"#utility.yul\":12257:12260   */\n      dup6\n        /* \"#utility.yul\":12239:12261   */\n      tag_128\n      jump\t// in\n    tag_299:\n        /* \"#utility.yul\":12229:12237   */\n      dup4\n        /* \"#utility.yul\":12225:12262   */\n      add\n        /* \"#utility.yul\":12212:12223   */\n      dup3\n        /* \"#utility.yul\":12183:12263   */\n      tag_136\n      jump\t// in\n    tag_298:\n        /* \"#utility.yul\":11842:12273   */\n      pop\n      pop\n        /* \"#utility.yul\":11827:12273   */\n    tag_294:\n        /* \"#utility.yul\":11737:12280   */\n      pop\n      pop\n      pop\n      jump\t// out\n        /* \"#utility.yul\":12286:12403   */\n    tag_138:\n        /* \"#utility.yul\":12340:12348   */\n      0x00\n        /* \"#utility.yul\":12390:12395   */\n      dup3\n        /* \"#utility.yul\":12384:12388   */\n      dup3\n        /* \"#utility.yul\":12380:12396   */\n      shr\n        /* \"#utility.yul\":12359:12396   */\n      swap1\n      pop\n        /* \"#utility.yul\":12286:12403   */\n      swap3\n      swap2\n      pop\n      pop\n      jump\t// out\n        /* \"#utility.yul\":12409:12578   */\n    tag_139:\n        /* \"#utility.yul\":12453:12459   */\n      0x00\n        /* \"#utility.yul\":12486:12537   */\n      tag_302\n        /* \"#utility.yul\":12534:12535   */\n      0x00\n        /* \"#utility.yul\":12530:12536   */\n      not\n        /* \"#utility.yul\":12522:12527   */\n      dup5\n        /* \"#utility.yul\":12519:12520   */\n      0x08\n        /* \"#utility.yul\":12515:12528   */\n      mul\n        /* \"#utility.yul\":12486:12537   */\n      tag_138\n      jump\t// in\n    tag_302:\n        /* \"#utility.yul\":12482:12538   */\n      not\n        /* \"#utility.yul\":12567:12571   */\n      dup1\n        /* \"#utility.yul\":12561:12565   */\n      dup4\n        /* \"#utility.yul\":12557:12572   */\n      and\n        /* \"#utility.yul\":12547:12572   */\n      swap2\n      pop\n        /* \"#utility.yul\":12460:12578   */\n      pop\n        /* \"#utility.yul\":12409:12578   */\n      swap3\n      swap2\n      pop\n      pop\n      jump\t// out\n        /* \"#utility.yul\":12583:12878   */\n    tag_140:\n        /* \"#utility.yul\":12659:12663   */\n      0x00\n        /* \"#utility.yul\":12805:12834   */\n      tag_304\n        /* \"#utility.yul\":12830:12833   */\n      dup4\n        /* \"#utility.yul\":12824:12828   */\n      dup4\n        /* \"#utility.yul\":12805:12834   */\n      tag_139\n      jump\t// in\n    tag_304:\n        /* \"#utility.yul\":12797:12834   */\n      swap2\n      pop\n        /* \"#utility.yul\":12867:12870   */\n      dup3\n        /* \"#utility.yul\":12864:12865   */\n      0x02\n        /* \"#utility.yul\":12860:12871   */\n      mul\n        /* \"#utility.yul\":12854:12858   */\n      dup3\n        /* \"#utility.yul\":12851:12872   */\n      or\n        /* \"#utility.yul\":12843:12872   */\n      swap1\n      pop\n        /* \"#utility.yul\":12583:12878   */\n      swap3\n      swap2\n      pop\n      pop\n      jump\t// out\n        /* \"#utility.yul\":12883:14278   */\n    tag_51:\n        /* \"#utility.yul\":13000:13037   */\n      tag_306\n        /* \"#utility.yul\":13033:13036   */\n      dup3\n        /* \"#utility.yul\":13000:13037   */\n      tag_96\n      jump\t// in\n    tag_306:\n        /* \"#utility.yul\":13102:13120   */\n      0xffffffffffffffff\n        /* \"#utility.yul\":13094:13100   */\n      dup2\n        /* \"#utility.yul\":13091:13121   */\n      gt\n        /* \"#utility.yul\":13088:13144   */\n      iszero\n      tag_307\n      jumpi\n        /* \"#utility.yul\":13124:13142   */\n      tag_308\n      tag_109\n      jump\t// in\n    tag_308:\n        /* \"#utility.yul\":13088:13144   */\n    tag_307:\n        /* \"#utility.yul\":13168:13206   */\n      tag_309\n        /* \"#utility.yul\":13200:13204   */\n      dup3\n        /* \"#utility.yul\":13194:13205   */\n      sload\n        /* \"#utility.yul\":13168:13206   */\n      tag_39\n      jump\t// in\n    tag_309:\n        /* \"#utility.yul\":13253:13320   */\n      tag_310\n        /* \"#utility.yul\":13313:13319   */\n      dup3\n        /* \"#utility.yul\":13305:13311   */\n      dup3\n        /* \"#utility.yul\":13299:13303   */\n      dup6\n        /* \"#utility.yul\":13253:13320   */\n      tag_137\n      jump\t// in\n    tag_310:\n        /* \"#utility.yul\":13347:13348   */\n      0x00\n        /* \"#utility.yul\":13371:13375   */\n      0x20\n        /* \"#utility.yul\":13358:13375   */\n      swap1\n      pop\n        /* \"#utility.yul\":13403:13405   */\n      0x1f\n        /* \"#utility.yul\":13395:13401   */\n      dup4\n        /* \"#utility.yul\":13392:13406   */\n      gt\n        /* \"#utility.yul\":13420:13421   */\n      0x01\n        /* \"#utility.yul\":13415:14033   */\n      dup2\n      eq\n      tag_312\n      jumpi\n        /* \"#utility.yul\":14077:14078   */\n      0x00\n        /* \"#utility.yul\":14094:14100   */\n      dup5\n        /* \"#utility.yul\":14091:14168   */\n      iszero\n      tag_313\n      jumpi\n        /* \"#utility.yul\":14143:14152   */\n      dup3\n        /* \"#utility.yul\":14138:14141   */\n      dup8\n        /* \"#utility.yul\":14134:14153   */\n      add\n        /* \"#utility.yul\":14128:14154   */\n      mload\n        /* \"#utility.yul\":14119:14154   */\n      swap1\n      pop\n        /* \"#utility.yul\":14091:14168   */\n    tag_313:\n        /* \"#utility.yul\":14194:14261   */\n      tag_314\n        /* \"#utility.yul\":14254:14260   */\n      dup6\n        /* \"#utility.yul\":14247:14252   */\n      dup3\n        /* \"#utility.yul\":14194:14261   */\n      tag_140\n      jump\t// in\n    tag_314:\n        /* \"#utility.yul\":14188:14192   */\n      dup7\n        /* \"#utility.yul\":14181:14262   */\n      sstore\n        /* \"#utility.yul\":14050:14272   */\n      pop\n        /* \"#utility.yul\":13385:14272   */\n      jump(tag_311)\n        /* \"#utility.yul\":13415:14033   */\n    tag_312:\n        /* \"#utility.yul\":13467:13471   */\n      0x1f\n        /* \"#utility.yul\":13463:13472   */\n      not\n        /* \"#utility.yul\":13455:13461   */\n      dup5\n        /* \"#utility.yul\":13451:13473   */\n      and\n        /* \"#utility.yul\":13501:13538   */\n      tag_315\n        /* \"#utility.yul\":13533:13537   */\n      dup7\n        /* \"#utility.yul\":13501:13538   */\n      tag_127\n      jump\t// in\n    tag_315:\n        /* \"#utility.yul\":13560:13561   */\n      0x00\n        /* \"#utility.yul\":13574:13782   */\n    tag_316:\n        /* \"#utility.yul\":13588:13595   */\n      dup3\n        /* \"#utility.yul\":13585:13586   */\n      dup2\n        /* \"#utility.yul\":13582:13596   */\n      lt\n        /* \"#utility.yul\":13574:13782   */\n      iszero\n      tag_318\n      jumpi\n        /* \"#utility.yul\":13667:13676   */\n      dup5\n        /* \"#utility.yul\":13662:13665   */\n      dup10\n        /* \"#utility.yul\":13658:13677   */\n      add\n        /* \"#utility.yul\":13652:13678   */\n      mload\n        /* \"#utility.yul\":13644:13650   */\n      dup3\n        /* \"#utility.yul\":13637:13679   */\n      sstore\n        /* \"#utility.yul\":13718:13719   */\n      0x01\n        /* \"#utility.yul\":13710:13716   */\n      dup3\n        /* \"#utility.yul\":13706:13720   */\n      add\n        /* \"#utility.yul\":13696:13720   */\n      swap2\n      pop\n        /* \"#utility.yul\":13765:13767   */\n      0x20\n        /* \"#utility.yul\":13754:13763   */\n      dup6\n        /* \"#utility.yul\":13750:13768   */\n      add\n        /* \"#utility.yul\":13737:13768   */\n      swap5\n      pop\n        /* \"#utility.yul\":13611:13615   */\n      0x20\n        /* \"#utility.yul\":13608:13609   */\n      dup2\n        /* \"#utility.yul\":13604:13616   */\n      add\n        /* \"#utility.yul\":13599:13616   */\n      swap1\n      pop\n        /* \"#utility.yul\":13574:13782   */\n      jump(tag_316)\n    tag_318:\n        /* \"#utility.yul\":13810:13816   */\n      dup7\n        /* \"#utility.yul\":13801:13808   */\n      dup4\n        /* \"#utility.yul\":13798:13817   */\n      lt\n        /* \"#utility.yul\":13795:13974   */\n      iszero\n      tag_319\n      jumpi\n        /* \"#utility.yul\":13868:13877   */\n      dup5\n        /* \"#utility.yul\":13863:13866   */\n      dup10\n        /* \"#utility.yul\":13859:13878   */\n      add\n        /* \"#utility.yul\":13853:13879   */\n      mload\n        /* \"#utility.yul\":13911:13959   */\n      tag_320\n        /* \"#utility.yul\":13953:13957   */\n      0x1f\n        /* \"#utility.yul\":13945:13951   */\n      dup10\n        /* \"#utility.yul\":13941:13958   */\n      and\n        /* \"#utility.yul\":13930:13939   */\n      dup3\n        /* \"#utility.yul\":13911:13959   */\n      tag_139\n      jump\t// in\n    tag_320:\n        /* \"#utility.yul\":13903:13909   */\n      dup4\n        /* \"#utility.yul\":13896:13960   */\n      sstore\n        /* \"#utility.yul\":13818:13974   */\n      pop\n        /* \"#utility.yul\":13795:13974   */\n    tag_319:\n        /* \"#utility.yul\":14020:14021   */\n      0x01\n        /* \"#utility.yul\":14016:14017   */\n      0x02\n        /* \"#utility.yul\":14008:14014   */\n      dup9\n        /* \"#utility.yul\":14004:14018   */\n      mul\n        /* \"#utility.yul\":14000:14022   */\n      add\n        /* \"#utility.yul\":13994:13998   */\n      dup9\n        /* \"#utility.yul\":13987:14023   */\n      sstore\n        /* \"#utility.yul\":13422:14033   */\n      pop\n      pop\n      pop\n        /* \"#utility.yul\":13385:14272   */\n    tag_311:\n      pop\n        /* \"#utility.yul\":12975:14278   */\n      pop\n      pop\n      pop\n        /* \"#utility.yul\":12883:14278   */\n      pop\n      pop\n      jump\t// out\n        /* \"#utility.yul\":14284:14817   */\n    tag_53:\n        /* \"#utility.yul\":14453:14457   */\n      0x00\n        /* \"#utility.yul\":14491:14493   */\n      0x60\n        /* \"#utility.yul\":14480:14489   */\n      dup3\n        /* \"#utility.yul\":14476:14494   */\n      add\n        /* \"#utility.yul\":14468:14494   */\n      swap1\n      pop\n        /* \"#utility.yul\":14540:14549   */\n      dup2\n        /* \"#utility.yul\":14534:14538   */\n      dup2\n        /* \"#utility.yul\":14530:14550   */\n      sub\n        /* \"#utility.yul\":14526:14527   */\n      0x00\n        /* \"#utility.yul\":14515:14524   */\n      dup4\n        /* \"#utility.yul\":14511:14528   */\n      add\n        /* \"#utility.yul\":14504:14551   */\n      mstore\n        /* \"#utility.yul\":14568:14646   */\n      tag_322\n        /* \"#utility.yul\":14641:14645   */\n      dup2\n        /* \"#utility.yul\":14632:14638   */\n      dup7\n        /* \"#utility.yul\":14568:14646   */\n      tag_100\n      jump\t// in\n    tag_322:\n        /* \"#utility.yul\":14560:14646   */\n      swap1\n      pop\n        /* \"#utility.yul\":14656:14728   */\n      tag_323\n        /* \"#utility.yul\":14724:14726   */\n      0x20\n        /* \"#utility.yul\":14713:14722   */\n      dup4\n        /* \"#utility.yul\":14709:14727   */\n      add\n        /* \"#utility.yul\":14700:14706   */\n      dup6\n        /* \"#utility.yul\":14656:14728   */\n      tag_101\n      jump\t// in\n    tag_323:\n        /* \"#utility.yul\":14738:14810   */\n      tag_324\n        /* \"#utility.yul\":14806:14808   */\n      0x40\n        /* \"#utility.yul\":14795:14804   */\n      dup4\n        /* \"#utility.yul\":14791:14809   */\n      add\n        /* \"#utility.yul\":14782:14788   */\n      dup5\n        /* \"#utility.yul\":14738:14810   */\n      tag_104\n      jump\t// in\n    tag_324:\n        /* \"#utility.yul\":14284:14817   */\n      swap5\n      swap4\n      pop\n      pop\n      pop\n      pop\n      jump\t// out\n        /* \"#utility.yul\":14823:15001   */\n    tag_141:\n        /* \"#utility.yul\":14963:14993   */\n      0x4f6e6c7920636c69656e742063616e20636f6d706c657465206a6f6200000000\n        /* \"#utility.yul\":14959:14960   */\n      0x00\n        /* \"#utility.yul\":14951:14957   */\n      dup3\n        /* \"#utility.yul\":14947:14961   */\n      add\n        /* \"#utility.yul\":14940:14994   */\n      mstore\n        /* \"#utility.yul\":14823:15001   */\n      pop\n      jump\t// out\n        /* \"#utility.yul\":15007:15373   */\n    tag_142:\n        /* \"#utility.yul\":15149:15152   */\n      0x00\n        /* \"#utility.yul\":15170:15237   */\n      tag_327\n        /* \"#utility.yul\":15234:15236   */\n      0x1c\n        /* \"#utility.yul\":15229:15232   */\n      dup4\n        /* \"#utility.yul\":15170:15237   */\n      tag_97\n      jump\t// in\n    tag_327:\n        /* \"#utility.yul\":15163:15237   */\n      swap2\n      pop\n        /* \"#utility.yul\":15246:15339   */\n      tag_328\n        /* \"#utility.yul\":15335:15338   */\n      dup3\n        /* \"#utility.yul\":15246:15339   */\n      tag_141\n      jump\t// in\n    tag_328:\n        /* \"#utility.yul\":15364:15366   */\n      0x20\n        /* \"#utility.yul\":15359:15362   */\n      dup3\n        /* \"#utility.yul\":15355:15367   */\n      add\n        /* \"#utility.yul\":15348:15367   */\n      swap1\n      pop\n        /* \"#utility.yul\":15007:15373   */\n      swap2\n      swap1\n      pop\n      jump\t// out\n        /* \"#utility.yul\":15379:15798   */\n    tag_57:\n        /* \"#utility.yul\":15545:15549   */\n      0x00\n        /* \"#utility.yul\":15583:15585   */\n      0x20\n        /* \"#utility.yul\":15572:15581   */\n      dup3\n        /* \"#utility.yul\":15568:15586   */\n      add\n        /* \"#utility.yul\":15560:15586   */\n      swap1\n      pop\n        /* \"#utility.yul\":15632:15641   */\n      dup2\n        /* \"#utility.yul\":15626:15630   */\n      dup2\n        /* \"#utility.yul\":15622:15642   */\n      sub\n        /* \"#utility.yul\":15618:15619   */\n      0x00\n        /* \"#utility.yul\":15607:15616   */\n      dup4\n        /* \"#utility.yul\":15603:15620   */\n      add\n        /* \"#utility.yul\":15596:15643   */\n      mstore\n        /* \"#utility.yul\":15660:15791   */\n      tag_330\n        /* \"#utility.yul\":15786:15790   */\n      dup2\n        /* \"#utility.yul\":15660:15791   */\n      tag_142\n      jump\t// in\n    tag_330:\n        /* \"#utility.yul\":15652:15791   */\n      swap1\n      pop\n        /* \"#utility.yul\":15379:15798   */\n      swap2\n      swap1\n      pop\n      jump\t// out\n        /* \"#utility.yul\":15804:15976   */\n    tag_143:\n        /* \"#utility.yul\":15944:15968   */\n      0x4e6f20667265656c616e6365722061737369676e656400000000000000000000\n        /* \"#utility.yul\":15940:15941   */\n      0x00\n        /* \"#utility.yul\":15932:15938   */\n      dup3\n        /* \"#utility.yul\":15928:15942   */\n      add\n        /* \"#utility.yul\":15921:15969   */\n      mstore\n        /* \"#utility.yul\":15804:15976   */\n      pop\n      jump\t// out\n        /* \"#utility.yul\":15982:16348   */\n    tag_144:\n        /* \"#utility.yul\":16124:16127   */\n      0x00\n        /* \"#utility.yul\":16145:16212   */\n      tag_333\n        /* \"#utility.yul\":16209:16211   */\n      0x16\n        /* \"#utility.yul\":16204:16207   */\n      dup4\n        /* \"#utility.yul\":16145:16212   */\n      tag_97\n      jump\t// in\n    tag_333:\n        /* \"#utility.yul\":16138:16212   */\n      swap2\n      pop\n        /* \"#utility.yul\":16221:16314   */\n      tag_334\n        /* \"#utility.yul\":16310:16313   */\n      dup3\n        /* \"#utility.yul\":16221:16314   */\n      tag_143\n      jump\t// in\n    tag_334:\n        /* \"#utility.yul\":16339:16341   */\n      0x20\n        /* \"#utility.yul\":16334:16337   */\n      dup3\n        /* \"#utility.yul\":16330:16342   */\n      add\n        /* \"#utility.yul\":16323:16342   */\n      swap1\n      pop\n        /* \"#utility.yul\":15982:16348   */\n      swap2\n      swap1\n      pop\n      jump\t// out\n        /* \"#utility.yul\":16354:16773   */\n    tag_60:\n        /* \"#utility.yul\":16520:16524   */\n      0x00\n        /* \"#utility.yul\":16558:16560   */\n      0x20\n        /* \"#utility.yul\":16547:16556   */\n      dup3\n        /* \"#utility.yul\":16543:16561   */\n      add\n        /* \"#utility.yul\":16535:16561   */\n      swap1\n      pop\n        /* \"#utility.yul\":16607:16616   */\n      dup2\n        /* \"#utility.yul\":16601:16605   */\n      dup2\n        /* \"#utility.yul\":16597:16617   */\n      sub\n        /* \"#utility.yul\":16593:16594   */\n      0x00\n        /* \"#utility.yul\":16582:16591   */\n      dup4\n        /* \"#utility.yul\":16578:16595   */\n      add\n        /* \"#utility.yul\":16571:16618   */\n      mstore\n        /* \"#utility.yul\":16635:16766   */\n      tag_336\n        /* \"#utility.yul\":16761:16765   */\n      dup2\n        /* \"#utility.yul\":16635:16766   */\n      tag_144\n      jump\t// in\n    tag_336:\n        /* \"#utility.yul\":16627:16766   */\n      swap1\n      pop\n        /* \"#utility.yul\":16354:16773   */\n      swap2\n      swap1\n      pop\n      jump\t// out\n        /* \"#utility.yul\":16779:16950   */\n    tag_145:\n        /* \"#utility.yul\":16919:16942   */\n      0x4a6f6220616c726561647920636f6d706c657465640000000000000000000000\n        /* \"#utility.yul\":16915:16916   */\n      0x00\n        /* \"#utility.yul\":16907:16913   */\n      dup3\n        /* \"#utility.yul\":16903:16917   */\n      add\n        /* \"#utility.yul\":16896:16943   */\n      mstore\n        /* \"#utility.yul\":16779:16950   */\n      pop\n      jump\t// out\n        /* \"#utility.yul\":16956:17322   */\n    tag_146:\n        /* \"#utility.yul\":17098:17101   */\n      0x00\n        /* \"#utility.yul\":17119:17186   */\n      tag_339\n        /* \"#utility.yul\":17183:17185   */\n      0x15\n        /* \"#utility.yul\":17178:17181   */\n      dup4\n        /* \"#utility.yul\":17119:17186   */\n      tag_97\n      jump\t// in\n    tag_339:\n        /* \"#utility.yul\":17112:17186   */\n      swap2\n      pop\n        /* \"#utility.yul\":17195:17288   */\n      tag_340\n        /* \"#utility.yul\":17284:17287   */\n      dup3\n        /* \"#utility.yul\":17195:17288   */\n      tag_145\n      jump\t// in\n    tag_340:\n        /* \"#utility.yul\":17313:17315   */\n      0x20\n        /* \"#utility.yul\":17308:17311   */\n      dup3\n        /* \"#utility.yul\":17304:17316   */\n      add\n        /* \"#utility.yul\":17297:17316   */\n      swap1\n      pop\n        /* \"#utility.yul\":16956:17322   */\n      swap2\n      swap1\n      pop\n      jump\t// out\n        /* \"#utility.yul\":17328:17747   */\n    tag_63:\n        /* \"#utility.yul\":17494:17498   */\n      0x00\n        /* \"#utility.yul\":17532:17534   */\n      0x20\n        /* \"#utility.yul\":17521:17530   */\n      dup3\n        /* \"#utility.yul\":17517:17535   */\n      add\n        /* \"#utility.yul\":17509:17535   */\n      swap1\n      pop\n        /* \"#utility.yul\":17581:17590   */\n      dup2\n        /* \"#utility.yul\":17575:17579   */\n      dup2\n        /* \"#utility.yul\":17571:17591   */\n      sub\n        /* \"#utility.yul\":17567:17568   */\n      0x00\n        /* \"#utility.yul\":17556:17565   */\n      dup4\n        /* \"#utility.yul\":17552:17569   */\n      add\n        /* \"#utility.yul\":17545:17592   */\n      mstore\n        /* \"#utility.yul\":17609:17740   */\n      tag_342\n        /* \"#utility.yul\":17735:17739   */\n      dup2\n        /* \"#utility.yul\":17609:17740   */\n      tag_146\n      jump\t// in\n    tag_342:\n        /* \"#utility.yul\":17601:17740   */\n      swap1\n      pop\n        /* \"#utility.yul\":17328:17747   */\n      swap2\n      swap1\n      pop\n      jump\t// out\n        /* \"#utility.yul\":17753:17973   */\n    tag_147:\n        /* \"#utility.yul\":17893:17927   */\n      0x4f6e6c7920636c69656e742063616e2061737369676e20667265656c616e6365\n        /* \"#utility.yul\":17889:17890   */\n      0x00\n        /* \"#utility.yul\":17881:17887   */\n      dup3\n        /* \"#utility.yul\":17877:17891   */\n      add\n        /* \"#utility.yul\":17870:17928   */\n      mstore\n        /* \"#utility.yul\":17962:17965   */\n      0x7200000000000000000000000000000000000000000000000000000000000000\n        /* \"#utility.yul\":17957:17959   */\n      0x20\n        /* \"#utility.yul\":17949:17955   */\n      dup3\n        /* \"#utility.yul\":17945:17960   */\n      add\n        /* \"#utility.yul\":17938:17966   */\n      mstore\n        /* \"#utility.yul\":17753:17973   */\n      pop\n      jump\t// out\n        /* \"#utility.yul\":17979:18345   */\n    tag_148:\n        /* \"#utility.yul\":18121:18124   */\n      0x00\n        /* \"#utility.yul\":18142:18209   */\n      tag_345\n        /* \"#utility.yul\":18206:18208   */\n      0x21\n        /* \"#utility.yul\":18201:18204   */\n      dup4\n        /* \"#utility.yul\":18142:18209   */\n      tag_97\n      jump\t// in\n    tag_345:\n        /* \"#utility.yul\":18135:18209   */\n      swap2\n      pop\n        /* \"#utility.yul\":18218:18311   */\n      tag_346\n        /* \"#utility.yul\":18307:18310   */\n      dup3\n        /* \"#utility.yul\":18218:18311   */\n      tag_147\n      jump\t// in\n    tag_346:\n        /* \"#utility.yul\":18336:18338   */\n      0x40\n        /* \"#utility.yul\":18331:18334   */\n      dup3\n        /* \"#utility.yul\":18327:18339   */\n      add\n        /* \"#utility.yul\":18320:18339   */\n      swap1\n      pop\n        /* \"#utility.yul\":17979:18345   */\n      swap2\n      swap1\n      pop\n      jump\t// out\n        /* \"#utility.yul\":18351:18770   */\n    tag_71:\n        /* \"#utility.yul\":18517:18521   */\n      0x00\n        /* \"#utility.yul\":18555:18557   */\n      0x20\n        /* \"#utility.yul\":18544:18553   */\n      dup3\n        /* \"#utility.yul\":18540:18558   */\n      add\n        /* \"#utility.yul\":18532:18558   */\n      swap1\n      pop\n        /* \"#utility.yul\":18604:18613   */\n      dup2\n        /* \"#utility.yul\":18598:18602   */\n      dup2\n        /* \"#utility.yul\":18594:18614   */\n      sub\n        /* \"#utility.yul\":18590:18591   */\n      0x00\n        /* \"#utility.yul\":18579:18588   */\n      dup4\n        /* \"#utility.yul\":18575:18592   */\n      add\n        /* \"#utility.yul\":18568:18615   */\n      mstore\n        /* \"#utility.yul\":18632:18763   */\n      tag_348\n        /* \"#utility.yul\":18758:18762   */\n      dup2\n        /* \"#utility.yul\":18632:18763   */\n      tag_148\n      jump\t// in\n    tag_348:\n        /* \"#utility.yul\":18624:18763   */\n      swap1\n      pop\n        /* \"#utility.yul\":18351:18770   */\n      swap2\n      swap1\n      pop\n      jump\t// out\n        /* \"#utility.yul\":18776:18953   */\n    tag_149:\n        /* \"#utility.yul\":18916:18945   */\n      0x467265656c616e63657220616c72656164792061737369676e65640000000000\n        /* \"#utility.yul\":18912:18913   */\n      0x00\n        /* \"#utility.yul\":18904:18910   */\n      dup3\n        /* \"#utility.yul\":18900:18914   */\n      add\n        /* \"#utility.yul\":18893:18946   */\n      mstore\n        /* \"#utility.yul\":18776:18953   */\n      pop\n      jump\t// out\n        /* \"#utility.yul\":18959:19325   */\n    tag_150:\n        /* \"#utility.yul\":19101:19104   */\n      0x00\n        /* \"#utility.yul\":19122:19189   */\n      tag_351\n        /* \"#utility.yul\":19186:19188   */\n      0x1b\n        /* \"#utility.yul\":19181:19184   */\n      dup4\n        /* \"#utility.yul\":19122:19189   */\n      tag_97\n      jump\t// in\n    tag_351:\n        /* \"#utility.yul\":19115:19189   */\n      swap2\n      pop\n        /* \"#utility.yul\":19198:19291   */\n      tag_352\n        /* \"#utility.yul\":19287:19290   */\n      dup3\n        /* \"#utility.yul\":19198:19291   */\n      tag_149\n      jump\t// in\n    tag_352:\n        /* \"#utility.yul\":19316:19318   */\n      0x20\n        /* \"#utility.yul\":19311:19314   */\n      dup3\n        /* \"#utility.yul\":19307:19319   */\n      add\n        /* \"#utility.yul\":19300:19319   */\n      swap1\n      pop\n        /* \"#utility.yul\":18959:19325   */\n      swap2\n      swap1\n      pop\n      jump\t// out\n        /* \"#utility.yul\":19331:19750   */\n    tag_74:\n        /* \"#utility.yul\":19497:19501   */\n      0x00\n        /* \"#utility.yul\":19535:19537   */\n      0x20\n        /* \"#utility.yul\":19524:19533   */\n      dup3\n        /* \"#utility.yul\":19520:19538   */\n      add\n        /* \"#utility.yul\":19512:19538   */\n      swap1\n      pop\n        /* \"#utility.yul\":19584:19593   */\n      dup2\n        /* \"#utility.yul\":19578:19582   */\n      dup2\n        /* \"#utility.yul\":19574:19594   */\n      sub\n        /* \"#utility.yul\":19570:19571   */\n      0x00\n        /* \"#utility.yul\":19559:19568   */\n      dup4\n        /* \"#utility.yul\":19555:19572   */\n      add\n        /* \"#utility.yul\":19548:19595   */\n      mstore\n        /* \"#utility.yul\":19612:19743   */\n      tag_354\n        /* \"#utility.yul\":19738:19742   */\n      dup2\n        /* \"#utility.yul\":19612:19743   */\n      tag_150\n      jump\t// in\n    tag_354:\n        /* \"#utility.yul\":19604:19743   */\n      swap1\n      pop\n        /* \"#utility.yul\":19331:19750   */\n      swap2\n      swap1\n      pop\n      jump\t// out\n        /* \"#utility.yul\":19756:19932   */\n    tag_151:\n        /* \"#utility.yul\":19896:19924   */\n      0x496e76616c696420667265656c616e6365722061646472657373000000000000\n        /* \"#utility.yul\":19892:19893   */\n      0x00\n        /* \"#utility.yul\":19884:19890   */\n      dup3\n        /* \"#utility.yul\":19880:19894   */\n      add\n        /* \"#utility.yul\":19873:19925   */\n      mstore\n        /* \"#utility.yul\":19756:19932   */\n      pop\n      jump\t// out\n        /* \"#utility.yul\":19938:20304   */\n    tag_152:\n        /* \"#utility.yul\":20080:20083   */\n      0x00\n        /* \"#utility.yul\":20101:20168   */\n      tag_357\n        /* \"#utility.yul\":20165:20167   */\n      0x1a\n        /* \"#utility.yul\":20160:20163   */\n      dup4\n        /* \"#utility.yul\":20101:20168   */\n      tag_97\n      jump\t// in\n    tag_357:\n        /* \"#utility.yul\":20094:20168   */\n      swap2\n      pop\n        /* \"#utility.yul\":20177:20270   */\n      tag_358\n        /* \"#utility.yul\":20266:20269   */\n      dup3\n        /* \"#utility.yul\":20177:20270   */\n      tag_151\n      jump\t// in\n    tag_358:\n        /* \"#utility.yul\":20295:20297   */\n      0x20\n        /* \"#utility.yul\":20290:20293   */\n      dup3\n        /* \"#utility.yul\":20286:20298   */\n      add\n        /* \"#utility.yul\":20279:20298   */\n      swap1\n      pop\n        /* \"#utility.yul\":19938:20304   */\n      swap2\n      swap1\n      pop\n      jump\t// out\n        /* \"#utility.yul\":20310:20729   */\n    tag_79:\n        /* \"#utility.yul\":20476:20480   */\n      0x00\n        /* \"#utility.yul\":20514:20516   */\n      0x20\n        /* \"#utility.yul\":20503:20512   */\n      dup3\n        /* \"#utility.yul\":20499:20517   */\n      add\n        /* \"#utility.yul\":20491:20517   */\n      swap1\n      pop\n        /* \"#utility.yul\":20563:20572   */\n      dup2\n        /* \"#utility.yul\":20557:20561   */\n      dup2\n        /* \"#utility.yul\":20553:20573   */\n      sub\n        /* \"#utility.yul\":20549:20550   */\n      0x00\n        /* \"#utility.yul\":20538:20547   */\n      dup4\n        /* \"#utility.yul\":20534:20551   */\n      add\n        /* \"#utility.yul\":20527:20574   */\n      mstore\n        /* \"#utility.yul\":20591:20722   */\n      tag_360\n        /* \"#utility.yul\":20717:20721   */\n      dup2\n        /* \"#utility.yul\":20591:20722   */\n      tag_152\n      jump\t// in\n    tag_360:\n        /* \"#utility.yul\":20583:20722   */\n      swap1\n      pop\n        /* \"#utility.yul\":20310:20729   */\n      swap2\n      swap1\n      pop\n      jump\t// out\n        /* \"#utility.yul\":20735:20914   */\n    tag_153:\n        /* \"#utility.yul\":20875:20906   */\n      0x4d7573742073656e642065786163742062756467657420616d6f756e74000000\n        /* \"#utility.yul\":20871:20872   */\n      0x00\n        /* \"#utility.yul\":20863:20869   */\n      dup3\n        /* \"#utility.yul\":20859:20873   */\n      add\n        /* \"#utility.yul\":20852:20907   */\n      mstore\n        /* \"#utility.yul\":20735:20914   */\n      pop\n      jump\t// out\n        /* \"#utility.yul\":20920:21286   */\n    tag_154:\n        /* \"#utility.yul\":21062:21065   */\n      0x00\n        /* \"#utility.yul\":21083:21150   */\n      tag_363\n        /* \"#utility.yul\":21147:21149   */\n      0x1d\n        /* \"#utility.yul\":21142:21145   */\n      dup4\n        /* \"#utility.yul\":21083:21150   */\n      tag_97\n      jump\t// in\n    tag_363:\n        /* \"#utility.yul\":21076:21150   */\n      swap2\n      pop\n        /* \"#utility.yul\":21159:21252   */\n      tag_364\n        /* \"#utility.yul\":21248:21251   */\n      dup3\n        /* \"#utility.yul\":21159:21252   */\n      tag_153\n      jump\t// in\n    tag_364:\n        /* \"#utility.yul\":21277:21279   */\n      0x20\n        /* \"#utility.yul\":21272:21275   */\n      dup3\n        /* \"#utility.yul\":21268:21280   */\n      add\n        /* \"#utility.yul\":21261:21280   */\n      swap1\n      pop\n        /* \"#utility.yul\":20920:21286   */\n      swap2\n      swap1\n      pop\n      jump\t// out\n        /* \"#utility.yul\":21292:21711   */\n    tag_82:\n        /* \"#utility.yul\":21458:21462   */\n      0x00\n        /* \"#utility.yul\":21496:21498   */\n      0x20\n        /* \"#utility.yul\":21485:21494   */\n      dup3\n        /* \"#utility.yul\":21481:21499   */\n      add\n        /* \"#utility.yul\":21473:21499   */\n      swap1\n      pop\n        /* \"#utility.yul\":21545:21554   */\n      dup2\n        /* \"#utility.yul\":21539:21543   */\n      dup2\n        /* \"#utility.yul\":21535:21555   */\n      sub\n        /* \"#utility.yul\":21531:21532   */\n      0x00\n        /* \"#utility.yul\":21520:21529   */\n      dup4\n        /* \"#utility.yul\":21516:21533   */\n      add\n        /* \"#utility.yul\":21509:21556   */\n      mstore\n        /* \"#utility.yul\":21573:21704   */\n      tag_366\n        /* \"#utility.yul\":21699:21703   */\n      dup2\n        /* \"#utility.yul\":21573:21704   */\n      tag_154\n      jump\t// in\n    tag_366:\n        /* \"#utility.yul\":21565:21704   */\n      swap1\n      pop\n        /* \"#utility.yul\":21292:21711   */\n      swap2\n      swap1\n      pop\n      jump\t// out\n        /* \"#utility.yul\":21717:21821   */\n    tag_155:\n        /* \"#utility.yul\":21762:21769   */\n      0x00\n        /* \"#utility.yul\":21791:21815   */\n      tag_368\n        /* \"#utility.yul\":21809:21814   */\n      dup3\n        /* \"#utility.yul\":21791:21815   */\n      tag_102\n      jump\t// in\n    tag_368:\n        /* \"#utility.yul\":21780:21815   */\n      swap1\n      pop\n        /* \"#utility.yul\":21717:21821   */\n      swap2\n      swap1\n      pop\n      jump\t// out\n        /* \"#utility.yul\":21827:21969   */\n    tag_156:\n        /* \"#utility.yul\":21930:21962   */\n      tag_370\n        /* \"#utility.yul\":21956:21961   */\n      dup2\n        /* \"#utility.yul\":21930:21962   */\n      tag_155\n      jump\t// in\n    tag_370:\n        /* \"#utility.yul\":21925:21928   */\n      dup3\n        /* \"#utility.yul\":21918:21963   */\n      mstore\n        /* \"#utility.yul\":21827:21969   */\n      pop\n      pop\n      jump\t// out\n        /* \"#utility.yul\":21975:22339   */\n    tag_84:\n        /* \"#utility.yul\":22112:22116   */\n      0x00\n        /* \"#utility.yul\":22150:22152   */\n      0x40\n        /* \"#utility.yul\":22139:22148   */\n      dup3\n        /* \"#utility.yul\":22135:22153   */\n      add\n        /* \"#utility.yul\":22127:22153   */\n      swap1\n      pop\n        /* \"#utility.yul\":22163:22234   */\n      tag_372\n        /* \"#utility.yul\":22231:22232   */\n      0x00\n        /* \"#utility.yul\":22220:22229   */\n      dup4\n        /* \"#utility.yul\":22216:22233   */\n      add\n        /* \"#utility.yul\":22207:22213   */\n      dup6\n        /* \"#utility.yul\":22163:22234   */\n      tag_101\n      jump\t// in\n    tag_372:\n        /* \"#utility.yul\":22244:22332   */\n      tag_373\n        /* \"#utility.yul\":22328:22330   */\n      0x20\n        /* \"#utility.yul\":22317:22326   */\n      dup4\n        /* \"#utility.yul\":22313:22331   */\n      add\n        /* \"#utility.yul\":22304:22310   */\n      dup5\n        /* \"#utility.yul\":22244:22332   */\n      tag_156\n      jump\t// in\n    tag_373:\n        /* \"#utility.yul\":21975:22339   */\n      swap4\n      swap3\n      pop\n      pop\n      pop\n      jump\t// out\n        /* \"#utility.yul\":22345:22567   */\n    tag_89:\n        /* \"#utility.yul\":22438:22442   */\n      0x00\n        /* \"#utility.yul\":22476:22478   */\n      0x20\n        /* \"#utility.yul\":22465:22474   */\n      dup3\n        /* \"#utility.yul\":22461:22479   */\n      add\n        /* \"#utility.yul\":22453:22479   */\n      swap1\n      pop\n        /* \"#utility.yul\":22489:22560   */\n      tag_375\n        /* \"#utility.yul\":22557:22558   */\n      0x00\n        /* \"#utility.yul\":22546:22555   */\n      dup4\n        /* \"#utility.yul\":22542:22559   */\n      add\n        /* \"#utility.yul\":22533:22539   */\n      dup5\n        /* \"#utility.yul\":22489:22560   */\n      tag_104\n      jump\t// in\n    tag_375:\n        /* \"#utility.yul\":22345:22567   */\n      swap3\n      swap2\n      pop\n      pop\n      jump\t// out\n\n    auxdata: 0xa2646970667358221220c0c5e301acceecbbf3fabbe5934d4544659092b640452c03e11459aefaf5fe6564736f6c634300081a0033\n}\n",
				"bytecode": {
					"linkReferences": {},
					"object": "608060405234801561000f575f80fd5b5060405161176e38038061176e83398181016040528101906100319190610143565b5f73ffffffffffffffffffffffffffffffffffffffff168173ffffffffffffffffffffffffffffffffffffffff160361009f576040517f08c379a0000000000000000000000000000000000000000000000000000000008152600401610096906101c8565b60405180910390fd5b8060025f6101000a81548173ffffffffffffffffffffffffffffffffffffffff021916908373ffffffffffffffffffffffffffffffffffffffff160217905550506101e6565b5f80fd5b5f73ffffffffffffffffffffffffffffffffffffffff82169050919050565b5f610112826100e9565b9050919050565b61012281610108565b811461012c575f80fd5b50565b5f8151905061013d81610119565b92915050565b5f60208284031215610158576101576100e5565b5b5f6101658482850161012f565b91505092915050565b5f82825260208201905092915050565b7f496e76616c696420657363726f7720636f6e74726163742061646472657373005f82015250565b5f6101b2601f8361016e565b91506101bd8261017e565b602082019050919050565b5f6020820190508181035f8301526101df816101a6565b9050919050565b61157b806101f35f395ff3fe608060405260043610610054575f3560e01c8063180aedf31461005857806350355d76146100985780635713b2b6146100c25780635c1615f3146100ea578063c949756c14610112578063e42a96e71461012e575b5f80fd5b348015610063575f80fd5b5061007e60048036038101906100799190610a39565b610158565b60405161008f959493929190610b3c565b60405180910390f35b3480156100a3575f80fd5b506100ac61025b565b6040516100b99190610b94565b60405180910390f35b3480156100cd575f80fd5b506100e860048036038101906100e39190610cd9565b610260565b005b3480156100f5575f80fd5b50610110600480360381019061010b9190610a39565b61042d565b005b61012c60048036038101906101279190610d5d565b61068a565b005b348015610139575f80fd5b506101426109d0565b60405161014f9190610df6565b60405180910390f35b6001602052805f5260405f205f91509050805f01805461017790610e3c565b80601f01602080910402602001604051908101604052809291908181526020018280546101a390610e3c565b80156101ee5780601f106101c5576101008083540402835291602001916101ee565b820191905f5260205f20905b8154815290600101906020018083116101d157829003601f168201915b505050505090806001015490806002015f9054906101000a900473ffffffffffffffffffffffffffffffffffffffff1690806003015f9054906101000a900473ffffffffffffffffffffffffffffffffffffffff16908060030160149054906101000a900460ff16905085565b5f5481565b5f81116102a2576040517f08c379a000000000000000000000000000000000000000000000000000000000815260040161029990610eb6565b60405180910390fd5b5f808154809291906102b390610f01565b91905055506040518060a001604052808381526020018281526020013373ffffffffffffffffffffffffffffffffffffffff1681526020015f73ffffffffffffffffffffffffffffffffffffffff1681526020015f151581525060015f805481526020019081526020015f205f820151815f01908161033291906110dc565b50602082015181600101556040820151816002015f6101000a81548173ffffffffffffffffffffffffffffffffffffffff021916908373ffffffffffffffffffffffffffffffffffffffff1602179055506060820151816003015f6101000a81548173ffffffffffffffffffffffffffffffffffffffff021916908373ffffffffffffffffffffffffffffffffffffffff16021790555060808201518160030160146101000a81548160ff0219169083151502179055509050505f547fc5216daa12e6ac2fd90bb3cac0a45cf705bd6114d0ad74be0d311e0f8e31a63e838333604051610421939291906111ab565b60405180910390a25050565b5f60015f8381526020019081526020015f2090503373ffffffffffffffffffffffffffffffffffffffff16816002015f9054906101000a900473ffffffffffffffffffffffffffffffffffffffff1673ffffffffffffffffffffffffffffffffffffffff16146104d2576040517f08c379a00000000000000000000000000000000000000000000000000000000081526004016104c990611231565b60405180910390fd5b5f73ffffffffffffffffffffffffffffffffffffffff16816003015f9054906101000a900473ffffffffffffffffffffffffffffffffffffffff1673ffffffffffffffffffffffffffffffffffffffff1603610563576040517f08c379a000000000000000000000000000000000000000000000000000000000815260040161055a90611299565b60405180910390fd5b8060030160149054906101000a900460ff16156105b5576040517f08c379a00000000000000000000000000000000000000000000000000000000081526004016105ac90611301565b60405180910390fd5b60018160030160146101000a81548160ff02191690831515021790555060025f9054906101000a900473ffffffffffffffffffffffffffffffffffffffff1673ffffffffffffffffffffffffffffffffffffffff16634d68282f836040518263ffffffff1660e01b815260040161062c9190610b94565b5f604051808303815f87803b158015610643575f80fd5b505af1158015610655573d5f803e3d5ffd5b50505050817f02244c8529cb95e213ee542e76e7776342b3dabd10203d01472bbf4441be892960405160405180910390a25050565b5f60015f8481526020019081526020015f2090503373ffffffffffffffffffffffffffffffffffffffff16816002015f9054906101000a900473ffffffffffffffffffffffffffffffffffffffff1673ffffffffffffffffffffffffffffffffffffffff161461072f576040517f08c379a00000000000000000000000000000000000000000000000000000000081526004016107269061138f565b60405180910390fd5b5f73ffffffffffffffffffffffffffffffffffffffff16816003015f9054906101000a900473ffffffffffffffffffffffffffffffffffffffff1673ffffffffffffffffffffffffffffffffffffffff16146107c0576040517f08c379a00000000000000000000000000000000000000000000000000000000081526004016107b7906113f7565b60405180910390fd5b8060030160149054906101000a900460ff1615610812576040517f08c379a000000000000000000000000000000000000000000000000000000000815260040161080990611301565b60405180910390fd5b5f73ffffffffffffffffffffffffffffffffffffffff168273ffffffffffffffffffffffffffffffffffffffff1603610880576040517f08c379a00000000000000000000000000000000000000000000000000000000081526004016108779061145f565b60405180910390fd5b806001015434146108c6576040517f08c379a00000000000000000000000000000000000000000000000000000000081526004016108bd906114c7565b60405180910390fd5b81816003015f6101000a81548173ffffffffffffffffffffffffffffffffffffffff021916908373ffffffffffffffffffffffffffffffffffffffff16021790555060025f9054906101000a900473ffffffffffffffffffffffffffffffffffffffff1673ffffffffffffffffffffffffffffffffffffffff1663dbcd72f03485856040518463ffffffff1660e01b8152600401610965929190611505565b5f604051808303818588803b15801561097c575f80fd5b505af115801561098e573d5f803e3d5ffd5b5050505050827f3738a681a43a0b6a554742a08bae57e0215e8a774217dc2e7de6c9411b6d0ddc836040516109c3919061152c565b60405180910390a2505050565b60025f9054906101000a900473ffffffffffffffffffffffffffffffffffffffff1681565b5f604051905090565b5f80fd5b5f80fd5b5f819050919050565b610a1881610a06565b8114610a22575f80fd5b50565b5f81359050610a3381610a0f565b92915050565b5f60208284031215610a4e57610a4d6109fe565b5b5f610a5b84828501610a25565b91505092915050565b5f81519050919050565b5f82825260208201905092915050565b8281835e5f83830152505050565b5f601f19601f8301169050919050565b5f610aa682610a64565b610ab08185610a6e565b9350610ac0818560208601610a7e565b610ac981610a8c565b840191505092915050565b610add81610a06565b82525050565b5f73ffffffffffffffffffffffffffffffffffffffff82169050919050565b5f610b0c82610ae3565b9050919050565b610b1c81610b02565b82525050565b5f8115159050919050565b610b3681610b22565b82525050565b5f60a0820190508181035f830152610b548188610a9c565b9050610b636020830187610ad4565b610b706040830186610b13565b610b7d6060830185610b13565b610b8a6080830184610b2d565b9695505050505050565b5f602082019050610ba75f830184610ad4565b92915050565b5f80fd5b5f80fd5b7f4e487b71000000000000000000000000000000000000000000000000000000005f52604160045260245ffd5b610beb82610a8c565b810181811067ffffffffffffffff82111715610c0a57610c09610bb5565b5b80604052505050565b5f610c1c6109f5565b9050610c288282610be2565b919050565b5f67ffffffffffffffff821115610c4757610c46610bb5565b5b610c5082610a8c565b9050602081019050919050565b828183375f83830152505050565b5f610c7d610c7884610c2d565b610c13565b905082815260208101848484011115610c9957610c98610bb1565b5b610ca4848285610c5d565b509392505050565b5f82601f830112610cc057610cbf610bad565b5b8135610cd0848260208601610c6b565b91505092915050565b5f8060408385031215610cef57610cee6109fe565b5b5f83013567ffffffffffffffff811115610d0c57610d0b610a02565b5b610d1885828601610cac565b9250506020610d2985828601610a25565b9150509250929050565b610d3c81610b02565b8114610d46575f80fd5b50565b5f81359050610d5781610d33565b92915050565b5f8060408385031215610d7357610d726109fe565b5b5f610d8085828601610a25565b9250506020610d9185828601610d49565b9150509250929050565b5f819050919050565b5f610dbe610db9610db484610ae3565b610d9b565b610ae3565b9050919050565b5f610dcf82610da4565b9050919050565b5f610de082610dc5565b9050919050565b610df081610dd6565b82525050565b5f602082019050610e095f830184610de7565b92915050565b7f4e487b71000000000000000000000000000000000000000000000000000000005f52602260045260245ffd5b5f6002820490506001821680610e5357607f821691505b602082108103610e6657610e65610e0f565b5b50919050565b7f427564676574206d7573742062652067726561746572207468616e20300000005f82015250565b5f610ea0601d83610a6e565b9150610eab82610e6c565b602082019050919050565b5f6020820190508181035f830152610ecd81610e94565b9050919050565b7f4e487b71000000000000000000000000000000000000000000000000000000005f52601160045260245ffd5b5f610f0b82610a06565b91507fffffffffffffffffffffffffffffffffffffffffffffffffffffffffffffffff8203610f3d57610f3c610ed4565b5b600182019050919050565b5f819050815f5260205f209050919050565b5f6020601f8301049050919050565b5f82821b905092915050565b5f60088302610fa47fffffffffffffffffffffffffffffffffffffffffffffffffffffffffffffffff82610f69565b610fae8683610f69565b95508019841693508086168417925050509392505050565b5f610fe0610fdb610fd684610a06565b610d9b565b610a06565b9050919050565b5f819050919050565b610ff983610fc6565b61100d61100582610fe7565b848454610f75565b825550505050565b5f90565b611021611015565b61102c818484610ff0565b505050565b5b8181101561104f576110445f82611019565b600181019050611032565b5050565b601f8211156110945761106581610f48565b61106e84610f5a565b8101602085101561107d578190505b61109161108985610f5a565b830182611031565b50505b505050565b5f82821c905092915050565b5f6110b45f1984600802611099565b1980831691505092915050565b5f6110cc83836110a5565b9150826002028217905092915050565b6110e582610a64565b67ffffffffffffffff8111156110fe576110fd610bb5565b5b6111088254610e3c565b611113828285611053565b5f60209050601f831160018114611144575f8415611132578287015190505b61113c85826110c1565b8655506111a3565b601f19841661115286610f48565b5f5b8281101561117957848901518255600182019150602085019450602081019050611154565b868310156111965784890151611192601f8916826110a5565b8355505b6001600288020188555050505b505050505050565b5f6060820190508181035f8301526111c38186610a9c565b90506111d26020830185610ad4565b6111df6040830184610b13565b949350505050565b7f4f6e6c7920636c69656e742063616e20636f6d706c657465206a6f62000000005f82015250565b5f61121b601c83610a6e565b9150611226826111e7565b602082019050919050565b5f6020820190508181035f8301526112488161120f565b9050919050565b7f4e6f20667265656c616e6365722061737369676e6564000000000000000000005f82015250565b5f611283601683610a6e565b915061128e8261124f565b602082019050919050565b5f6020820190508181035f8301526112b081611277565b9050919050565b7f4a6f6220616c726561647920636f6d706c6574656400000000000000000000005f82015250565b5f6112eb601583610a6e565b91506112f6826112b7565b602082019050919050565b5f6020820190508181035f830152611318816112df565b9050919050565b7f4f6e6c7920636c69656e742063616e2061737369676e20667265656c616e63655f8201527f7200000000000000000000000000000000000000000000000000000000000000602082015250565b5f611379602183610a6e565b91506113848261131f565b604082019050919050565b5f6020820190508181035f8301526113a68161136d565b9050919050565b7f467265656c616e63657220616c72656164792061737369676e656400000000005f82015250565b5f6113e1601b83610a6e565b91506113ec826113ad565b602082019050919050565b5f6020820190508181035f83015261140e816113d5565b9050919050565b7f496e76616c696420667265656c616e63657220616464726573730000000000005f82015250565b5f611449601a83610a6e565b915061145482611415565b602082019050919050565b5f6020820190508181035f8301526114768161143d565b9050919050565b7f4d7573742073656e642065786163742062756467657420616d6f756e740000005f82015250565b5f6114b1601d83610a6e565b91506114bc8261147d565b602082019050919050565b5f6020820190508181035f8301526114de816114a5565b9050919050565b5f6114ef82610ae3565b9050919050565b6114ff816114e5565b82525050565b5f6040820190506115185f830185610ad4565b61152560208301846114f6565b9392505050565b5f60208201905061153f5f830184610b13565b9291505056fea2646970667358221220c0c5e301acceecbbf3fabbe5934d4544659092b640452c03e11459aefaf5fe6564736f6c634300081a0033",
					"opcodes": "PUSH1 0x80 PUSH1 0x40 MSTORE CALLVALUE DUP1 ISZERO PUSH2 0xF JUMPI PUSH0 DUP1 REVERT JUMPDEST POP PUSH1 0x40 MLOAD PUSH2 0x176E CODESIZE SUB DUP1 PUSH2 0x176E DUP4 CODECOPY DUP2 DUP2 ADD PUSH1 0x40 MSTORE DUP2 ADD SWAP1 PUSH2 0x31 SWAP2 SWAP1 PUSH2 0x143 JUMP JUMPDEST PUSH0 PUSH20 0xFFFFFFFFFFFFFFFFFFFFFFFFFFFFFFFFFFFFFFFF AND DUP2 PUSH20 0xFFFFFFFFFFFFFFFFFFFFFFFFFFFFFFFFFFFFFFFF AND SUB PUSH2 0x9F JUMPI PUSH1 0x40 MLOAD PUSH32 0x8C379A000000000000000000000000000000000000000000000000000000000 DUP2 MSTORE PUSH1 0x4 ADD PUSH2 0x96 SWAP1 PUSH2 0x1C8 JUMP JUMPDEST PUSH1 0x40 MLOAD DUP1 SWAP2 SUB SWAP1 REVERT JUMPDEST DUP1 PUSH1 0x2 PUSH0 PUSH2 0x100 EXP DUP2 SLOAD DUP2 PUSH20 0xFFFFFFFFFFFFFFFFFFFFFFFFFFFFFFFFFFFFFFFF MUL NOT AND SWAP1 DUP4 PUSH20 0xFFFFFFFFFFFFFFFFFFFFFFFFFFFFFFFFFFFFFFFF AND MUL OR SWAP1 SSTORE POP POP PUSH2 0x1E6 JUMP JUMPDEST PUSH0 DUP1 REVERT JUMPDEST PUSH0 PUSH20 0xFFFFFFFFFFFFFFFFFFFFFFFFFFFFFFFFFFFFFFFF DUP3 AND SWAP1 POP SWAP2 SWAP1 POP JUMP JUMPDEST PUSH0 PUSH2 0x112 DUP3 PUSH2 0xE9 JUMP JUMPDEST SWAP1 POP SWAP2 SWAP1 POP JUMP JUMPDEST PUSH2 0x122 DUP2 PUSH2 0x108 JUMP JUMPDEST DUP2 EQ PUSH2 0x12C JUMPI PUSH0 DUP1 REVERT JUMPDEST POP JUMP JUMPDEST PUSH0 DUP2 MLOAD SWAP1 POP PUSH2 0x13D DUP2 PUSH2 0x119 JUMP JUMPDEST SWAP3 SWAP2 POP POP JUMP JUMPDEST PUSH0 PUSH1 0x20 DUP3 DUP5 SUB SLT ISZERO PUSH2 0x158 JUMPI PUSH2 0x157 PUSH2 0xE5 JUMP JUMPDEST JUMPDEST PUSH0 PUSH2 0x165 DUP5 DUP3 DUP6 ADD PUSH2 0x12F JUMP JUMPDEST SWAP2 POP POP SWAP3 SWAP2 POP POP JUMP JUMPDEST PUSH0 DUP3 DUP3 MSTORE PUSH1 0x20 DUP3 ADD SWAP1 POP SWAP3 SWAP2 POP POP JUMP JUMPDEST PUSH32 0x496E76616C696420657363726F7720636F6E7472616374206164647265737300 PUSH0 DUP3 ADD MSTORE POP JUMP JUMPDEST PUSH0 PUSH2 0x1B2 PUSH1 0x1F DUP4 PUSH2 0x16E JUMP JUMPDEST SWAP2 POP PUSH2 0x1BD DUP3 PUSH2 0x17E JUMP JUMPDEST PUSH1 0x20 DUP3 ADD SWAP1 POP SWAP2 SWAP1 POP JUMP JUMPDEST PUSH0 PUSH1 0x20 DUP3 ADD SWAP1 POP DUP2 DUP2 SUB PUSH0 DUP4 ADD MSTORE PUSH2 0x1DF DUP2 PUSH2 0x1A6 JUMP JUMPDEST SWAP1 POP SWAP2 SWAP1 POP JUMP JUMPDEST PUSH2 0x157B DUP1 PUSH2 0x1F3 PUSH0 CODECOPY PUSH0 RETURN INVALID PUSH1 0x80 PUSH1 0x40 MSTORE PUSH1 0x4 CALLDATASIZE LT PUSH2 0x54 JUMPI PUSH0 CALLDATALOAD PUSH1 0xE0 SHR DUP1 PUSH4 0x180AEDF3 EQ PUSH2 0x58 JUMPI DUP1 PUSH4 0x50355D76 EQ PUSH2 0x98 JUMPI DUP1 PUSH4 0x5713B2B6 EQ PUSH2 0xC2 JUMPI DUP1 PUSH4 0x5C1615F3 EQ PUSH2 0xEA JUMPI DUP1 PUSH4 0xC949756C EQ PUSH2 0x112 JUMPI DUP1 PUSH4 0xE42A96E7 EQ PUSH2 0x12E JUMPI JUMPDEST PUSH0 DUP1 REVERT JUMPDEST CALLVALUE DUP1 ISZERO PUSH2 0x63 JUMPI PUSH0 DUP1 REVERT JUMPDEST POP PUSH2 0x7E PUSH1 0x4 DUP1 CALLDATASIZE SUB DUP2 ADD SWAP1 PUSH2 0x79 SWAP2 SWAP1 PUSH2 0xA39 JUMP JUMPDEST PUSH2 0x158 JUMP JUMPDEST PUSH1 0x40 MLOAD PUSH2 0x8F SWAP6 SWAP5 SWAP4 SWAP3 SWAP2 SWAP1 PUSH2 0xB3C JUMP JUMPDEST PUSH1 0x40 MLOAD DUP1 SWAP2 SUB SWAP1 RETURN JUMPDEST CALLVALUE DUP1 ISZERO PUSH2 0xA3 JUMPI PUSH0 DUP1 REVERT JUMPDEST POP PUSH2 0xAC PUSH2 0x25B JUMP JUMPDEST PUSH1 0x40 MLOAD PUSH2 0xB9 SWAP2 SWAP1 PUSH2 0xB94 JUMP JUMPDEST PUSH1 0x40 MLOAD DUP1 SWAP2 SUB SWAP1 RETURN JUMPDEST CALLVALUE DUP1 ISZERO PUSH2 0xCD JUMPI PUSH0 DUP1 REVERT JUMPDEST POP PUSH2 0xE8 PUSH1 0x4 DUP1 CALLDATASIZE SUB DUP2 ADD SWAP1 PUSH2 0xE3 SWAP2 SWAP1 PUSH2 0xCD9 JUMP JUMPDEST PUSH2 0x260 JUMP JUMPDEST STOP JUMPDEST CALLVALUE DUP1 ISZERO PUSH2 0xF5 JUMPI PUSH0 DUP1 REVERT JUMPDEST POP PUSH2 0x110 PUSH1 0x4 DUP1 CALLDATASIZE SUB DUP2 ADD SWAP1 PUSH2 0x10B SWAP2 SWAP1 PUSH2 0xA39 JUMP JUMPDEST PUSH2 0x42D JUMP JUMPDEST STOP JUMPDEST PUSH2 0x12C PUSH1 0x4 DUP1 CALLDATASIZE SUB DUP2 ADD SWAP1 PUSH2 0x127 SWAP2 SWAP1 PUSH2 0xD5D JUMP JUMPDEST PUSH2 0x68A JUMP JUMPDEST STOP JUMPDEST CALLVALUE DUP1 ISZERO PUSH2 0x139 JUMPI PUSH0 DUP1 REVERT JUMPDEST POP PUSH2 0x142 PUSH2 0x9D0 JUMP JUMPDEST PUSH1 0x40 MLOAD PUSH2 0x14F SWAP2 SWAP1 PUSH2 0xDF6 JUMP JUMPDEST PUSH1 0x40 MLOAD DUP1 SWAP2 SUB SWAP1 RETURN JUMPDEST PUSH1 0x1 PUSH1 0x20 MSTORE DUP1 PUSH0 MSTORE PUSH1 0x40 PUSH0 KECCAK256 PUSH0 SWAP2 POP SWAP1 POP DUP1 PUSH0 ADD DUP1 SLOAD PUSH2 0x177 SWAP1 PUSH2 0xE3C JUMP JUMPDEST DUP1 PUSH1 0x1F ADD PUSH1 0x20 DUP1 SWAP2 DIV MUL PUSH1 0x20 ADD PUSH1 0x40 MLOAD SWAP1 DUP2 ADD PUSH1 0x40 MSTORE DUP1 SWAP3 SWAP2 SWAP1 DUP2 DUP2 MSTORE PUSH1 0x20 ADD DUP3 DUP1 SLOAD PUSH2 0x1A3 SWAP1 PUSH2 0xE3C JUMP JUMPDEST DUP1 ISZERO PUSH2 0x1EE JUMPI DUP1 PUSH1 0x1F LT PUSH2 0x1C5 JUMPI PUSH2 0x100 DUP1 DUP4 SLOAD DIV MUL DUP4 MSTORE SWAP2 PUSH1 0x20 ADD SWAP2 PUSH2 0x1EE JUMP JUMPDEST DUP3 ADD SWAP2 SWAP1 PUSH0 MSTORE PUSH1 0x20 PUSH0 KECCAK256 SWAP1 JUMPDEST DUP2 SLOAD DUP2 MSTORE SWAP1 PUSH1 0x1 ADD SWAP1 PUSH1 0x20 ADD DUP1 DUP4 GT PUSH2 0x1D1 JUMPI DUP3 SWAP1 SUB PUSH1 0x1F AND DUP3 ADD SWAP2 JUMPDEST POP POP POP POP POP SWAP1 DUP1 PUSH1 0x1 ADD SLOAD SWAP1 DUP1 PUSH1 0x2 ADD PUSH0 SWAP1 SLOAD SWAP1 PUSH2 0x100 EXP SWAP1 DIV PUSH20 0xFFFFFFFFFFFFFFFFFFFFFFFFFFFFFFFFFFFFFFFF AND SWAP1 DUP1 PUSH1 0x3 ADD PUSH0 SWAP1 SLOAD SWAP1 PUSH2 0x100 EXP SWAP1 DIV PUSH20 0xFFFFFFFFFFFFFFFFFFFFFFFFFFFFFFFFFFFFFFFF AND SWAP1 DUP1 PUSH1 0x3 ADD PUSH1 0x14 SWAP1 SLOAD SWAP1 PUSH2 0x100 EXP SWAP1 DIV PUSH1 0xFF AND SWAP1 POP DUP6 JUMP JUMPDEST PUSH0 SLOAD DUP2 JUMP JUMPDEST PUSH0 DUP2 GT PUSH2 0x2A2 JUMPI PUSH1 0x40 MLOAD PUSH32 0x8C379A000000000000000000000000000000000000000000000000000000000 DUP2 MSTORE PUSH1 0x4 ADD PUSH2 0x299 SWAP1 PUSH2 0xEB6 JUMP JUMPDEST PUSH1 0x40 MLOAD DUP1 SWAP2 SUB SWAP1 REVERT JUMPDEST PUSH0 DUP1 DUP2 SLOAD DUP1 SWAP3 SWAP2 SWAP1 PUSH2 0x2B3 SWAP1 PUSH2 0xF01 JUMP JUMPDEST SWAP2 SWAP1 POP SSTORE POP PUSH1 0x40 MLOAD DUP1 PUSH1 0xA0 ADD PUSH1 0x40 MSTORE DUP1 DUP4 DUP2 MSTORE PUSH1 0x20 ADD DUP3 DUP2 MSTORE PUSH1 0x20 ADD CALLER PUSH20 0xFFFFFFFFFFFFFFFFFFFFFFFFFFFFFFFFFFFFFFFF AND DUP2 MSTORE PUSH1 0x20 ADD PUSH0 PUSH20 0xFFFFFFFFFFFFFFFFFFFFFFFFFFFFFFFFFFFFFFFF AND DUP2 MSTORE PUSH1 0x20 ADD PUSH0 ISZERO ISZERO DUP2 MSTORE POP PUSH1 0x1 PUSH0 DUP1 SLOAD DUP2 MSTORE PUSH1 0x20 ADD SWAP1 DUP2 MSTORE PUSH1 0x20 ADD PUSH0 KECCAK256 PUSH0 DUP3 ADD MLOAD DUP2 PUSH0 ADD SWAP1 DUP2 PUSH2 0x332 SWAP2 SWAP1 PUSH2 0x10DC JUMP JUMPDEST POP PUSH1 0x20 DUP3 ADD MLOAD DUP2 PUSH1 0x1 ADD SSTORE PUSH1 0x40 DUP3 ADD MLOAD DUP2 PUSH1 0x2 ADD PUSH0 PUSH2 0x100 EXP DUP2 SLOAD DUP2 PUSH20 0xFFFFFFFFFFFFFFFFFFFFFFFFFFFFFFFFFFFFFFFF MUL NOT AND SWAP1 DUP4 PUSH20 0xFFFFFFFFFFFFFFFFFFFFFFFFFFFFFFFFFFFFFFFF AND MUL OR SWAP1 SSTORE POP PUSH1 0x60 DUP3 ADD MLOAD DUP2 PUSH1 0x3 ADD PUSH0 PUSH2 0x100 EXP DUP2 SLOAD DUP2 PUSH20 0xFFFFFFFFFFFFFFFFFFFFFFFFFFFFFFFFFFFFFFFF MUL NOT AND SWAP1 DUP4 PUSH20 0xFFFFFFFFFFFFFFFFFFFFFFFFFFFFFFFFFFFFFFFF AND MUL OR SWAP1 SSTORE POP PUSH1 0x80 DUP3 ADD MLOAD DUP2 PUSH1 0x3 ADD PUSH1 0x14 PUSH2 0x100 EXP DUP2 SLOAD DUP2 PUSH1 0xFF MUL NOT AND SWAP1 DUP4 ISZERO ISZERO MUL OR SWAP1 SSTORE POP SWAP1 POP POP PUSH0 SLOAD PUSH32 0xC5216DAA12E6AC2FD90BB3CAC0A45CF705BD6114D0AD74BE0D311E0F8E31A63E DUP4 DUP4 CALLER PUSH1 0x40 MLOAD PUSH2 0x421 SWAP4 SWAP3 SWAP2 SWAP1 PUSH2 0x11AB JUMP JUMPDEST PUSH1 0x40 MLOAD DUP1 SWAP2 SUB SWAP1 LOG2 POP POP JUMP JUMPDEST PUSH0 PUSH1 0x1 PUSH0 DUP4 DUP2 MSTORE PUSH1 0x20 ADD SWAP1 DUP2 MSTORE PUSH1 0x20 ADD PUSH0 KECCAK256 SWAP1 POP CALLER PUSH20 0xFFFFFFFFFFFFFFFFFFFFFFFFFFFFFFFFFFFFFFFF AND DUP2 PUSH1 0x2 ADD PUSH0 SWAP1 SLOAD SWAP1 PUSH2 0x100 EXP SWAP1 DIV PUSH20 0xFFFFFFFFFFFFFFFFFFFFFFFFFFFFFFFFFFFFFFFF AND PUSH20 0xFFFFFFFFFFFFFFFFFFFFFFFFFFFFFFFFFFFFFFFF AND EQ PUSH2 0x4D2 JUMPI PUSH1 0x40 MLOAD PUSH32 0x8C379A000000000000000000000000000000000000000000000000000000000 DUP2 MSTORE PUSH1 0x4 ADD PUSH2 0x4C9 SWAP1 PUSH2 0x1231 JUMP JUMPDEST PUSH1 0x40 MLOAD DUP1 SWAP2 SUB SWAP1 REVERT JUMPDEST PUSH0 PUSH20 0xFFFFFFFFFFFFFFFFFFFFFFFFFFFFFFFFFFFFFFFF AND DUP2 PUSH1 0x3 ADD PUSH0 SWAP1 SLOAD SWAP1 PUSH2 0x100 EXP SWAP1 DIV PUSH20 0xFFFFFFFFFFFFFFFFFFFFFFFFFFFFFFFFFFFFFFFF AND PUSH20 0xFFFFFFFFFFFFFFFFFFFFFFFFFFFFFFFFFFFFFFFF AND SUB PUSH2 0x563 JUMPI PUSH1 0x40 MLOAD PUSH32 0x8C379A000000000000000000000000000000000000000000000000000000000 DUP2 MSTORE PUSH1 0x4 ADD PUSH2 0x55A SWAP1 PUSH2 0x1299 JUMP JUMPDEST PUSH1 0x40 MLOAD DUP1 SWAP2 SUB SWAP1 REVERT JUMPDEST DUP1 PUSH1 0x3 ADD PUSH1 0x14 SWAP1 SLOAD SWAP1 PUSH2 0x100 EXP SWAP1 DIV PUSH1 0xFF AND ISZERO PUSH2 0x5B5 JUMPI PUSH1 0x40 MLOAD PUSH32 0x8C379A000000000000000000000000000000000000000000000000000000000 DUP2 MSTORE PUSH1 0x4 ADD PUSH2 0x5AC SWAP1 PUSH2 0x1301 JUMP JUMPDEST PUSH1 0x40 MLOAD DUP1 SWAP2 SUB SWAP1 REVERT JUMPDEST PUSH1 0x1 DUP2 PUSH1 0x3 ADD PUSH1 0x14 PUSH2 0x100 EXP DUP2 SLOAD DUP2 PUSH1 0xFF MUL NOT AND SWAP1 DUP4 ISZERO ISZERO MUL OR SWAP1 SSTORE POP PUSH1 0x2 PUSH0 SWAP1 SLOAD SWAP1 PUSH2 0x100 EXP SWAP1 DIV PUSH20 0xFFFFFFFFFFFFFFFFFFFFFFFFFFFFFFFFFFFFFFFF AND PUSH20 0xFFFFFFFFFFFFFFFFFFFFFFFFFFFFFFFFFFFFFFFF AND PUSH4 0x4D68282F DUP4 PUSH1 0x40 MLOAD DUP3 PUSH4 0xFFFFFFFF AND PUSH1 0xE0 SHL DUP2 MSTORE PUSH1 0x4 ADD PUSH2 0x62C SWAP2 SWAP1 PUSH2 0xB94 JUMP JUMPDEST PUSH0 PUSH1 0x40 MLOAD DUP1 DUP4 SUB DUP2 PUSH0 DUP8 DUP1 EXTCODESIZE ISZERO DUP1 ISZERO PUSH2 0x643 JUMPI PUSH0 DUP1 REVERT JUMPDEST POP GAS CALL ISZERO DUP1 ISZERO PUSH2 0x655 JUMPI RETURNDATASIZE PUSH0 DUP1 RETURNDATACOPY RETURNDATASIZE PUSH0 REVERT JUMPDEST POP POP POP POP DUP2 PUSH32 0x2244C8529CB95E213EE542E76E7776342B3DABD10203D01472BBF4441BE8929 PUSH1 0x40 MLOAD PUSH1 0x40 MLOAD DUP1 SWAP2 SUB SWAP1 LOG2 POP POP JUMP JUMPDEST PUSH0 PUSH1 0x1 PUSH0 DUP5 DUP2 MSTORE PUSH1 0x20 ADD SWAP1 DUP2 MSTORE PUSH1 0x20 ADD PUSH0 KECCAK256 SWAP1 POP CALLER PUSH20 0xFFFFFFFFFFFFFFFFFFFFFFFFFFFFFFFFFFFFFFFF AND DUP2 PUSH1 0x2 ADD PUSH0 SWAP1 SLOAD SWAP1 PUSH2 0x100 EXP SWAP1 DIV PUSH20 0xFFFFFFFFFFFFFFFFFFFFFFFFFFFFFFFFFFFFFFFF AND PUSH20 0xFFFFFFFFFFFFFFFFFFFFFFFFFFFFFFFFFFFFFFFF AND EQ PUSH2 0x72F JUMPI PUSH1 0x40 MLOAD PUSH32 0x8C379A000000000000000000000000000000000000000000000000000000000 DUP2 MSTORE PUSH1 0x4 ADD PUSH2 0x726 SWAP1 PUSH2 0x138F JUMP JUMPDEST PUSH1 0x40 MLOAD DUP1 SWAP2 SUB SWAP1 REVERT JUMPDEST PUSH0 PUSH20 0xFFFFFFFFFFFFFFFFFFFFFFFFFFFFFFFFFFFFFFFF AND DUP2 PUSH1 0x3 ADD PUSH0 SWAP1 SLOAD SWAP1 PUSH2 0x100 EXP SWAP1 DIV PUSH20 0xFFFFFFFFFFFFFFFFFFFFFFFFFFFFFFFFFFFFFFFF AND PUSH20 0xFFFFFFFFFFFFFFFFFFFFFFFFFFFFFFFFFFFFFFFF AND EQ PUSH2 0x7C0 JUMPI PUSH1 0x40 MLOAD PUSH32 0x8C379A000000000000000000000000000000000000000000000000000000000 DUP2 MSTORE PUSH1 0x4 ADD PUSH2 0x7B7 SWAP1 PUSH2 0x13F7 JUMP JUMPDEST PUSH1 0x40 MLOAD DUP1 SWAP2 SUB SWAP1 REVERT JUMPDEST DUP1 PUSH1 0x3 ADD PUSH1 0x14 SWAP1 SLOAD SWAP1 PUSH2 0x100 EXP SWAP1 DIV PUSH1 0xFF AND ISZERO PUSH2 0x812 JUMPI PUSH1 0x40 MLOAD PUSH32 0x8C379A000000000000000000000000000000000000000000000000000000000 DUP2 MSTORE PUSH1 0x4 ADD PUSH2 0x809 SWAP1 PUSH2 0x1301 JUMP JUMPDEST PUSH1 0x40 MLOAD DUP1 SWAP2 SUB SWAP1 REVERT JUMPDEST PUSH0 PUSH20 0xFFFFFFFFFFFFFFFFFFFFFFFFFFFFFFFFFFFFFFFF AND DUP3 PUSH20 0xFFFFFFFFFFFFFFFFFFFFFFFFFFFFFFFFFFFFFFFF AND SUB PUSH2 0x880 JUMPI PUSH1 0x40 MLOAD PUSH32 0x8C379A000000000000000000000000000000000000000000000000000000000 DUP2 MSTORE PUSH1 0x4 ADD PUSH2 0x877 SWAP1 PUSH2 0x145F JUMP JUMPDEST PUSH1 0x40 MLOAD DUP1 SWAP2 SUB SWAP1 REVERT JUMPDEST DUP1 PUSH1 0x1 ADD SLOAD CALLVALUE EQ PUSH2 0x8C6 JUMPI PUSH1 0x40 MLOAD PUSH32 0x8C379A000000000000000000000000000000000000000000000000000000000 DUP2 MSTORE PUSH1 0x4 ADD PUSH2 0x8BD SWAP1 PUSH2 0x14C7 JUMP JUMPDEST PUSH1 0x40 MLOAD DUP1 SWAP2 SUB SWAP1 REVERT JUMPDEST DUP2 DUP2 PUSH1 0x3 ADD PUSH0 PUSH2 0x100 EXP DUP2 SLOAD DUP2 PUSH20 0xFFFFFFFFFFFFFFFFFFFFFFFFFFFFFFFFFFFFFFFF MUL NOT AND SWAP1 DUP4 PUSH20 0xFFFFFFFFFFFFFFFFFFFFFFFFFFFFFFFFFFFFFFFF AND MUL OR SWAP1 SSTORE POP PUSH1 0x2 PUSH0 SWAP1 SLOAD SWAP1 PUSH2 0x100 EXP SWAP1 DIV PUSH20 0xFFFFFFFFFFFFFFFFFFFFFFFFFFFFFFFFFFFFFFFF AND PUSH20 0xFFFFFFFFFFFFFFFFFFFFFFFFFFFFFFFFFFFFFFFF AND PUSH4 0xDBCD72F0 CALLVALUE DUP6 DUP6 PUSH1 0x40 MLOAD DUP5 PUSH4 0xFFFFFFFF AND PUSH1 0xE0 SHL DUP2 MSTORE PUSH1 0x4 ADD PUSH2 0x965 SWAP3 SWAP2 SWAP1 PUSH2 0x1505 JUMP JUMPDEST PUSH0 PUSH1 0x40 MLOAD DUP1 DUP4 SUB DUP2 DUP6 DUP9 DUP1 EXTCODESIZE ISZERO DUP1 ISZERO PUSH2 0x97C JUMPI PUSH0 DUP1 REVERT JUMPDEST POP GAS CALL ISZERO DUP1 ISZERO PUSH2 0x98E JUMPI RETURNDATASIZE PUSH0 DUP1 RETURNDATACOPY RETURNDATASIZE PUSH0 REVERT JUMPDEST POP POP POP POP POP DUP3 PUSH32 0x3738A681A43A0B6A554742A08BAE57E0215E8A774217DC2E7DE6C9411B6D0DDC DUP4 PUSH1 0x40 MLOAD PUSH2 0x9C3 SWAP2 SWAP1 PUSH2 0x152C JUMP JUMPDEST PUSH1 0x40 MLOAD DUP1 SWAP2 SUB SWAP1 LOG2 POP POP POP JUMP JUMPDEST PUSH1 0x2 PUSH0 SWAP1 SLOAD SWAP1 PUSH2 0x100 EXP SWAP1 DIV PUSH20 0xFFFFFFFFFFFFFFFFFFFFFFFFFFFFFFFFFFFFFFFF AND DUP2 JUMP JUMPDEST PUSH0 PUSH1 0x40 MLOAD SWAP1 POP SWAP1 JUMP JUMPDEST PUSH0 DUP1 REVERT JUMPDEST PUSH0 DUP1 REVERT JUMPDEST PUSH0 DUP2 SWAP1 POP SWAP2 SWAP1 POP JUMP JUMPDEST PUSH2 0xA18 DUP2 PUSH2 0xA06 JUMP JUMPDEST DUP2 EQ PUSH2 0xA22 JUMPI PUSH0 DUP1 REVERT JUMPDEST POP JUMP JUMPDEST PUSH0 DUP2 CALLDATALOAD SWAP1 POP PUSH2 0xA33 DUP2 PUSH2 0xA0F JUMP JUMPDEST SWAP3 SWAP2 POP POP JUMP JUMPDEST PUSH0 PUSH1 0x20 DUP3 DUP5 SUB SLT ISZERO PUSH2 0xA4E JUMPI PUSH2 0xA4D PUSH2 0x9FE JUMP JUMPDEST JUMPDEST PUSH0 PUSH2 0xA5B DUP5 DUP3 DUP6 ADD PUSH2 0xA25 JUMP JUMPDEST SWAP2 POP POP SWAP3 SWAP2 POP POP JUMP JUMPDEST PUSH0 DUP2 MLOAD SWAP1 POP SWAP2 SWAP1 POP JUMP JUMPDEST PUSH0 DUP3 DUP3 MSTORE PUSH1 0x20 DUP3 ADD SWAP1 POP SWAP3 SWAP2 POP POP JUMP JUMPDEST DUP3 DUP2 DUP4 MCOPY PUSH0 DUP4 DUP4 ADD MSTORE POP POP POP JUMP JUMPDEST PUSH0 PUSH1 0x1F NOT PUSH1 0x1F DUP4 ADD AND SWAP1 POP SWAP2 SWAP1 POP JUMP JUMPDEST PUSH0 PUSH2 0xAA6 DUP3 PUSH2 0xA64 JUMP JUMPDEST PUSH2 0xAB0 DUP2 DUP6 PUSH2 0xA6E JUMP JUMPDEST SWAP4 POP PUSH2 0xAC0 DUP2 DUP6 PUSH1 0x20 DUP7 ADD PUSH2 0xA7E JUMP JUMPDEST PUSH2 0xAC9 DUP2 PUSH2 0xA8C JUMP JUMPDEST DUP5 ADD SWAP2 POP POP SWAP3 SWAP2 POP POP JUMP JUMPDEST PUSH2 0xADD DUP2 PUSH2 0xA06 JUMP JUMPDEST DUP3 MSTORE POP POP JUMP JUMPDEST PUSH0 PUSH20 0xFFFFFFFFFFFFFFFFFFFFFFFFFFFFFFFFFFFFFFFF DUP3 AND SWAP1 POP SWAP2 SWAP1 POP JUMP JUMPDEST PUSH0 PUSH2 0xB0C DUP3 PUSH2 0xAE3 JUMP JUMPDEST SWAP1 POP SWAP2 SWAP1 POP JUMP JUMPDEST PUSH2 0xB1C DUP2 PUSH2 0xB02 JUMP JUMPDEST DUP3 MSTORE POP POP JUMP JUMPDEST PUSH0 DUP2 ISZERO ISZERO SWAP1 POP SWAP2 SWAP1 POP JUMP JUMPDEST PUSH2 0xB36 DUP2 PUSH2 0xB22 JUMP JUMPDEST DUP3 MSTORE POP POP JUMP JUMPDEST PUSH0 PUSH1 0xA0 DUP3 ADD SWAP1 POP DUP2 DUP2 SUB PUSH0 DUP4 ADD MSTORE PUSH2 0xB54 DUP2 DUP9 PUSH2 0xA9C JUMP JUMPDEST SWAP1 POP PUSH2 0xB63 PUSH1 0x20 DUP4 ADD DUP8 PUSH2 0xAD4 JUMP JUMPDEST PUSH2 0xB70 PUSH1 0x40 DUP4 ADD DUP7 PUSH2 0xB13 JUMP JUMPDEST PUSH2 0xB7D PUSH1 0x60 DUP4 ADD DUP6 PUSH2 0xB13 JUMP JUMPDEST PUSH2 0xB8A PUSH1 0x80 DUP4 ADD DUP5 PUSH2 0xB2D JUMP JUMPDEST SWAP7 SWAP6 POP POP POP POP POP POP JUMP JUMPDEST PUSH0 PUSH1 0x20 DUP3 ADD SWAP1 POP PUSH2 0xBA7 PUSH0 DUP4 ADD DUP5 PUSH2 0xAD4 JUMP JUMPDEST SWAP3 SWAP2 POP POP JUMP JUMPDEST PUSH0 DUP1 REVERT JUMPDEST PUSH0 DUP1 REVERT JUMPDEST PUSH32 0x4E487B7100000000000000000000000000000000000000000000000000000000 PUSH0 MSTORE PUSH1 0x41 PUSH1 0x4 MSTORE PUSH1 0x24 PUSH0 REVERT JUMPDEST PUSH2 0xBEB DUP3 PUSH2 0xA8C JUMP JUMPDEST DUP2 ADD DUP2 DUP2 LT PUSH8 0xFFFFFFFFFFFFFFFF DUP3 GT OR ISZERO PUSH2 0xC0A JUMPI PUSH2 0xC09 PUSH2 0xBB5 JUMP JUMPDEST JUMPDEST DUP1 PUSH1 0x40 MSTORE POP POP POP JUMP JUMPDEST PUSH0 PUSH2 0xC1C PUSH2 0x9F5 JUMP JUMPDEST SWAP1 POP PUSH2 0xC28 DUP3 DUP3 PUSH2 0xBE2 JUMP JUMPDEST SWAP2 SWAP1 POP JUMP JUMPDEST PUSH0 PUSH8 0xFFFFFFFFFFFFFFFF DUP3 GT ISZERO PUSH2 0xC47 JUMPI PUSH2 0xC46 PUSH2 0xBB5 JUMP JUMPDEST JUMPDEST PUSH2 0xC50 DUP3 PUSH2 0xA8C JUMP JUMPDEST SWAP1 POP PUSH1 0x20 DUP2 ADD SWAP1 POP SWAP2 SWAP1 POP JUMP JUMPDEST DUP3 DUP2 DUP4 CALLDATACOPY PUSH0 DUP4 DUP4 ADD MSTORE POP POP POP JUMP JUMPDEST PUSH0 PUSH2 0xC7D PUSH2 0xC78 DUP5 PUSH2 0xC2D JUMP JUMPDEST PUSH2 0xC13 JUMP JUMPDEST SWAP1 POP DUP3 DUP2 MSTORE PUSH1 0x20 DUP2 ADD DUP5 DUP5 DUP5 ADD GT ISZERO PUSH2 0xC99 JUMPI PUSH2 0xC98 PUSH2 0xBB1 JUMP JUMPDEST JUMPDEST PUSH2 0xCA4 DUP5 DUP3 DUP6 PUSH2 0xC5D JUMP JUMPDEST POP SWAP4 SWAP3 POP POP POP JUMP JUMPDEST PUSH0 DUP3 PUSH1 0x1F DUP4 ADD SLT PUSH2 0xCC0 JUMPI PUSH2 0xCBF PUSH2 0xBAD JUMP JUMPDEST JUMPDEST DUP2 CALLDATALOAD PUSH2 0xCD0 DUP5 DUP3 PUSH1 0x20 DUP7 ADD PUSH2 0xC6B JUMP JUMPDEST SWAP2 POP POP SWAP3 SWAP2 POP POP JUMP JUMPDEST PUSH0 DUP1 PUSH1 0x40 DUP4 DUP6 SUB SLT ISZERO PUSH2 0xCEF JUMPI PUSH2 0xCEE PUSH2 0x9FE JUMP JUMPDEST JUMPDEST PUSH0 DUP4 ADD CALLDATALOAD PUSH8 0xFFFFFFFFFFFFFFFF DUP2 GT ISZERO PUSH2 0xD0C JUMPI PUSH2 0xD0B PUSH2 0xA02 JUMP JUMPDEST JUMPDEST PUSH2 0xD18 DUP6 DUP3 DUP7 ADD PUSH2 0xCAC JUMP JUMPDEST SWAP3 POP POP PUSH1 0x20 PUSH2 0xD29 DUP6 DUP3 DUP7 ADD PUSH2 0xA25 JUMP JUMPDEST SWAP2 POP POP SWAP3 POP SWAP3 SWAP1 POP JUMP JUMPDEST PUSH2 0xD3C DUP2 PUSH2 0xB02 JUMP JUMPDEST DUP2 EQ PUSH2 0xD46 JUMPI PUSH0 DUP1 REVERT JUMPDEST POP JUMP JUMPDEST PUSH0 DUP2 CALLDATALOAD SWAP1 POP PUSH2 0xD57 DUP2 PUSH2 0xD33 JUMP JUMPDEST SWAP3 SWAP2 POP POP JUMP JUMPDEST PUSH0 DUP1 PUSH1 0x40 DUP4 DUP6 SUB SLT ISZERO PUSH2 0xD73 JUMPI PUSH2 0xD72 PUSH2 0x9FE JUMP JUMPDEST JUMPDEST PUSH0 PUSH2 0xD80 DUP6 DUP3 DUP7 ADD PUSH2 0xA25 JUMP JUMPDEST SWAP3 POP POP PUSH1 0x20 PUSH2 0xD91 DUP6 DUP3 DUP7 ADD PUSH2 0xD49 JUMP JUMPDEST SWAP2 POP POP SWAP3 POP SWAP3 SWAP1 POP JUMP JUMPDEST PUSH0 DUP2 SWAP1 POP SWAP2 SWAP1 POP JUMP JUMPDEST PUSH0 PUSH2 0xDBE PUSH2 0xDB9 PUSH2 0xDB4 DUP5 PUSH2 0xAE3 JUMP JUMPDEST PUSH2 0xD9B JUMP JUMPDEST PUSH2 0xAE3 JUMP JUMPDEST SWAP1 POP SWAP2 SWAP1 POP JUMP JUMPDEST PUSH0 PUSH2 0xDCF DUP3 PUSH2 0xDA4 JUMP JUMPDEST SWAP1 POP SWAP2 SWAP1 POP JUMP JUMPDEST PUSH0 PUSH2 0xDE0 DUP3 PUSH2 0xDC5 JUMP JUMPDEST SWAP1 POP SWAP2 SWAP1 POP JUMP JUMPDEST PUSH2 0xDF0 DUP2 PUSH2 0xDD6 JUMP JUMPDEST DUP3 MSTORE POP POP JUMP JUMPDEST PUSH0 PUSH1 0x20 DUP3 ADD SWAP1 POP PUSH2 0xE09 PUSH0 DUP4 ADD DUP5 PUSH2 0xDE7 JUMP JUMPDEST SWAP3 SWAP2 POP POP JUMP JUMPDEST PUSH32 0x4E487B7100000000000000000000000000000000000000000000000000000000 PUSH0 MSTORE PUSH1 0x22 PUSH1 0x4 MSTORE PUSH1 0x24 PUSH0 REVERT JUMPDEST PUSH0 PUSH1 0x2 DUP3 DIV SWAP1 POP PUSH1 0x1 DUP3 AND DUP1 PUSH2 0xE53 JUMPI PUSH1 0x7F DUP3 AND SWAP2 POP JUMPDEST PUSH1 0x20 DUP3 LT DUP2 SUB PUSH2 0xE66 JUMPI PUSH2 0xE65 PUSH2 0xE0F JUMP JUMPDEST JUMPDEST POP SWAP2 SWAP1 POP JUMP JUMPDEST PUSH32 0x427564676574206D7573742062652067726561746572207468616E2030000000 PUSH0 DUP3 ADD MSTORE POP JUMP JUMPDEST PUSH0 PUSH2 0xEA0 PUSH1 0x1D DUP4 PUSH2 0xA6E JUMP JUMPDEST SWAP2 POP PUSH2 0xEAB DUP3 PUSH2 0xE6C JUMP JUMPDEST PUSH1 0x20 DUP3 ADD SWAP1 POP SWAP2 SWAP1 POP JUMP JUMPDEST PUSH0 PUSH1 0x20 DUP3 ADD SWAP1 POP DUP2 DUP2 SUB PUSH0 DUP4 ADD MSTORE PUSH2 0xECD DUP2 PUSH2 0xE94 JUMP JUMPDEST SWAP1 POP SWAP2 SWAP1 POP JUMP JUMPDEST PUSH32 0x4E487B7100000000000000000000000000000000000000000000000000000000 PUSH0 MSTORE PUSH1 0x11 PUSH1 0x4 MSTORE PUSH1 0x24 PUSH0 REVERT JUMPDEST PUSH0 PUSH2 0xF0B DUP3 PUSH2 0xA06 JUMP JUMPDEST SWAP2 POP PUSH32 0xFFFFFFFFFFFFFFFFFFFFFFFFFFFFFFFFFFFFFFFFFFFFFFFFFFFFFFFFFFFFFFFF DUP3 SUB PUSH2 0xF3D JUMPI PUSH2 0xF3C PUSH2 0xED4 JUMP JUMPDEST JUMPDEST PUSH1 0x1 DUP3 ADD SWAP1 POP SWAP2 SWAP1 POP JUMP JUMPDEST PUSH0 DUP2 SWAP1 POP DUP2 PUSH0 MSTORE PUSH1 0x20 PUSH0 KECCAK256 SWAP1 POP SWAP2 SWAP1 POP JUMP JUMPDEST PUSH0 PUSH1 0x20 PUSH1 0x1F DUP4 ADD DIV SWAP1 POP SWAP2 SWAP1 POP JUMP JUMPDEST PUSH0 DUP3 DUP3 SHL SWAP1 POP SWAP3 SWAP2 POP POP JUMP JUMPDEST PUSH0 PUSH1 0x8 DUP4 MUL PUSH2 0xFA4 PUSH32 0xFFFFFFFFFFFFFFFFFFFFFFFFFFFFFFFFFFFFFFFFFFFFFFFFFFFFFFFFFFFFFFFF DUP3 PUSH2 0xF69 JUMP JUMPDEST PUSH2 0xFAE DUP7 DUP4 PUSH2 0xF69 JUMP JUMPDEST SWAP6 POP DUP1 NOT DUP5 AND SWAP4 POP DUP1 DUP7 AND DUP5 OR SWAP3 POP POP POP SWAP4 SWAP3 POP POP POP JUMP JUMPDEST PUSH0 PUSH2 0xFE0 PUSH2 0xFDB PUSH2 0xFD6 DUP5 PUSH2 0xA06 JUMP JUMPDEST PUSH2 0xD9B JUMP JUMPDEST PUSH2 0xA06 JUMP JUMPDEST SWAP1 POP SWAP2 SWAP1 POP JUMP JUMPDEST PUSH0 DUP2 SWAP1 POP SWAP2 SWAP1 POP JUMP JUMPDEST PUSH2 0xFF9 DUP4 PUSH2 0xFC6 JUMP JUMPDEST PUSH2 0x100D PUSH2 0x1005 DUP3 PUSH2 0xFE7 JUMP JUMPDEST DUP5 DUP5 SLOAD PUSH2 0xF75 JUMP JUMPDEST DUP3 SSTORE POP POP POP POP JUMP JUMPDEST PUSH0 SWAP1 JUMP JUMPDEST PUSH2 0x1021 PUSH2 0x1015 JUMP JUMPDEST PUSH2 0x102C DUP2 DUP5 DUP5 PUSH2 0xFF0 JUMP JUMPDEST POP POP POP JUMP JUMPDEST JUMPDEST DUP2 DUP2 LT ISZERO PUSH2 0x104F JUMPI PUSH2 0x1044 PUSH0 DUP3 PUSH2 0x1019 JUMP JUMPDEST PUSH1 0x1 DUP2 ADD SWAP1 POP PUSH2 0x1032 JUMP JUMPDEST POP POP JUMP JUMPDEST PUSH1 0x1F DUP3 GT ISZERO PUSH2 0x1094 JUMPI PUSH2 0x1065 DUP2 PUSH2 0xF48 JUMP JUMPDEST PUSH2 0x106E DUP5 PUSH2 0xF5A JUMP JUMPDEST DUP2 ADD PUSH1 0x20 DUP6 LT ISZERO PUSH2 0x107D JUMPI DUP2 SWAP1 POP JUMPDEST PUSH2 0x1091 PUSH2 0x1089 DUP6 PUSH2 0xF5A JUMP JUMPDEST DUP4 ADD DUP3 PUSH2 0x1031 JUMP JUMPDEST POP POP JUMPDEST POP POP POP JUMP JUMPDEST PUSH0 DUP3 DUP3 SHR SWAP1 POP SWAP3 SWAP2 POP POP JUMP JUMPDEST PUSH0 PUSH2 0x10B4 PUSH0 NOT DUP5 PUSH1 0x8 MUL PUSH2 0x1099 JUMP JUMPDEST NOT DUP1 DUP4 AND SWAP2 POP POP SWAP3 SWAP2 POP POP JUMP JUMPDEST PUSH0 PUSH2 0x10CC DUP4 DUP4 PUSH2 0x10A5 JUMP JUMPDEST SWAP2 POP DUP3 PUSH1 0x2 MUL DUP3 OR SWAP1 POP SWAP3 SWAP2 POP POP JUMP JUMPDEST PUSH2 0x10E5 DUP3 PUSH2 0xA64 JUMP JUMPDEST PUSH8 0xFFFFFFFFFFFFFFFF DUP2 GT ISZERO PUSH2 0x10FE JUMPI PUSH2 0x10FD PUSH2 0xBB5 JUMP JUMPDEST JUMPDEST PUSH2 0x1108 DUP3 SLOAD PUSH2 0xE3C JUMP JUMPDEST PUSH2 0x1113 DUP3 DUP3 DUP6 PUSH2 0x1053 JUMP JUMPDEST PUSH0 PUSH1 0x20 SWAP1 POP PUSH1 0x1F DUP4 GT PUSH1 0x1 DUP2 EQ PUSH2 0x1144 JUMPI PUSH0 DUP5 ISZERO PUSH2 0x1132 JUMPI DUP3 DUP8 ADD MLOAD SWAP1 POP JUMPDEST PUSH2 0x113C DUP6 DUP3 PUSH2 0x10C1 JUMP JUMPDEST DUP7 SSTORE POP PUSH2 0x11A3 JUMP JUMPDEST PUSH1 0x1F NOT DUP5 AND PUSH2 0x1152 DUP7 PUSH2 0xF48 JUMP JUMPDEST PUSH0 JUMPDEST DUP3 DUP2 LT ISZERO PUSH2 0x1179 JUMPI DUP5 DUP10 ADD MLOAD DUP3 SSTORE PUSH1 0x1 DUP3 ADD SWAP2 POP PUSH1 0x20 DUP6 ADD SWAP5 POP PUSH1 0x20 DUP2 ADD SWAP1 POP PUSH2 0x1154 JUMP JUMPDEST DUP7 DUP4 LT ISZERO PUSH2 0x1196 JUMPI DUP5 DUP10 ADD MLOAD PUSH2 0x1192 PUSH1 0x1F DUP10 AND DUP3 PUSH2 0x10A5 JUMP JUMPDEST DUP4 SSTORE POP JUMPDEST PUSH1 0x1 PUSH1 0x2 DUP9 MUL ADD DUP9 SSTORE POP POP POP JUMPDEST POP POP POP POP POP POP JUMP JUMPDEST PUSH0 PUSH1 0x60 DUP3 ADD SWAP1 POP DUP2 DUP2 SUB PUSH0 DUP4 ADD MSTORE PUSH2 0x11C3 DUP2 DUP7 PUSH2 0xA9C JUMP JUMPDEST SWAP1 POP PUSH2 0x11D2 PUSH1 0x20 DUP4 ADD DUP6 PUSH2 0xAD4 JUMP JUMPDEST PUSH2 0x11DF PUSH1 0x40 DUP4 ADD DUP5 PUSH2 0xB13 JUMP JUMPDEST SWAP5 SWAP4 POP POP POP POP JUMP JUMPDEST PUSH32 0x4F6E6C7920636C69656E742063616E20636F6D706C657465206A6F6200000000 PUSH0 DUP3 ADD MSTORE POP JUMP JUMPDEST PUSH0 PUSH2 0x121B PUSH1 0x1C DUP4 PUSH2 0xA6E JUMP JUMPDEST SWAP2 POP PUSH2 0x1226 DUP3 PUSH2 0x11E7 JUMP JUMPDEST PUSH1 0x20 DUP3 ADD SWAP1 POP SWAP2 SWAP1 POP JUMP JUMPDEST PUSH0 PUSH1 0x20 DUP3 ADD SWAP1 POP DUP2 DUP2 SUB PUSH0 DUP4 ADD MSTORE PUSH2 0x1248 DUP2 PUSH2 0x120F JUMP JUMPDEST SWAP1 POP SWAP2 SWAP1 POP JUMP JUMPDEST PUSH32 0x4E6F20667265656C616E6365722061737369676E656400000000000000000000 PUSH0 DUP3 ADD MSTORE POP JUMP JUMPDEST PUSH0 PUSH2 0x1283 PUSH1 0x16 DUP4 PUSH2 0xA6E JUMP JUMPDEST SWAP2 POP PUSH2 0x128E DUP3 PUSH2 0x124F JUMP JUMPDEST PUSH1 0x20 DUP3 ADD SWAP1 POP SWAP2 SWAP1 POP JUMP JUMPDEST PUSH0 PUSH1 0x20 DUP3 ADD SWAP1 POP DUP2 DUP2 SUB PUSH0 DUP4 ADD MSTORE PUSH2 0x12B0 DUP2 PUSH2 0x1277 JUMP JUMPDEST SWAP1 POP SWAP2 SWAP1 POP JUMP JUMPDEST PUSH32 0x4A6F6220616C726561647920636F6D706C657465640000000000000000000000 PUSH0 DUP3 ADD MSTORE POP JUMP JUMPDEST PUSH0 PUSH2 0x12EB PUSH1 0x15 DUP4 PUSH2 0xA6E JUMP JUMPDEST SWAP2 POP PUSH2 0x12F6 DUP3 PUSH2 0x12B7 JUMP JUMPDEST PUSH1 0x20 DUP3 ADD SWAP1 POP SWAP2 SWAP1 POP JUMP JUMPDEST PUSH0 PUSH1 0x20 DUP3 ADD SWAP1 POP DUP2 DUP2 SUB PUSH0 DUP4 ADD MSTORE PUSH2 0x1318 DUP2 PUSH2 0x12DF JUMP JUMPDEST SWAP1 POP SWAP2 SWAP1 POP JUMP JUMPDEST PUSH32 0x4F6E6C7920636C69656E742063616E2061737369676E20667265656C616E6365 PUSH0 DUP3 ADD MSTORE PUSH32 0x7200000000000000000000000000000000000000000000000000000000000000 PUSH1 0x20 DUP3 ADD MSTORE POP JUMP JUMPDEST PUSH0 PUSH2 0x1379 PUSH1 0x21 DUP4 PUSH2 0xA6E JUMP JUMPDEST SWAP2 POP PUSH2 0x1384 DUP3 PUSH2 0x131F JUMP JUMPDEST PUSH1 0x40 DUP3 ADD SWAP1 POP SWAP2 SWAP1 POP JUMP JUMPDEST PUSH0 PUSH1 0x20 DUP3 ADD SWAP1 POP DUP2 DUP2 SUB PUSH0 DUP4 ADD MSTORE PUSH2 0x13A6 DUP2 PUSH2 0x136D JUMP JUMPDEST SWAP1 POP SWAP2 SWAP1 POP JUMP JUMPDEST PUSH32 0x467265656C616E63657220616C72656164792061737369676E65640000000000 PUSH0 DUP3 ADD MSTORE POP JUMP JUMPDEST PUSH0 PUSH2 0x13E1 PUSH1 0x1B DUP4 PUSH2 0xA6E JUMP JUMPDEST SWAP2 POP PUSH2 0x13EC DUP3 PUSH2 0x13AD JUMP JUMPDEST PUSH1 0x20 DUP3 ADD SWAP1 POP SWAP2 SWAP1 POP JUMP JUMPDEST PUSH0 PUSH1 0x20 DUP3 ADD SWAP1 POP DUP2 DUP2 SUB PUSH0 DUP4 ADD MSTORE PUSH2 0x140E DUP2 PUSH2 0x13D5 JUMP JUMPDEST SWAP1 POP SWAP2 SWAP1 POP JUMP JUMPDEST PUSH32 0x496E76616C696420667265656C616E6365722061646472657373000000000000 PUSH0 DUP3 ADD MSTORE POP JUMP JUMPDEST PUSH0 PUSH2 0x1449 PUSH1 0x1A DUP4 PUSH2 0xA6E JUMP JUMPDEST SWAP2 POP PUSH2 0x1454 DUP3 PUSH2 0x1415 JUMP JUMPDEST PUSH1 0x20 DUP3 ADD SWAP1 POP SWAP2 SWAP1 POP JUMP JUMPDEST PUSH0 PUSH1 0x20 DUP3 ADD SWAP1 POP DUP2 DUP2 SUB PUSH0 DUP4 ADD MSTORE PUSH2 0x1476 DUP2 PUSH2 0x143D JUMP JUMPDEST SWAP1 POP SWAP2 SWAP1 POP JUMP JUMPDEST PUSH32 0x4D7573742073656E642065786163742062756467657420616D6F756E74000000 PUSH0 DUP3 ADD MSTORE POP JUMP JUMPDEST PUSH0 PUSH2 0x14B1 PUSH1 0x1D DUP4 PUSH2 0xA6E JUMP JUMPDEST SWAP2 POP PUSH2 0x14BC DUP3 PUSH2 0x147D JUMP JUMPDEST PUSH1 0x20 DUP3 ADD SWAP1 POP SWAP2 SWAP1 POP JUMP JUMPDEST PUSH0 PUSH1 0x20 DUP3 ADD SWAP1 POP DUP2 DUP2 SUB PUSH0 DUP4 ADD MSTORE PUSH2 0x14DE DUP2 PUSH2 0x14A5 JUMP JUMPDEST SWAP1 POP SWAP2 SWAP1 POP JUMP JUMPDEST PUSH0 PUSH2 0x14EF DUP3 PUSH2 0xAE3 JUMP JUMPDEST SWAP1 POP SWAP2 SWAP1 POP JUMP JUMPDEST PUSH2 0x14FF DUP2 PUSH2 0x14E5 JUMP JUMPDEST DUP3 MSTORE POP POP JUMP JUMPDEST PUSH0 PUSH1 0x40 DUP3 ADD SWAP1 POP PUSH2 0x1518 PUSH0 DUP4 ADD DUP6 PUSH2 0xAD4 JUMP JUMPDEST PUSH2 0x1525 PUSH1 0x20 DUP4 ADD DUP5 PUSH2 0x14F6 JUMP JUMPDEST SWAP4 SWAP3 POP POP POP JUMP JUMPDEST PUSH0 PUSH1 0x20 DUP3 ADD SWAP1 POP PUSH2 0x153F PUSH0 DUP4 ADD DUP5 PUSH2 0xB13 JUMP JUMPDEST SWAP3 SWAP2 POP POP JUMP INVALID LOG2 PUSH5 0x6970667358 0x22 SLT KECCAK256 0xC0 0xC5 0xE3 ADD 0xAC 0xCE 0xEC 0xBB RETURN STATICCALL 0xBB 0xE5 SWAP4 0x4D GASLIMIT PREVRANDAO PUSH6 0x9092B640452C SUB 0xE1 EQ MSIZE 0xAE STATICCALL CREATE2 INVALID PUSH6 0x64736F6C6343 STOP ADDMOD BYTE STOP CALLER "
				},
				"gasEstimates": {
					"creation": {
						"codeDepositCost": "1099800",
						"executionCost": "infinite",
						"totalCost": "infinite"
					},
					"external": {
						"assignFreelancer(uint256,address)": "infinite",
						"createJob(string,uint256)": "infinite",
						"escrowContract()": "infinite",
						"jobCounter()": "2424",
						"jobs(uint256)": "infinite",
						"markJobCompleted(uint256)": "infinite"
					}
				},
				"methodIdentifiers": {
					"assignFreelancer(uint256,address)": "c949756c",
					"createJob(string,uint256)": "5713b2b6",
					"escrowContract()": "e42a96e7",
					"jobCounter()": "50355d76",
					"jobs(uint256)": "180aedf3",
					"markJobCompleted(uint256)": "5c1615f3"
				}
			},
			"storageLayout": {
				"storage": [
					{
						"astId": 164,
						"contract": "contracts.sol:JobContract",
						"label": "jobCounter",
						"offset": 0,
						"slot": "0",
						"type": "t_uint256"
					},
					{
						"astId": 169,
						"contract": "contracts.sol:JobContract",
						"label": "jobs",
						"offset": 0,
						"slot": "1",
						"type": "t_mapping(t_uint256,t_struct(Job)162_storage)"
					},
					{
						"astId": 172,
						"contract": "contracts.sol:JobContract",
						"label": "escrowContract",
						"offset": 0,
						"slot": "2",
						"type": "t_contract(EscrowContract)151"
					}
				],
				"types": {
					"t_address": {
						"encoding": "inplace",
						"label": "address",
						"numberOfBytes": "20"
					},
					"t_bool": {
						"encoding": "inplace",
						"label": "bool",
						"numberOfBytes": "1"
					},
					"t_contract(EscrowContract)151": {
						"encoding": "inplace",
						"label": "contract EscrowContract",
						"numberOfBytes": "20"
					},
					"t_mapping(t_uint256,t_struct(Job)162_storage)": {
						"encoding": "mapping",
						"key": "t_uint256",
						"label": "mapping(uint256 => struct JobContract.Job)",
						"numberOfBytes": "32",
						"value": "t_struct(Job)162_storage"
					},
					"t_string_storage": {
						"encoding": "bytes",
						"label": "string",
						"numberOfBytes": "32"
					},
					"t_struct(Job)162_storage": {
						"encoding": "inplace",
						"label": "struct JobContract.Job",
						"members": [
							{
								"astId": 153,
								"contract": "contracts.sol:JobContract",
								"label": "description",
								"offset": 0,
								"slot": "0",
								"type": "t_string_storage"
							},
							{
								"astId": 155,
								"contract": "contracts.sol:JobContract",
								"label": "budget",
								"offset": 0,
								"slot": "1",
								"type": "t_uint256"
							},
							{
								"astId": 157,
								"contract": "contracts.sol:JobContract",
								"label": "client",
								"offset": 0,
								"slot": "2",
								"type": "t_address"
							},
							{
								"astId": 159,
								"contract": "contracts.sol:JobContract",
								"label": "freelancer",
								"offset": 0,
								"slot": "3",
								"type": "t_address"
							},
							{
								"astId": 161,
								"contract": "contracts.sol:JobContract",
								"label": "completed",
								"offset": 20,
								"slot": "3",
								"type": "t_bool"
							}
						],
						"numberOfBytes": "128"
					},
					"t_uint256": {
						"encoding": "inplace",
						"label": "uint256",
						"numberOfBytes": "32"
					}
				}
			},
			"userdoc": {
				"kind": "user",
				"methods": {},
				"version": 1
			}
		}
	}
}