{
	"contracts.sol": {
		"EscrowContract": {
			"abi": [
				{
					"anonymous": false,
					"inputs": [
						{
							"indexed": true,
							"internalType": "uint256",
							"name": "jobId",
							"type": "uint256"
						},
						{
							"indexed": false,
							"internalType": "uint256",
							"name": "amount",
							"type": "uint256"
						}
					],
					"name": "FundsDeposited",
					"type": "event"
				},
				{
					"anonymous": false,
					"inputs": [
						{
							"indexed": true,
							"internalType": "uint256",
							"name": "jobId",
							"type": "uint256"
						},
						{
							"indexed": false,
							"internalType": "uint256",
							"name": "amount",
							"type": "uint256"
						},
						{
							"indexed": false,
							"internalType": "address",
							"name": "freelancer",
							"type": "address"
						}
					],
					"name": "FundsReleased",
					"type": "event"
				},
				{
					"inputs": [
						{
							"internalType": "uint256",
							"name": "_jobId",
							"type": "uint256"
						},
						{
							"internalType": "address payable",
							"name": "_freelancer",
							"type": "address"
						}
					],
					"name": "createEscrow",
					"outputs": [],
					"stateMutability": "payable",
					"type": "function"
				},
				{
					"inputs": [
						{
							"internalType": "uint256",
							"name": "",
							"type": "uint256"
						}
					],
					"name": "escrowedFunds",
					"outputs": [
						{
							"internalType": "uint256",
							"name": "",
							"type": "uint256"
						}
					],
					"stateMutability": "view",
					"type": "function"
				},
				{
					"inputs": [
						{
							"internalType": "uint256",
							"name": "",
							"type": "uint256"
						}
					],
					"name": "freelancers",
					"outputs": [
						{
							"internalType": "address payable",
							"name": "",
							"type": "address"
						}
					],
					"stateMutability": "view",
					"type": "function"
				},
				{
					"inputs": [
						{
							"internalType": "uint256",
							"name": "_jobId",
							"type": "uint256"
						}
					],
					"name": "releaseFunds",
					"outputs": [],
					"stateMutability": "nonpayable",
					"type": "function"
				}
			],
			"devdoc": {
				"kind": "dev",
				"methods": {},
				"version": 1
			},
			"evm": {
				"assembly": "    /* \"contracts.sol\":62:1463  contract EscrowContract {... */\n  mstore(0x40, 0x80)\n  callvalue\n  dup1\n  iszero\n  tag_1\n  jumpi\n  0x00\n  dup1\n  revert\ntag_1:\n  pop\n  dataSize(sub_0)\n  dup1\n  dataOffset(sub_0)\n  0x00\n  codecopy\n  0x00\n  return\nstop\n\nsub_0: assembly {\n        /* \"contracts.sol\":62:1463  contract EscrowContract {... */\n      mstore(0x40, 0x80)\n      jumpi(tag_1, lt(calldatasize, 0x04))\n      shr(0xe0, calldataload(0x00))\n      dup1\n      0x0b9364d8\n      eq\n      tag_2\n      jumpi\n      dup1\n      0x4d68282f\n      eq\n      tag_3\n      jumpi\n      dup1\n      0xb489e147\n      eq\n      tag_4\n      jumpi\n      dup1\n      0xdbcd72f0\n      eq\n      tag_5\n      jumpi\n    tag_1:\n      0x00\n      dup1\n      revert\n        /* \"contracts.sol\":148:202  mapping(uint256 => address payable) public freelancers */\n    tag_2:\n      callvalue\n      dup1\n      iszero\n      tag_6\n      jumpi\n      0x00\n      dup1\n      revert\n    tag_6:\n      pop\n      tag_7\n      0x04\n      dup1\n      calldatasize\n      sub\n      dup2\n      add\n      swap1\n      tag_8\n      swap2\n      swap1\n      tag_9\n      jump\t// in\n    tag_8:\n      tag_10\n      jump\t// in\n    tag_7:\n      mload(0x40)\n      tag_11\n      swap2\n      swap1\n      tag_12\n      jump\t// in\n    tag_11:\n      mload(0x40)\n      dup1\n      swap2\n      sub\n      swap1\n      return\n        /* \"contracts.sol\":854:1460  function releaseFunds(uint256 _jobId) external {... */\n    tag_3:\n      callvalue\n      dup1\n      iszero\n      tag_13\n      jumpi\n      0x00\n      dup1\n      revert\n    tag_13:\n      pop\n      tag_14\n      0x04\n      dup1\n      calldatasize\n      sub\n      dup2\n      add\n      swap1\n      tag_15\n      swap2\n      swap1\n      tag_9\n      jump\t// in\n    tag_15:\n      tag_16\n      jump\t// in\n    tag_14:\n      stop\n        /* \"contracts.sol\":93:141  mapping(uint256 => uint256) public escrowedFunds */\n    tag_4:\n      callvalue\n      dup1\n      iszero\n      tag_17\n      jumpi\n      0x00\n      dup1\n      revert\n    tag_17:\n      pop\n      tag_18\n      0x04\n      dup1\n      calldatasize\n      sub\n      dup2\n      add\n      swap1\n      tag_19\n      swap2\n      swap1\n      tag_9\n      jump\t// in\n    tag_19:\n      tag_20\n      jump\t// in\n    tag_18:\n      mload(0x40)\n      tag_21\n      swap2\n      swap1\n      tag_22\n      jump\t// in\n    tag_21:\n      mload(0x40)\n      dup1\n      swap2\n      sub\n      swap1\n      return\n        /* \"contracts.sol\":372:842  function createEscrow(uint256 _jobId, address payable _freelancer) external payable {... */\n    tag_5:\n      tag_23\n      0x04\n      dup1\n      calldatasize\n      sub\n      dup2\n      add\n      swap1\n      tag_24\n      swap2\n      swap1\n      tag_25\n      jump\t// in\n    tag_24:\n      tag_26\n      jump\t// in\n    tag_23:\n      stop\n        /* \"contracts.sol\":148:202  mapping(uint256 => address payable) public freelancers */\n    tag_10:\n      mstore(0x20, 0x01)\n      dup1\n      0x00\n      mstore\n      keccak256(0x00, 0x40)\n      0x00\n      swap2\n      pop\n      sload\n      swap1\n      0x0100\n      exp\n      swap1\n      div\n      0xffffffffffffffffffffffffffffffffffffffff\n      and\n      dup2\n      jump\t// out\n        /* \"contracts.sol\":854:1460  function releaseFunds(uint256 _jobId) external {... */\n    tag_16:\n        /* \"contracts.sol\":912:926  uint256 amount */\n      0x00\n        /* \"contracts.sol\":929:942  escrowedFunds */\n      dup1\n        /* \"contracts.sol\":929:950  escrowedFunds[_jobId] */\n      0x00\n        /* \"contracts.sol\":943:949  _jobId */\n      dup4\n        /* \"contracts.sol\":929:950  escrowedFunds[_jobId] */\n      dup2\n      mstore\n      0x20\n      add\n      swap1\n      dup2\n      mstore\n      0x20\n      add\n      0x00\n      keccak256\n      sload\n        /* \"contracts.sol\":912:950  uint256 amount = escrowedFunds[_jobId] */\n      swap1\n      pop\n        /* \"contracts.sol\":961:987  address payable freelancer */\n      0x00\n        /* \"contracts.sol\":990:1001  freelancers */\n      0x01\n        /* \"contracts.sol\":990:1009  freelancers[_jobId] */\n      0x00\n        /* \"contracts.sol\":1002:1008  _jobId */\n      dup5\n        /* \"contracts.sol\":990:1009  freelancers[_jobId] */\n      dup2\n      mstore\n      0x20\n      add\n      swap1\n      dup2\n      mstore\n      0x20\n      add\n      0x00\n      keccak256\n      0x00\n      swap1\n      sload\n      swap1\n      0x0100\n      exp\n      swap1\n      div\n      0xffffffffffffffffffffffffffffffffffffffff\n      and\n        /* \"contracts.sol\":961:1009  address payable freelancer = freelancers[_jobId] */\n      swap1\n      pop\n        /* \"contracts.sol\":1047:1048  0 */\n      0x00\n        /* \"contracts.sol\":1038:1044  amount */\n      dup3\n        /* \"contracts.sol\":1038:1048  amount > 0 */\n      gt\n        /* \"contracts.sol\":1030:1084  require(amount > 0, \"No funds in escrow for this job\") */\n      tag_28\n      jumpi\n      mload(0x40)\n      0x08c379a000000000000000000000000000000000000000000000000000000000\n      dup2\n      mstore\n      0x04\n      add\n      tag_29\n      swap1\n      tag_30\n      jump\t// in\n    tag_29:\n      mload(0x40)\n      dup1\n      swap2\n      sub\n      swap1\n      revert\n    tag_28:\n        /* \"contracts.sol\":1125:1126  0 */\n      0x00\n        /* \"contracts.sol\":1103:1127  freelancer != address(0) */\n      0xffffffffffffffffffffffffffffffffffffffff\n      and\n        /* \"contracts.sol\":1103:1113  freelancer */\n      dup2\n        /* \"contracts.sol\":1103:1127  freelancer != address(0) */\n      0xffffffffffffffffffffffffffffffffffffffff\n      and\n      sub\n        /* \"contracts.sol\":1095:1154  require(freelancer != address(0), \"No freelancer assigned\") */\n      tag_31\n      jumpi\n      mload(0x40)\n      0x08c379a000000000000000000000000000000000000000000000000000000000\n      dup2\n      mstore\n      0x04\n      add\n      tag_32\n      swap1\n      tag_33\n      jump\t// in\n    tag_32:\n      mload(0x40)\n      dup1\n      swap2\n      sub\n      swap1\n      revert\n    tag_31:\n        /* \"contracts.sol\":1199:1200  0 */\n      0x00\n        /* \"contracts.sol\":1175:1188  escrowedFunds */\n      dup1\n        /* \"contracts.sol\":1175:1196  escrowedFunds[_jobId] */\n      0x00\n        /* \"contracts.sol\":1189:1195  _jobId */\n      dup6\n        /* \"contracts.sol\":1175:1196  escrowedFunds[_jobId] */\n      dup2\n      mstore\n      0x20\n      add\n      swap1\n      dup2\n      mstore\n      0x20\n      add\n      0x00\n      keccak256\n        /* \"contracts.sol\":1175:1200  escrowedFunds[_jobId] = 0 */\n      dup2\n      swap1\n      sstore\n      pop\n        /* \"contracts.sol\":1249:1250  0 */\n      0x00\n        /* \"contracts.sol\":1211:1222  freelancers */\n      0x01\n        /* \"contracts.sol\":1211:1230  freelancers[_jobId] */\n      0x00\n        /* \"contracts.sol\":1223:1229  _jobId */\n      dup6\n        /* \"contracts.sol\":1211:1230  freelancers[_jobId] */\n      dup2\n      mstore\n      0x20\n      add\n      swap1\n      dup2\n      mstore\n      0x20\n      add\n      0x00\n      keccak256\n      0x00\n        /* \"contracts.sol\":1211:1252  freelancers[_jobId] = payable(address(0)) */\n      0x0100\n      exp\n      dup2\n      sload\n      dup2\n      0xffffffffffffffffffffffffffffffffffffffff\n      mul\n      not\n      and\n      swap1\n      dup4\n      0xffffffffffffffffffffffffffffffffffffffff\n      and\n      mul\n      or\n      swap1\n      sstore\n      pop\n        /* \"contracts.sol\":1274:1283  bool sent */\n      0x00\n        /* \"contracts.sol\":1289:1299  freelancer */\n      dup2\n        /* \"contracts.sol\":1289:1304  freelancer.call */\n      0xffffffffffffffffffffffffffffffffffffffff\n      and\n        /* \"contracts.sol\":1312:1318  amount */\n      dup4\n        /* \"contracts.sol\":1289:1323  freelancer.call{value: amount}(\"\") */\n      mload(0x40)\n      tag_34\n      swap1\n      tag_35\n      jump\t// in\n    tag_34:\n      0x00\n      mload(0x40)\n      dup1\n      dup4\n      sub\n      dup2\n      dup6\n      dup8\n      gas\n      call\n      swap3\n      pop\n      pop\n      pop\n      returndatasize\n      dup1\n      0x00\n      dup2\n      eq\n      tag_38\n      jumpi\n      mload(0x40)\n      swap2\n      pop\n      and(add(returndatasize, 0x3f), not(0x1f))\n      dup3\n      add\n      0x40\n      mstore\n      returndatasize\n      dup3\n      mstore\n      returndatasize\n      0x00\n      0x20\n      dup5\n      add\n      returndatacopy\n      jump(tag_37)\n    tag_38:\n      0x60\n      swap2\n      pop\n    tag_37:\n      pop\n        /* \"contracts.sol\":1273:1323  (bool sent, ) = freelancer.call{value: amount}(\"\") */\n      pop\n      swap1\n      pop\n        /* \"contracts.sol\":1342:1346  sent */\n      dup1\n        /* \"contracts.sol\":1334:1385  require(sent, \"Failed to send funds to freelancer\") */\n      tag_39\n      jumpi\n      mload(0x40)\n      0x08c379a000000000000000000000000000000000000000000000000000000000\n      dup2\n      mstore\n      0x04\n      add\n      tag_40\n      swap1\n      tag_41\n      jump\t// in\n    tag_40:\n      mload(0x40)\n      dup1\n      swap2\n      sub\n      swap1\n      revert\n    tag_39:\n        /* \"contracts.sol\":1425:1431  _jobId */\n      dup4\n        /* \"contracts.sol\":1411:1452  FundsReleased(_jobId, amount, freelancer) */\n      0x807158a396c8ce26fb6a4a44930e1b49876133ba7806dbaac491ea4713e4515e\n        /* \"contracts.sol\":1433:1439  amount */\n      dup5\n        /* \"contracts.sol\":1441:1451  freelancer */\n      dup5\n        /* \"contracts.sol\":1411:1452  FundsReleased(_jobId, amount, freelancer) */\n      mload(0x40)\n      tag_42\n      swap3\n      swap2\n      swap1\n      tag_43\n      jump\t// in\n    tag_42:\n      mload(0x40)\n      dup1\n      swap2\n      sub\n      swap1\n      log2\n        /* \"contracts.sol\":901:1460  {... */\n      pop\n      pop\n      pop\n        /* \"contracts.sol\":854:1460  function releaseFunds(uint256 _jobId) external {... */\n      pop\n      jump\t// out\n        /* \"contracts.sol\":93:141  mapping(uint256 => uint256) public escrowedFunds */\n    tag_20:\n      mstore(0x20, 0x00)\n      dup1\n      0x00\n      mstore\n      keccak256(0x00, 0x40)\n      0x00\n      swap2\n      pop\n      swap1\n      pop\n      sload\n      dup2\n      jump\t// out\n        /* \"contracts.sol\":372:842  function createEscrow(uint256 _jobId, address payable _freelancer) external payable {... */\n    tag_26:\n        /* \"contracts.sol\":487:488  0 */\n      0x00\n        /* \"contracts.sol\":475:484  msg.value */\n      callvalue\n        /* \"contracts.sol\":475:488  msg.value > 0 */\n      gt\n        /* \"contracts.sol\":467:518  require(msg.value > 0, \"Must send funds to escrow\") */\n      tag_45\n      jumpi\n      mload(0x40)\n      0x08c379a000000000000000000000000000000000000000000000000000000000\n      dup2\n      mstore\n      0x04\n      add\n      tag_46\n      swap1\n      tag_47\n      jump\t// in\n    tag_46:\n      mload(0x40)\n      dup1\n      swap2\n      sub\n      swap1\n      revert\n    tag_45:\n        /* \"contracts.sol\":562:563  0 */\n      0x00\n        /* \"contracts.sol\":537:550  escrowedFunds */\n      dup1\n        /* \"contracts.sol\":537:558  escrowedFunds[_jobId] */\n      0x00\n        /* \"contracts.sol\":551:557  _jobId */\n      dup5\n        /* \"contracts.sol\":537:558  escrowedFunds[_jobId] */\n      dup2\n      mstore\n      0x20\n      add\n      swap1\n      dup2\n      mstore\n      0x20\n      add\n      0x00\n      keccak256\n      sload\n        /* \"contracts.sol\":537:563  escrowedFunds[_jobId] == 0 */\n      eq\n        /* \"contracts.sol\":529:602  require(escrowedFunds[_jobId] == 0, \"Escrow already exists for this job\") */\n      tag_48\n      jumpi\n      mload(0x40)\n      0x08c379a000000000000000000000000000000000000000000000000000000000\n      dup2\n      mstore\n      0x04\n      add\n      tag_49\n      swap1\n      tag_50\n      jump\t// in\n    tag_49:\n      mload(0x40)\n      dup1\n      swap2\n      sub\n      swap1\n      revert\n    tag_48:\n        /* \"contracts.sol\":644:645  0 */\n      0x00\n        /* \"contracts.sol\":621:646  _freelancer != address(0) */\n      0xffffffffffffffffffffffffffffffffffffffff\n      and\n        /* \"contracts.sol\":621:632  _freelancer */\n      dup2\n        /* \"contracts.sol\":621:646  _freelancer != address(0) */\n      0xffffffffffffffffffffffffffffffffffffffff\n      and\n      sub\n        /* \"contracts.sol\":613:677  require(_freelancer != address(0), \"Invalid freelancer address\") */\n      tag_51\n      jumpi\n      mload(0x40)\n      0x08c379a000000000000000000000000000000000000000000000000000000000\n      dup2\n      mstore\n      0x04\n      add\n      tag_52\n      swap1\n      tag_53\n      jump\t// in\n    tag_52:\n      mload(0x40)\n      dup1\n      swap2\n      sub\n      swap1\n      revert\n    tag_51:\n        /* \"contracts.sol\":722:731  msg.value */\n      callvalue\n        /* \"contracts.sol\":698:711  escrowedFunds */\n      0x00\n        /* \"contracts.sol\":698:719  escrowedFunds[_jobId] */\n      dup1\n        /* \"contracts.sol\":712:718  _jobId */\n      dup5\n        /* \"contracts.sol\":698:719  escrowedFunds[_jobId] */\n      dup2\n      mstore\n      0x20\n      add\n      swap1\n      dup2\n      mstore\n      0x20\n      add\n      0x00\n      keccak256\n        /* \"contracts.sol\":698:731  escrowedFunds[_jobId] = msg.value */\n      dup2\n      swap1\n      sstore\n      pop\n        /* \"contracts.sol\":764:775  _freelancer */\n      dup1\n        /* \"contracts.sol\":742:753  freelancers */\n      0x01\n        /* \"contracts.sol\":742:761  freelancers[_jobId] */\n      0x00\n        /* \"contracts.sol\":754:760  _jobId */\n      dup5\n        /* \"contracts.sol\":742:761  freelancers[_jobId] */\n      dup2\n      mstore\n      0x20\n      add\n      swap1\n      dup2\n      mstore\n      0x20\n      add\n      0x00\n      keccak256\n      0x00\n        /* \"contracts.sol\":742:775  freelancers[_jobId] = _freelancer */\n      0x0100\n      exp\n      dup2\n      sload\n      dup2\n      0xffffffffffffffffffffffffffffffffffffffff\n      mul\n      not\n      and\n      swap1\n      dup4\n      0xffffffffffffffffffffffffffffffffffffffff\n      and\n      mul\n      or\n      swap1\n      sstore\n      pop\n        /* \"contracts.sol\":816:822  _jobId */\n      dup2\n        /* \"contracts.sol\":801:834  FundsDeposited(_jobId, msg.value) */\n      0x26679fa1f3868c950e9362f1106cf73f3318de0280e0411a3c68e4b463eadd4f\n        /* \"contracts.sol\":824:833  msg.value */\n      callvalue\n        /* \"contracts.sol\":801:834  FundsDeposited(_jobId, msg.value) */\n      mload(0x40)\n      tag_54\n      swap2\n      swap1\n      tag_22\n      jump\t// in\n    tag_54:\n      mload(0x40)\n      dup1\n      swap2\n      sub\n      swap1\n      log2\n        /* \"contracts.sol\":372:842  function createEscrow(uint256 _jobId, address payable _freelancer) external payable {... */\n      pop\n      pop\n      jump\t// out\n        /* \"#utility.yul\":88:205   */\n    tag_56:\n        /* \"#utility.yul\":197:198   */\n      0x00\n        /* \"#utility.yul\":194:195   */\n      dup1\n        /* \"#utility.yul\":187:199   */\n      revert\n        /* \"#utility.yul\":334:411   */\n    tag_58:\n        /* \"#utility.yul\":371:378   */\n      0x00\n        /* \"#utility.yul\":400:405   */\n      dup2\n        /* \"#utility.yul\":389:405   */\n      swap1\n      pop\n        /* \"#utility.yul\":334:411   */\n      swap2\n      swap1\n      pop\n      jump\t// out\n        /* \"#utility.yul\":417:539   */\n    tag_59:\n        /* \"#utility.yul\":490:514   */\n      tag_94\n        /* \"#utility.yul\":508:513   */\n      dup2\n        /* \"#utility.yul\":490:514   */\n      tag_58\n      jump\t// in\n    tag_94:\n        /* \"#utility.yul\":483:488   */\n      dup2\n        /* \"#utility.yul\":480:515   */\n      eq\n        /* \"#utility.yul\":470:533   */\n      tag_95\n      jumpi\n        /* \"#utility.yul\":529:530   */\n      0x00\n        /* \"#utility.yul\":526:527   */\n      dup1\n        /* \"#utility.yul\":519:531   */\n      revert\n        /* \"#utility.yul\":470:533   */\n    tag_95:\n        /* \"#utility.yul\":417:539   */\n      pop\n      jump\t// out\n        /* \"#utility.yul\":545:684   */\n    tag_60:\n        /* \"#utility.yul\":591:596   */\n      0x00\n        /* \"#utility.yul\":629:635   */\n      dup2\n        /* \"#utility.yul\":616:636   */\n      calldataload\n        /* \"#utility.yul\":607:636   */\n      swap1\n      pop\n        /* \"#utility.yul\":645:678   */\n      tag_97\n        /* \"#utility.yul\":672:677   */\n      dup2\n        /* \"#utility.yul\":645:678   */\n      tag_59\n      jump\t// in\n    tag_97:\n        /* \"#utility.yul\":545:684   */\n      swap3\n      swap2\n      pop\n      pop\n      jump\t// out\n        /* \"#utility.yul\":690:1019   */\n    tag_9:\n        /* \"#utility.yul\":749:755   */\n      0x00\n        /* \"#utility.yul\":798:800   */\n      0x20\n        /* \"#utility.yul\":786:795   */\n      dup3\n        /* \"#utility.yul\":777:784   */\n      dup5\n        /* \"#utility.yul\":773:796   */\n      sub\n        /* \"#utility.yul\":769:801   */\n      slt\n        /* \"#utility.yul\":766:885   */\n      iszero\n      tag_99\n      jumpi\n        /* \"#utility.yul\":804:883   */\n      tag_100\n      tag_56\n      jump\t// in\n    tag_100:\n        /* \"#utility.yul\":766:885   */\n    tag_99:\n        /* \"#utility.yul\":924:925   */\n      0x00\n        /* \"#utility.yul\":949:1002   */\n      tag_101\n        /* \"#utility.yul\":994:1001   */\n      dup5\n        /* \"#utility.yul\":985:991   */\n      dup3\n        /* \"#utility.yul\":974:983   */\n      dup6\n        /* \"#utility.yul\":970:992   */\n      add\n        /* \"#utility.yul\":949:1002   */\n      tag_60\n      jump\t// in\n    tag_101:\n        /* \"#utility.yul\":939:1002   */\n      swap2\n      pop\n        /* \"#utility.yul\":895:1012   */\n      pop\n        /* \"#utility.yul\":690:1019   */\n      swap3\n      swap2\n      pop\n      pop\n      jump\t// out\n        /* \"#utility.yul\":1025:1151   */\n    tag_61:\n        /* \"#utility.yul\":1062:1069   */\n      0x00\n        /* \"#utility.yul\":1102:1144   */\n      0xffffffffffffffffffffffffffffffffffffffff\n        /* \"#utility.yul\":1095:1100   */\n      dup3\n        /* \"#utility.yul\":1091:1145   */\n      and\n        /* \"#utility.yul\":1080:1145   */\n      swap1\n      pop\n        /* \"#utility.yul\":1025:1151   */\n      swap2\n      swap1\n      pop\n      jump\t// out\n        /* \"#utility.yul\":1157:1261   */\n    tag_62:\n        /* \"#utility.yul\":1202:1209   */\n      0x00\n        /* \"#utility.yul\":1231:1255   */\n      tag_104\n        /* \"#utility.yul\":1249:1254   */\n      dup3\n        /* \"#utility.yul\":1231:1255   */\n      tag_61\n      jump\t// in\n    tag_104:\n        /* \"#utility.yul\":1220:1255   */\n      swap1\n      pop\n        /* \"#utility.yul\":1157:1261   */\n      swap2\n      swap1\n      pop\n      jump\t// out\n        /* \"#utility.yul\":1267:1409   */\n    tag_63:\n        /* \"#utility.yul\":1370:1402   */\n      tag_106\n        /* \"#utility.yul\":1396:1401   */\n      dup2\n        /* \"#utility.yul\":1370:1402   */\n      tag_62\n      jump\t// in\n    tag_106:\n        /* \"#utility.yul\":1365:1368   */\n      dup3\n        /* \"#utility.yul\":1358:1403   */\n      mstore\n        /* \"#utility.yul\":1267:1409   */\n      pop\n      pop\n      jump\t// out\n        /* \"#utility.yul\":1415:1669   */\n    tag_12:\n        /* \"#utility.yul\":1524:1528   */\n      0x00\n        /* \"#utility.yul\":1562:1564   */\n      0x20\n        /* \"#utility.yul\":1551:1560   */\n      dup3\n        /* \"#utility.yul\":1547:1565   */\n      add\n        /* \"#utility.yul\":1539:1565   */\n      swap1\n      pop\n        /* \"#utility.yul\":1575:1662   */\n      tag_108\n        /* \"#utility.yul\":1659:1660   */\n      0x00\n        /* \"#utility.yul\":1648:1657   */\n      dup4\n        /* \"#utility.yul\":1644:1661   */\n      add\n        /* \"#utility.yul\":1635:1641   */\n      dup5\n        /* \"#utility.yul\":1575:1662   */\n      tag_63\n      jump\t// in\n    tag_108:\n        /* \"#utility.yul\":1415:1669   */\n      swap3\n      swap2\n      pop\n      pop\n      jump\t// out\n        /* \"#utility.yul\":1675:1793   */\n    tag_64:\n        /* \"#utility.yul\":1762:1786   */\n      tag_110\n        /* \"#utility.yul\":1780:1785   */\n      dup2\n        /* \"#utility.yul\":1762:1786   */\n      tag_58\n      jump\t// in\n    tag_110:\n        /* \"#utility.yul\":1757:1760   */\n      dup3\n        /* \"#utility.yul\":1750:1787   */\n      mstore\n        /* \"#utility.yul\":1675:1793   */\n      pop\n      pop\n      jump\t// out\n        /* \"#utility.yul\":1799:2021   */\n    tag_22:\n        /* \"#utility.yul\":1892:1896   */\n      0x00\n        /* \"#utility.yul\":1930:1932   */\n      0x20\n        /* \"#utility.yul\":1919:1928   */\n      dup3\n        /* \"#utility.yul\":1915:1933   */\n      add\n        /* \"#utility.yul\":1907:1933   */\n      swap1\n      pop\n        /* \"#utility.yul\":1943:2014   */\n      tag_112\n        /* \"#utility.yul\":2011:2012   */\n      0x00\n        /* \"#utility.yul\":2000:2009   */\n      dup4\n        /* \"#utility.yul\":1996:2013   */\n      add\n        /* \"#utility.yul\":1987:1993   */\n      dup5\n        /* \"#utility.yul\":1943:2014   */\n      tag_64\n      jump\t// in\n    tag_112:\n        /* \"#utility.yul\":1799:2021   */\n      swap3\n      swap2\n      pop\n      pop\n      jump\t// out\n        /* \"#utility.yul\":2027:2165   */\n    tag_65:\n        /* \"#utility.yul\":2108:2140   */\n      tag_114\n        /* \"#utility.yul\":2134:2139   */\n      dup2\n        /* \"#utility.yul\":2108:2140   */\n      tag_62\n      jump\t// in\n    tag_114:\n        /* \"#utility.yul\":2101:2106   */\n      dup2\n        /* \"#utility.yul\":2098:2141   */\n      eq\n        /* \"#utility.yul\":2088:2159   */\n      tag_115\n      jumpi\n        /* \"#utility.yul\":2155:2156   */\n      0x00\n        /* \"#utility.yul\":2152:2153   */\n      dup1\n        /* \"#utility.yul\":2145:2157   */\n      revert\n        /* \"#utility.yul\":2088:2159   */\n    tag_115:\n        /* \"#utility.yul\":2027:2165   */\n      pop\n      jump\t// out\n        /* \"#utility.yul\":2171:2326   */\n    tag_66:\n        /* \"#utility.yul\":2225:2230   */\n      0x00\n        /* \"#utility.yul\":2263:2269   */\n      dup2\n        /* \"#utility.yul\":2250:2270   */\n      calldataload\n        /* \"#utility.yul\":2241:2270   */\n      swap1\n      pop\n        /* \"#utility.yul\":2279:2320   */\n      tag_117\n        /* \"#utility.yul\":2314:2319   */\n      dup2\n        /* \"#utility.yul\":2279:2320   */\n      tag_65\n      jump\t// in\n    tag_117:\n        /* \"#utility.yul\":2171:2326   */\n      swap3\n      swap2\n      pop\n      pop\n      jump\t// out\n        /* \"#utility.yul\":2332:2822   */\n    tag_25:\n        /* \"#utility.yul\":2408:2414   */\n      0x00\n        /* \"#utility.yul\":2416:2422   */\n      dup1\n        /* \"#utility.yul\":2465:2467   */\n      0x40\n        /* \"#utility.yul\":2453:2462   */\n      dup4\n        /* \"#utility.yul\":2444:2451   */\n      dup6\n        /* \"#utility.yul\":2440:2463   */\n      sub\n        /* \"#utility.yul\":2436:2468   */\n      slt\n        /* \"#utility.yul\":2433:2552   */\n      iszero\n      tag_119\n      jumpi\n        /* \"#utility.yul\":2471:2550   */\n      tag_120\n      tag_56\n      jump\t// in\n    tag_120:\n        /* \"#utility.yul\":2433:2552   */\n    tag_119:\n        /* \"#utility.yul\":2591:2592   */\n      0x00\n        /* \"#utility.yul\":2616:2669   */\n      tag_121\n        /* \"#utility.yul\":2661:2668   */\n      dup6\n        /* \"#utility.yul\":2652:2658   */\n      dup3\n        /* \"#utility.yul\":2641:2650   */\n      dup7\n        /* \"#utility.yul\":2637:2659   */\n      add\n        /* \"#utility.yul\":2616:2669   */\n      tag_60\n      jump\t// in\n    tag_121:\n        /* \"#utility.yul\":2606:2669   */\n      swap3\n      pop\n        /* \"#utility.yul\":2562:2679   */\n      pop\n        /* \"#utility.yul\":2718:2720   */\n      0x20\n        /* \"#utility.yul\":2744:2805   */\n      tag_122\n        /* \"#utility.yul\":2797:2804   */\n      dup6\n        /* \"#utility.yul\":2788:2794   */\n      dup3\n        /* \"#utility.yul\":2777:2786   */\n      dup7\n        /* \"#utility.yul\":2773:2795   */\n      add\n        /* \"#utility.yul\":2744:2805   */\n      tag_66\n      jump\t// in\n    tag_122:\n        /* \"#utility.yul\":2734:2805   */\n      swap2\n      pop\n        /* \"#utility.yul\":2689:2815   */\n      pop\n        /* \"#utility.yul\":2332:2822   */\n      swap3\n      pop\n      swap3\n      swap1\n      pop\n      jump\t// out\n        /* \"#utility.yul\":2828:2997   */\n    tag_67:\n        /* \"#utility.yul\":2912:2923   */\n      0x00\n        /* \"#utility.yul\":2946:2952   */\n      dup3\n        /* \"#utility.yul\":2941:2944   */\n      dup3\n        /* \"#utility.yul\":2934:2953   */\n      mstore\n        /* \"#utility.yul\":2986:2990   */\n      0x20\n        /* \"#utility.yul\":2981:2984   */\n      dup3\n        /* \"#utility.yul\":2977:2991   */\n      add\n        /* \"#utility.yul\":2962:2991   */\n      swap1\n      pop\n        /* \"#utility.yul\":2828:2997   */\n      swap3\n      swap2\n      pop\n      pop\n      jump\t// out\n        /* \"#utility.yul\":3003:3184   */\n    tag_68:\n        /* \"#utility.yul\":3143:3176   */\n      0x4e6f2066756e647320696e20657363726f7720666f722074686973206a6f6200\n        /* \"#utility.yul\":3139:3140   */\n      0x00\n        /* \"#utility.yul\":3131:3137   */\n      dup3\n        /* \"#utility.yul\":3127:3141   */\n      add\n        /* \"#utility.yul\":3120:3177   */\n      mstore\n        /* \"#utility.yul\":3003:3184   */\n      pop\n      jump\t// out\n        /* \"#utility.yul\":3190:3556   */\n    tag_69:\n        /* \"#utility.yul\":3332:3335   */\n      0x00\n        /* \"#utility.yul\":3353:3420   */\n      tag_126\n        /* \"#utility.yul\":3417:3419   */\n      0x1f\n        /* \"#utility.yul\":3412:3415   */\n      dup4\n        /* \"#utility.yul\":3353:3420   */\n      tag_67\n      jump\t// in\n    tag_126:\n        /* \"#utility.yul\":3346:3420   */\n      swap2\n      pop\n        /* \"#utility.yul\":3429:3522   */\n      tag_127\n        /* \"#utility.yul\":3518:3521   */\n      dup3\n        /* \"#utility.yul\":3429:3522   */\n      tag_68\n      jump\t// in\n    tag_127:\n        /* \"#utility.yul\":3547:3549   */\n      0x20\n        /* \"#utility.yul\":3542:3545   */\n      dup3\n        /* \"#utility.yul\":3538:3550   */\n      add\n        /* \"#utility.yul\":3531:3550   */\n      swap1\n      pop\n        /* \"#utility.yul\":3190:3556   */\n      swap2\n      swap1\n      pop\n      jump\t// out\n        /* \"#utility.yul\":3562:3981   */\n    tag_30:\n        /* \"#utility.yul\":3728:3732   */\n      0x00\n        /* \"#utility.yul\":3766:3768   */\n      0x20\n        /* \"#utility.yul\":3755:3764   */\n      dup3\n        /* \"#utility.yul\":3751:3769   */\n      add\n        /* \"#utility.yul\":3743:3769   */\n      swap1\n      pop\n        /* \"#utility.yul\":3815:3824   */\n      dup2\n        /* \"#utility.yul\":3809:3813   */\n      dup2\n        /* \"#utility.yul\":3805:3825   */\n      sub\n        /* \"#utility.yul\":3801:3802   */\n      0x00\n        /* \"#utility.yul\":3790:3799   */\n      dup4\n        /* \"#utility.yul\":3786:3803   */\n      add\n        /* \"#utility.yul\":3779:3826   */\n      mstore\n        /* \"#utility.yul\":3843:3974   */\n      tag_129\n        /* \"#utility.yul\":3969:3973   */\n      dup2\n        /* \"#utility.yul\":3843:3974   */\n      tag_69\n      jump\t// in\n    tag_129:\n        /* \"#utility.yul\":3835:3974   */\n      swap1\n      pop\n        /* \"#utility.yul\":3562:3981   */\n      swap2\n      swap1\n      pop\n      jump\t// out\n        /* \"#utility.yul\":3987:4159   */\n    tag_70:\n        /* \"#utility.yul\":4127:4151   */\n      0x4e6f20667265656c616e6365722061737369676e656400000000000000000000\n        /* \"#utility.yul\":4123:4124   */\n      0x00\n        /* \"#utility.yul\":4115:4121   */\n      dup3\n        /* \"#utility.yul\":4111:4125   */\n      add\n        /* \"#utility.yul\":4104:4152   */\n      mstore\n        /* \"#utility.yul\":3987:4159   */\n      pop\n      jump\t// out\n        /* \"#utility.yul\":4165:4531   */\n    tag_71:\n        /* \"#utility.yul\":4307:4310   */\n      0x00\n        /* \"#utility.yul\":4328:4395   */\n      tag_132\n        /* \"#utility.yul\":4392:4394   */\n      0x16\n        /* \"#utility.yul\":4387:4390   */\n      dup4\n        /* \"#utility.yul\":4328:4395   */\n      tag_67\n      jump\t// in\n    tag_132:\n        /* \"#utility.yul\":4321:4395   */\n      swap2\n      pop\n        /* \"#utility.yul\":4404:4497   */\n      tag_133\n        /* \"#utility.yul\":4493:4496   */\n      dup3\n        /* \"#utility.yul\":4404:4497   */\n      tag_70\n      jump\t// in\n    tag_133:\n        /* \"#utility.yul\":4522:4524   */\n      0x20\n        /* \"#utility.yul\":4517:4520   */\n      dup3\n        /* \"#utility.yul\":4513:4525   */\n      add\n        /* \"#utility.yul\":4506:4525   */\n      swap1\n      pop\n        /* \"#utility.yul\":4165:4531   */\n      swap2\n      swap1\n      pop\n      jump\t// out\n        /* \"#utility.yul\":4537:4956   */\n    tag_33:\n        /* \"#utility.yul\":4703:4707   */\n      0x00\n        /* \"#utility.yul\":4741:4743   */\n      0x20\n        /* \"#utility.yul\":4730:4739   */\n      dup3\n        /* \"#utility.yul\":4726:4744   */\n      add\n        /* \"#utility.yul\":4718:4744   */\n      swap1\n      pop\n        /* \"#utility.yul\":4790:4799   */\n      dup2\n        /* \"#utility.yul\":4784:4788   */\n      dup2\n        /* \"#utility.yul\":4780:4800   */\n      sub\n        /* \"#utility.yul\":4776:4777   */\n      0x00\n        /* \"#utility.yul\":4765:4774   */\n      dup4\n        /* \"#utility.yul\":4761:4778   */\n      add\n        /* \"#utility.yul\":4754:4801   */\n      mstore\n        /* \"#utility.yul\":4818:4949   */\n      tag_135\n        /* \"#utility.yul\":4944:4948   */\n      dup2\n        /* \"#utility.yul\":4818:4949   */\n      tag_71\n      jump\t// in\n    tag_135:\n        /* \"#utility.yul\":4810:4949   */\n      swap1\n      pop\n        /* \"#utility.yul\":4537:4956   */\n      swap2\n      swap1\n      pop\n      jump\t// out\n        /* \"#utility.yul\":4962:5109   */\n    tag_72:\n        /* \"#utility.yul\":5063:5074   */\n      0x00\n        /* \"#utility.yul\":5100:5103   */\n      dup2\n        /* \"#utility.yul\":5085:5103   */\n      swap1\n      pop\n        /* \"#utility.yul\":4962:5109   */\n      swap3\n      swap2\n      pop\n      pop\n      jump\t// out\n        /* \"#utility.yul\":5115:5229   */\n    tag_73:\n      pop\n      jump\t// out\n        /* \"#utility.yul\":5235:5633   */\n    tag_74:\n        /* \"#utility.yul\":5394:5397   */\n      0x00\n        /* \"#utility.yul\":5415:5498   */\n      tag_139\n        /* \"#utility.yul\":5496:5497   */\n      0x00\n        /* \"#utility.yul\":5491:5494   */\n      dup4\n        /* \"#utility.yul\":5415:5498   */\n      tag_72\n      jump\t// in\n    tag_139:\n        /* \"#utility.yul\":5408:5498   */\n      swap2\n      pop\n        /* \"#utility.yul\":5507:5600   */\n      tag_140\n        /* \"#utility.yul\":5596:5599   */\n      dup3\n        /* \"#utility.yul\":5507:5600   */\n      tag_73\n      jump\t// in\n    tag_140:\n        /* \"#utility.yul\":5625:5626   */\n      0x00\n        /* \"#utility.yul\":5620:5623   */\n      dup3\n        /* \"#utility.yul\":5616:5627   */\n      add\n        /* \"#utility.yul\":5609:5627   */\n      swap1\n      pop\n        /* \"#utility.yul\":5235:5633   */\n      swap2\n      swap1\n      pop\n      jump\t// out\n        /* \"#utility.yul\":5639:6018   */\n    tag_35:\n        /* \"#utility.yul\":5823:5826   */\n      0x00\n        /* \"#utility.yul\":5845:5992   */\n      tag_142\n        /* \"#utility.yul\":5988:5991   */\n      dup3\n        /* \"#utility.yul\":5845:5992   */\n      tag_74\n      jump\t// in\n    tag_142:\n        /* \"#utility.yul\":5838:5992   */\n      swap2\n      pop\n        /* \"#utility.yul\":6009:6012   */\n      dup2\n        /* \"#utility.yul\":6002:6012   */\n      swap1\n      pop\n        /* \"#utility.yul\":5639:6018   */\n      swap2\n      swap1\n      pop\n      jump\t// out\n        /* \"#utility.yul\":6024:6245   */\n    tag_75:\n        /* \"#utility.yul\":6164:6198   */\n      0x4661696c656420746f2073656e642066756e647320746f20667265656c616e63\n        /* \"#utility.yul\":6160:6161   */\n      0x00\n        /* \"#utility.yul\":6152:6158   */\n      dup3\n        /* \"#utility.yul\":6148:6162   */\n      add\n        /* \"#utility.yul\":6141:6199   */\n      mstore\n        /* \"#utility.yul\":6233:6237   */\n      0x6572000000000000000000000000000000000000000000000000000000000000\n        /* \"#utility.yul\":6228:6230   */\n      0x20\n        /* \"#utility.yul\":6220:6226   */\n      dup3\n        /* \"#utility.yul\":6216:6231   */\n      add\n        /* \"#utility.yul\":6209:6238   */\n      mstore\n        /* \"#utility.yul\":6024:6245   */\n      pop\n      jump\t// out\n        /* \"#utility.yul\":6251:6617   */\n    tag_76:\n        /* \"#utility.yul\":6393:6396   */\n      0x00\n        /* \"#utility.yul\":6414:6481   */\n      tag_145\n        /* \"#utility.yul\":6478:6480   */\n      0x22\n        /* \"#utility.yul\":6473:6476   */\n      dup4\n        /* \"#utility.yul\":6414:6481   */\n      tag_67\n      jump\t// in\n    tag_145:\n        /* \"#utility.yul\":6407:6481   */\n      swap2\n      pop\n        /* \"#utility.yul\":6490:6583   */\n      tag_146\n        /* \"#utility.yul\":6579:6582   */\n      dup3\n        /* \"#utility.yul\":6490:6583   */\n      tag_75\n      jump\t// in\n    tag_146:\n        /* \"#utility.yul\":6608:6610   */\n      0x40\n        /* \"#utility.yul\":6603:6606   */\n      dup3\n        /* \"#utility.yul\":6599:6611   */\n      add\n        /* \"#utility.yul\":6592:6611   */\n      swap1\n      pop\n        /* \"#utility.yul\":6251:6617   */\n      swap2\n      swap1\n      pop\n      jump\t// out\n        /* \"#utility.yul\":6623:7042   */\n    tag_41:\n        /* \"#utility.yul\":6789:6793   */\n      0x00\n        /* \"#utility.yul\":6827:6829   */\n      0x20\n        /* \"#utility.yul\":6816:6825   */\n      dup3\n        /* \"#utility.yul\":6812:6830   */\n      add\n        /* \"#utility.yul\":6804:6830   */\n      swap1\n      pop\n        /* \"#utility.yul\":6876:6885   */\n      dup2\n        /* \"#utility.yul\":6870:6874   */\n      dup2\n        /* \"#utility.yul\":6866:6886   */\n      sub\n        /* \"#utility.yul\":6862:6863   */\n      0x00\n        /* \"#utility.yul\":6851:6860   */\n      dup4\n        /* \"#utility.yul\":6847:6864   */\n      add\n        /* \"#utility.yul\":6840:6887   */\n      mstore\n        /* \"#utility.yul\":6904:7035   */\n      tag_148\n        /* \"#utility.yul\":7030:7034   */\n      dup2\n        /* \"#utility.yul\":6904:7035   */\n      tag_76\n      jump\t// in\n    tag_148:\n        /* \"#utility.yul\":6896:7035   */\n      swap1\n      pop\n        /* \"#utility.yul\":6623:7042   */\n      swap2\n      swap1\n      pop\n      jump\t// out\n        /* \"#utility.yul\":7048:7108   */\n    tag_77:\n        /* \"#utility.yul\":7076:7079   */\n      0x00\n        /* \"#utility.yul\":7097:7102   */\n      dup2\n        /* \"#utility.yul\":7090:7102   */\n      swap1\n      pop\n        /* \"#utility.yul\":7048:7108   */\n      swap2\n      swap1\n      pop\n      jump\t// out\n        /* \"#utility.yul\":7114:7256   */\n    tag_78:\n        /* \"#utility.yul\":7164:7173   */\n      0x00\n        /* \"#utility.yul\":7197:7250   */\n      tag_151\n        /* \"#utility.yul\":7215:7249   */\n      tag_152\n        /* \"#utility.yul\":7224:7248   */\n      tag_153\n        /* \"#utility.yul\":7242:7247   */\n      dup5\n        /* \"#utility.yul\":7224:7248   */\n      tag_61\n      jump\t// in\n    tag_153:\n        /* \"#utility.yul\":7215:7249   */\n      tag_77\n      jump\t// in\n    tag_152:\n        /* \"#utility.yul\":7197:7250   */\n      tag_61\n      jump\t// in\n    tag_151:\n        /* \"#utility.yul\":7184:7250   */\n      swap1\n      pop\n        /* \"#utility.yul\":7114:7256   */\n      swap2\n      swap1\n      pop\n      jump\t// out\n        /* \"#utility.yul\":7262:7388   */\n    tag_79:\n        /* \"#utility.yul\":7312:7321   */\n      0x00\n        /* \"#utility.yul\":7345:7382   */\n      tag_155\n        /* \"#utility.yul\":7376:7381   */\n      dup3\n        /* \"#utility.yul\":7345:7382   */\n      tag_78\n      jump\t// in\n    tag_155:\n        /* \"#utility.yul\":7332:7382   */\n      swap1\n      pop\n        /* \"#utility.yul\":7262:7388   */\n      swap2\n      swap1\n      pop\n      jump\t// out\n        /* \"#utility.yul\":7394:7528   */\n    tag_80:\n        /* \"#utility.yul\":7452:7461   */\n      0x00\n        /* \"#utility.yul\":7485:7522   */\n      tag_157\n        /* \"#utility.yul\":7516:7521   */\n      dup3\n        /* \"#utility.yul\":7485:7522   */\n      tag_79\n      jump\t// in\n    tag_157:\n        /* \"#utility.yul\":7472:7522   */\n      swap1\n      pop\n        /* \"#utility.yul\":7394:7528   */\n      swap2\n      swap1\n      pop\n      jump\t// out\n        /* \"#utility.yul\":7534:7681   */\n    tag_81:\n        /* \"#utility.yul\":7629:7674   */\n      tag_159\n        /* \"#utility.yul\":7668:7673   */\n      dup2\n        /* \"#utility.yul\":7629:7674   */\n      tag_80\n      jump\t// in\n    tag_159:\n        /* \"#utility.yul\":7624:7627   */\n      dup3\n        /* \"#utility.yul\":7617:7675   */\n      mstore\n        /* \"#utility.yul\":7534:7681   */\n      pop\n      pop\n      jump\t// out\n        /* \"#utility.yul\":7687:8035   */\n    tag_43:\n        /* \"#utility.yul\":7816:7820   */\n      0x00\n        /* \"#utility.yul\":7854:7856   */\n      0x40\n        /* \"#utility.yul\":7843:7852   */\n      dup3\n        /* \"#utility.yul\":7839:7857   */\n      add\n        /* \"#utility.yul\":7831:7857   */\n      swap1\n      pop\n        /* \"#utility.yul\":7867:7938   */\n      tag_161\n        /* \"#utility.yul\":7935:7936   */\n      0x00\n        /* \"#utility.yul\":7924:7933   */\n      dup4\n        /* \"#utility.yul\":7920:7937   */\n      add\n        /* \"#utility.yul\":7911:7917   */\n      dup6\n        /* \"#utility.yul\":7867:7938   */\n      tag_64\n      jump\t// in\n    tag_161:\n        /* \"#utility.yul\":7948:8028   */\n      tag_162\n        /* \"#utility.yul\":8024:8026   */\n      0x20\n        /* \"#utility.yul\":8013:8022   */\n      dup4\n        /* \"#utility.yul\":8009:8027   */\n      add\n        /* \"#utility.yul\":8000:8006   */\n      dup5\n        /* \"#utility.yul\":7948:8028   */\n      tag_81\n      jump\t// in\n    tag_162:\n        /* \"#utility.yul\":7687:8035   */\n      swap4\n      swap3\n      pop\n      pop\n      pop\n      jump\t// out\n        /* \"#utility.yul\":8041:8216   */\n    tag_82:\n        /* \"#utility.yul\":8181:8208   */\n      0x4d7573742073656e642066756e647320746f20657363726f7700000000000000\n        /* \"#utility.yul\":8177:8178   */\n      0x00\n        /* \"#utility.yul\":8169:8175   */\n      dup3\n        /* \"#utility.yul\":8165:8179   */\n      add\n        /* \"#utility.yul\":8158:8209   */\n      mstore\n        /* \"#utility.yul\":8041:8216   */\n      pop\n      jump\t// out\n        /* \"#utility.yul\":8222:8588   */\n    tag_83:\n        /* \"#utility.yul\":8364:8367   */\n      0x00\n        /* \"#utility.yul\":8385:8452   */\n      tag_165\n        /* \"#utility.yul\":8449:8451   */\n      0x19\n        /* \"#utility.yul\":8444:8447   */\n      dup4\n        /* \"#utility.yul\":8385:8452   */\n      tag_67\n      jump\t// in\n    tag_165:\n        /* \"#utility.yul\":8378:8452   */\n      swap2\n      pop\n        /* \"#utility.yul\":8461:8554   */\n      tag_166\n        /* \"#utility.yul\":8550:8553   */\n      dup3\n        /* \"#utility.yul\":8461:8554   */\n      tag_82\n      jump\t// in\n    tag_166:\n        /* \"#utility.yul\":8579:8581   */\n      0x20\n        /* \"#utility.yul\":8574:8577   */\n      dup3\n        /* \"#utility.yul\":8570:8582   */\n      add\n        /* \"#utility.yul\":8563:8582   */\n      swap1\n      pop\n        /* \"#utility.yul\":8222:8588   */\n      swap2\n      swap1\n      pop\n      jump\t// out\n        /* \"#utility.yul\":8594:9013   */\n    tag_47:\n        /* \"#utility.yul\":8760:8764   */\n      0x00\n        /* \"#utility.yul\":8798:8800   */\n      0x20\n        /* \"#utility.yul\":8787:8796   */\n      dup3\n        /* \"#utility.yul\":8783:8801   */\n      add\n        /* \"#utility.yul\":8775:8801   */\n      swap1\n      pop\n        /* \"#utility.yul\":8847:8856   */\n      dup2\n        /* \"#utility.yul\":8841:8845   */\n      dup2\n        /* \"#utility.yul\":8837:8857   */\n      sub\n        /* \"#utility.yul\":8833:8834   */\n      0x00\n        /* \"#utility.yul\":8822:8831   */\n      dup4\n        /* \"#utility.yul\":8818:8835   */\n      add\n        /* \"#utility.yul\":8811:8858   */\n      mstore\n        /* \"#utility.yul\":8875:9006   */\n      tag_168\n        /* \"#utility.yul\":9001:9005   */\n      dup2\n        /* \"#utility.yul\":8875:9006   */\n      tag_83\n      jump\t// in\n    tag_168:\n        /* \"#utility.yul\":8867:9006   */\n      swap1\n      pop\n        /* \"#utility.yul\":8594:9013   */\n      swap2\n      swap1\n      pop\n      jump\t// out\n        /* \"#utility.yul\":9019:9240   */\n    tag_84:\n        /* \"#utility.yul\":9159:9193   */\n      0x457363726f7720616c72656164792065786973747320666f722074686973206a\n        /* \"#utility.yul\":9155:9156   */\n      0x00\n        /* \"#utility.yul\":9147:9153   */\n      dup3\n        /* \"#utility.yul\":9143:9157   */\n      add\n        /* \"#utility.yul\":9136:9194   */\n      mstore\n        /* \"#utility.yul\":9228:9232   */\n      0x6f62000000000000000000000000000000000000000000000000000000000000\n        /* \"#utility.yul\":9223:9225   */\n      0x20\n        /* \"#utility.yul\":9215:9221   */\n      dup3\n        /* \"#utility.yul\":9211:9226   */\n      add\n        /* \"#utility.yul\":9204:9233   */\n      mstore\n        /* \"#utility.yul\":9019:9240   */\n      pop\n      jump\t// out\n        /* \"#utility.yul\":9246:9612   */\n    tag_85:\n        /* \"#utility.yul\":9388:9391   */\n      0x00\n        /* \"#utility.yul\":9409:9476   */\n      tag_171\n        /* \"#utility.yul\":9473:9475   */\n      0x22\n        /* \"#utility.yul\":9468:9471   */\n      dup4\n        /* \"#utility.yul\":9409:9476   */\n      tag_67\n      jump\t// in\n    tag_171:\n        /* \"#utility.yul\":9402:9476   */\n      swap2\n      pop\n        /* \"#utility.yul\":9485:9578   */\n      tag_172\n        /* \"#utility.yul\":9574:9577   */\n      dup3\n        /* \"#utility.yul\":9485:9578   */\n      tag_84\n      jump\t// in\n    tag_172:\n        /* \"#utility.yul\":9603:9605   */\n      0x40\n        /* \"#utility.yul\":9598:9601   */\n      dup3\n        /* \"#utility.yul\":9594:9606   */\n      add\n        /* \"#utility.yul\":9587:9606   */\n      swap1\n      pop\n        /* \"#utility.yul\":9246:9612   */\n      swap2\n      swap1\n      pop\n      jump\t// out\n        /* \"#utility.yul\":9618:10037   */\n    tag_50:\n        /* \"#utility.yul\":9784:9788   */\n      0x00\n        /* \"#utility.yul\":9822:9824   */\n      0x20\n        /* \"#utility.yul\":9811:9820   */\n      dup3\n        /* \"#utility.yul\":9807:9825   */\n      add\n        /* \"#utility.yul\":9799:9825   */\n      swap1\n      pop\n        /* \"#utility.yul\":9871:9880   */\n      dup2\n        /* \"#utility.yul\":9865:9869   */\n      dup2\n        /* \"#utility.yul\":9861:9881   */\n      sub\n        /* \"#utility.yul\":9857:9858   */\n      0x00\n        /* \"#utility.yul\":9846:9855   */\n      dup4\n        /* \"#utility.yul\":9842:9859   */\n      add\n        /* \"#utility.yul\":9835:9882   */\n      mstore\n        /* \"#utility.yul\":9899:10030   */\n      tag_174\n        /* \"#utility.yul\":10025:10029   */\n      dup2\n        /* \"#utility.yul\":9899:10030   */\n      tag_85\n      jump\t// in\n    tag_174:\n        /* \"#utility.yul\":9891:10030   */\n      swap1\n      pop\n        /* \"#utility.yul\":9618:10037   */\n      swap2\n      swap1\n      pop\n      jump\t// out\n        /* \"#utility.yul\":10043:10219   */\n    tag_86:\n        /* \"#utility.yul\":10183:10211   */\n      0x496e76616c696420667265656c616e6365722061646472657373000000000000\n        /* \"#utility.yul\":10179:10180   */\n      0x00\n        /* \"#utility.yul\":10171:10177   */\n      dup3\n        /* \"#utility.yul\":10167:10181   */\n      add\n        /* \"#utility.yul\":10160:10212   */\n      mstore\n        /* \"#utility.yul\":10043:10219   */\n      pop\n      jump\t// out\n        /* \"#utility.yul\":10225:10591   */\n    tag_87:\n        /* \"#utility.yul\":10367:10370   */\n      0x00\n        /* \"#utility.yul\":10388:10455   */\n      tag_177\n        /* \"#utility.yul\":10452:10454   */\n      0x1a\n        /* \"#utility.yul\":10447:10450   */\n      dup4\n        /* \"#utility.yul\":10388:10455   */\n      tag_67\n      jump\t// in\n    tag_177:\n        /* \"#utility.yul\":10381:10455   */\n      swap2\n      pop\n        /* \"#utility.yul\":10464:10557   */\n      tag_178\n        /* \"#utility.yul\":10553:10556   */\n      dup3\n        /* \"#utility.yul\":10464:10557   */\n      tag_86\n      jump\t// in\n    tag_178:\n        /* \"#utility.yul\":10582:10584   */\n      0x20\n        /* \"#utility.yul\":10577:10580   */\n      dup3\n        /* \"#utility.yul\":10573:10585   */\n      add\n        /* \"#utility.yul\":10566:10585   */\n      swap1\n      pop\n        /* \"#utility.yul\":10225:10591   */\n      swap2\n      swap1\n      pop\n      jump\t// out\n        /* \"#utility.yul\":10597:11016   */\n    tag_53:\n        /* \"#utility.yul\":10763:10767   */\n      0x00\n        /* \"#utility.yul\":10801:10803   */\n      0x20\n        /* \"#utility.yul\":10790:10799   */\n      dup3\n        /* \"#utility.yul\":10786:10804   */\n      add\n        /* \"#utility.yul\":10778:10804   */\n      swap1\n      pop\n        /* \"#utility.yul\":10850:10859   */\n      dup2\n        /* \"#utility.yul\":10844:10848   */\n      dup2\n        /* \"#utility.yul\":10840:10860   */\n      sub\n        /* \"#utility.yul\":10836:10837   */\n      0x00\n        /* \"#utility.yul\":10825:10834   */\n      dup4\n        /* \"#utility.yul\":10821:10838   */\n      add\n        /* \"#utility.yul\":10814:10861   */\n      mstore\n        /* \"#utility.yul\":10878:11009   */\n      tag_180\n        /* \"#utility.yul\":11004:11008   */\n      dup2\n        /* \"#utility.yul\":10878:11009   */\n      tag_87\n      jump\t// in\n    tag_180:\n        /* \"#utility.yul\":10870:11009   */\n      swap1\n      pop\n        /* \"#utility.yul\":10597:11016   */\n      swap2\n      swap1\n      pop\n      jump\t// out\n\n    auxdata: 0xa2646970667358221220a4fabcdb18fa8f78cc0a5696eaf3e9672c1e8cb205c5a2fa40d401ea617db08364736f6c634300081a0033\n}\n",
				"bytecode": {
					"linkReferences": {},
					"object": "6080604052348015600e575f80fd5b50610a378061001c5f395ff3fe60806040526004361061003e575f3560e01c80630b9364d8146100425780634d68282f1461007e578063b489e147146100a6578063dbcd72f0146100e2575b5f80fd5b34801561004d575f80fd5b506100686004803603810190610063919061055f565b6100fe565b60405161007591906105c9565b60405180910390f35b348015610089575f80fd5b506100a4600480360381019061009f919061055f565b61012e565b005b3480156100b1575f80fd5b506100cc60048036038101906100c7919061055f565b610372565b6040516100d991906105f1565b60405180910390f35b6100fc60048036038101906100f79190610634565b610386565b005b6001602052805f5260405f205f915054906101000a900473ffffffffffffffffffffffffffffffffffffffff1681565b5f805f8381526020019081526020015f205490505f60015f8481526020019081526020015f205f9054906101000a900473ffffffffffffffffffffffffffffffffffffffff1690505f82116101b8576040517f08c379a00000000000000000000000000000000000000000000000000000000081526004016101af906106cc565b60405180910390fd5b5f73ffffffffffffffffffffffffffffffffffffffff168173ffffffffffffffffffffffffffffffffffffffff1603610226576040517f08c379a000000000000000000000000000000000000000000000000000000000815260040161021d90610734565b60405180910390fd5b5f805f8581526020019081526020015f20819055505f60015f8581526020019081526020015f205f6101000a81548173ffffffffffffffffffffffffffffffffffffffff021916908373ffffffffffffffffffffffffffffffffffffffff1602179055505f8173ffffffffffffffffffffffffffffffffffffffff16836040516102af9061077f565b5f6040518083038185875af1925050503d805f81146102e9576040519150601f19603f3d011682016040523d82523d5f602084013e6102ee565b606091505b5050905080610332576040517f08c379a000000000000000000000000000000000000000000000000000000000815260040161032990610803565b60405180910390fd5b837f807158a396c8ce26fb6a4a44930e1b49876133ba7806dbaac491ea4713e4515e848460405161036492919061087c565b60405180910390a250505050565b5f602052805f5260405f205f915090505481565b5f34116103c8576040517f08c379a00000000000000000000000000000000000000000000000000000000081526004016103bf906108ed565b60405180910390fd5b5f805f8481526020019081526020015f20541461041a576040517f08c379a00000000000000000000000000000000000000000000000000000000081526004016104119061097b565b60405180910390fd5b5f73ffffffffffffffffffffffffffffffffffffffff168173ffffffffffffffffffffffffffffffffffffffff1603610488576040517f08c379a000000000000000000000000000000000000000000000000000000000815260040161047f906109e3565b60405180910390fd5b345f808481526020019081526020015f20819055508060015f8481526020019081526020015f205f6101000a81548173ffffffffffffffffffffffffffffffffffffffff021916908373ffffffffffffffffffffffffffffffffffffffff160217905550817f26679fa1f3868c950e9362f1106cf73f3318de0280e0411a3c68e4b463eadd4f3460405161051c91906105f1565b60405180910390a25050565b5f80fd5b5f819050919050565b61053e8161052c565b8114610548575f80fd5b50565b5f8135905061055981610535565b92915050565b5f6020828403121561057457610573610528565b5b5f6105818482850161054b565b91505092915050565b5f73ffffffffffffffffffffffffffffffffffffffff82169050919050565b5f6105b38261058a565b9050919050565b6105c3816105a9565b82525050565b5f6020820190506105dc5f8301846105ba565b92915050565b6105eb8161052c565b82525050565b5f6020820190506106045f8301846105e2565b92915050565b610613816105a9565b811461061d575f80fd5b50565b5f8135905061062e8161060a565b92915050565b5f806040838503121561064a57610649610528565b5b5f6106578582860161054b565b925050602061066885828601610620565b9150509250929050565b5f82825260208201905092915050565b7f4e6f2066756e647320696e20657363726f7720666f722074686973206a6f62005f82015250565b5f6106b6601f83610672565b91506106c182610682565b602082019050919050565b5f6020820190508181035f8301526106e3816106aa565b9050919050565b7f4e6f20667265656c616e6365722061737369676e6564000000000000000000005f82015250565b5f61071e601683610672565b9150610729826106ea565b602082019050919050565b5f6020820190508181035f83015261074b81610712565b9050919050565b5f81905092915050565b50565b5f61076a5f83610752565b91506107758261075c565b5f82019050919050565b5f6107898261075f565b9150819050919050565b7f4661696c656420746f2073656e642066756e647320746f20667265656c616e635f8201527f6572000000000000000000000000000000000000000000000000000000000000602082015250565b5f6107ed602283610672565b91506107f882610793565b604082019050919050565b5f6020820190508181035f83015261081a816107e1565b9050919050565b5f819050919050565b5f61084461083f61083a8461058a565b610821565b61058a565b9050919050565b5f6108558261082a565b9050919050565b5f6108668261084b565b9050919050565b6108768161085c565b82525050565b5f60408201905061088f5f8301856105e2565b61089c602083018461086d565b9392505050565b7f4d7573742073656e642066756e647320746f20657363726f77000000000000005f82015250565b5f6108d7601983610672565b91506108e2826108a3565b602082019050919050565b5f6020820190508181035f830152610904816108cb565b9050919050565b7f457363726f7720616c72656164792065786973747320666f722074686973206a5f8201527f6f62000000000000000000000000000000000000000000000000000000000000602082015250565b5f610965602283610672565b91506109708261090b565b604082019050919050565b5f6020820190508181035f83015261099281610959565b9050919050565b7f496e76616c696420667265656c616e63657220616464726573730000000000005f82015250565b5f6109cd601a83610672565b91506109d882610999565b602082019050919050565b5f6020820190508181035f8301526109fa816109c1565b905091905056fea2646970667358221220a4fabcdb18fa8f78cc0a5696eaf3e9672c1e8cb205c5a2fa40d401ea617db08364736f6c634300081a0033",
					"opcodes": "PUSH1 0x80 PUSH1 0x40 MSTORE CALLVALUE DUP1 ISZERO PUSH1 0xE JUMPI PUSH0 DUP1 REVERT JUMPDEST POP PUSH2 0xA37 DUP1 PUSH2 0x1C PUSH0 CODECOPY PUSH0 RETURN INVALID PUSH1 0x80 PUSH1 0x40 MSTORE PUSH1 0x4 CALLDATASIZE LT PUSH2 0x3E JUMPI PUSH0 CALLDATALOAD PUSH1 0xE0 SHR DUP1 PUSH4 0xB9364D8 EQ PUSH2 0x42 JUMPI DUP1 PUSH4 0x4D68282F EQ PUSH2 0x7E JUMPI DUP1 PUSH4 0xB489E147 EQ PUSH2 0xA6 JUMPI DUP1 PUSH4 0xDBCD72F0 EQ PUSH2 0xE2 JUMPI JUMPDEST PUSH0 DUP1 REVERT JUMPDEST CALLVALUE DUP1 ISZERO PUSH2 0x4D JUMPI PUSH0 DUP1 REVERT JUMPDEST POP PUSH2 0x68 PUSH1 0x4 DUP1 CALLDATASIZE SUB DUP2 ADD SWAP1 PUSH2 0x63 SWAP2 SWAP1 PUSH2 0x55F JUMP JUMPDEST PUSH2 0xFE JUMP JUMPDEST PUSH1 0x40 MLOAD PUSH2 0x75 SWAP2 SWAP1 PUSH2 0x5C9 JUMP JUMPDEST PUSH1 0x40 MLOAD DUP1 SWAP2 SUB SWAP1 RETURN JUMPDEST CALLVALUE DUP1 ISZERO PUSH2 0x89 JUMPI PUSH0 DUP1 REVERT JUMPDEST POP PUSH2 0xA4 PUSH1 0x4 DUP1 CALLDATASIZE SUB DUP2 ADD SWAP1 PUSH2 0x9F SWAP2 SWAP1 PUSH2 0x55F JUMP JUMPDEST PUSH2 0x12E JUMP JUMPDEST STOP JUMPDEST CALLVALUE DUP1 ISZERO PUSH2 0xB1 JUMPI PUSH0 DUP1 REVERT JUMPDEST POP PUSH2 0xCC PUSH1 0x4 DUP1 CALLDATASIZE SUB DUP2 ADD SWAP1 PUSH2 0xC7 SWAP2 SWAP1 PUSH2 0x55F JUMP JUMPDEST PUSH2 0x372 JUMP JUMPDEST PUSH1 0x40 MLOAD PUSH2 0xD9 SWAP2 SWAP1 PUSH2 0x5F1 JUMP JUMPDEST PUSH1 0x40 MLOAD DUP1 SWAP2 SUB SWAP1 RETURN JUMPDEST PUSH2 0xFC PUSH1 0x4 DUP1 CALLDATASIZE SUB DUP2 ADD SWAP1 PUSH2 0xF7 SWAP2 SWAP1 PUSH2 0x634 JUMP JUMPDEST PUSH2 0x386 JUMP JUMPDEST STOP JUMPDEST PUSH1 0x1 PUSH1 0x20 MSTORE DUP1 PUSH0 MSTORE PUSH1 0x40 PUSH0 KECCAK256 PUSH0 SWAP2 POP SLOAD SWAP1 PUSH2 0x100 EXP SWAP1 DIV PUSH20 0xFFFFFFFFFFFFFFFFFFFFFFFFFFFFFFFFFFFFFFFF AND DUP2 JUMP JUMPDEST PUSH0 DUP1 PUSH0 DUP4 DUP2 MSTORE PUSH1 0x20 ADD SWAP1 DUP2 MSTORE PUSH1 0x20 ADD PUSH0 KECCAK256 SLOAD SWAP1 POP PUSH0 PUSH1 0x1 PUSH0 DUP5 DUP2 MSTORE PUSH1 0x20 ADD SWAP1 DUP2 MSTORE PUSH1 0x20 ADD PUSH0 KECCAK256 PUSH0 SWAP1 SLOAD SWAP1 PUSH2 0x100 EXP SWAP1 DIV PUSH20 0xFFFFFFFFFFFFFFFFFFFFFFFFFFFFFFFFFFFFFFFF AND SWAP1 POP PUSH0 DUP3 GT PUSH2 0x1B8 JUMPI PUSH1 0x40 MLOAD PUSH32 0x8C379A000000000000000000000000000000000000000000000000000000000 DUP2 MSTORE PUSH1 0x4 ADD PUSH2 0x1AF SWAP1 PUSH2 0x6CC JUMP JUMPDEST PUSH1 0x40 MLOAD DUP1 SWAP2 SUB SWAP1 REVERT JUMPDEST PUSH0 PUSH20 0xFFFFFFFFFFFFFFFFFFFFFFFFFFFFFFFFFFFFFFFF AND DUP2 PUSH20 0xFFFFFFFFFFFFFFFFFFFFFFFFFFFFFFFFFFFFFFFF AND SUB PUSH2 0x226 JUMPI PUSH1 0x40 MLOAD PUSH32 0x8C379A000000000000000000000000000000000000000000000000000000000 DUP2 MSTORE PUSH1 0x4 ADD PUSH2 0x21D SWAP1 PUSH2 0x734 JUMP JUMPDEST PUSH1 0x40 MLOAD DUP1 SWAP2 SUB SWAP1 REVERT JUMPDEST PUSH0 DUP1 PUSH0 DUP6 DUP2 MSTORE PUSH1 0x20 ADD SWAP1 DUP2 MSTORE PUSH1 0x20 ADD PUSH0 KECCAK256 DUP2 SWAP1 SSTORE POP PUSH0 PUSH1 0x1 PUSH0 DUP6 DUP2 MSTORE PUSH1 0x20 ADD SWAP1 DUP2 MSTORE PUSH1 0x20 ADD PUSH0 KECCAK256 PUSH0 PUSH2 0x100 EXP DUP2 SLOAD DUP2 PUSH20 0xFFFFFFFFFFFFFFFFFFFFFFFFFFFFFFFFFFFFFFFF MUL NOT AND SWAP1 DUP4 PUSH20 0xFFFFFFFFFFFFFFFFFFFFFFFFFFFFFFFFFFFFFFFF AND MUL OR SWAP1 SSTORE POP PUSH0 DUP2 PUSH20 0xFFFFFFFFFFFFFFFFFFFFFFFFFFFFFFFFFFFFFFFF AND DUP4 PUSH1 0x40 MLOAD PUSH2 0x2AF SWAP1 PUSH2 0x77F JUMP JUMPDEST PUSH0 PUSH1 0x40 MLOAD DUP1 DUP4 SUB DUP2 DUP6 DUP8 GAS CALL SWAP3 POP POP POP RETURNDATASIZE DUP1 PUSH0 DUP2 EQ PUSH2 0x2E9 JUMPI PUSH1 0x40 MLOAD SWAP2 POP PUSH1 0x1F NOT PUSH1 0x3F RETURNDATASIZE ADD AND DUP3 ADD PUSH1 0x40 MSTORE RETURNDATASIZE DUP3 MSTORE RETURNDATASIZE PUSH0 PUSH1 0x20 DUP5 ADD RETURNDATACOPY PUSH2 0x2EE JUMP JUMPDEST PUSH1 0x60 SWAP2 POP JUMPDEST POP POP SWAP1 POP DUP1 PUSH2 0x332 JUMPI PUSH1 0x40 MLOAD PUSH32 0x8C379A000000000000000000000000000000000000000000000000000000000 DUP2 MSTORE PUSH1 0x4 ADD PUSH2 0x329 SWAP1 PUSH2 0x803 JUMP JUMPDEST PUSH1 0x40 MLOAD DUP1 SWAP2 SUB SWAP1 REVERT JUMPDEST DUP4 PUSH32 0x807158A396C8CE26FB6A4A44930E1B49876133BA7806DBAAC491EA4713E4515E DUP5 DUP5 PUSH1 0x40 MLOAD PUSH2 0x364 SWAP3 SWAP2 SWAP1 PUSH2 0x87C JUMP JUMPDEST PUSH1 0x40 MLOAD DUP1 SWAP2 SUB SWAP1 LOG2 POP POP POP POP JUMP JUMPDEST PUSH0 PUSH1 0x20 MSTORE DUP1 PUSH0 MSTORE PUSH1 0x40 PUSH0 KECCAK256 PUSH0 SWAP2 POP SWAP1 POP SLOAD DUP2 JUMP JUMPDEST PUSH0 CALLVALUE GT PUSH2 0x3C8 JUMPI PUSH1 0x40 MLOAD PUSH32 0x8C379A000000000000000000000000000000000000000000000000000000000 DUP2 MSTORE PUSH1 0x4 ADD PUSH2 0x3BF SWAP1 PUSH2 0x8ED JUMP JUMPDEST PUSH1 0x40 MLOAD DUP1 SWAP2 SUB SWAP1 REVERT JUMPDEST PUSH0 DUP1 PUSH0 DUP5 DUP2 MSTORE PUSH1 0x20 ADD SWAP1 DUP2 MSTORE PUSH1 0x20 ADD PUSH0 KECCAK256 SLOAD EQ PUSH2 0x41A JUMPI PUSH1 0x40 MLOAD PUSH32 0x8C379A000000000000000000000000000000000000000000000000000000000 DUP2 MSTORE PUSH1 0x4 ADD PUSH2 0x411 SWAP1 PUSH2 0x97B JUMP JUMPDEST PUSH1 0x40 MLOAD DUP1 SWAP2 SUB SWAP1 REVERT JUMPDEST PUSH0 PUSH20 0xFFFFFFFFFFFFFFFFFFFFFFFFFFFFFFFFFFFFFFFF AND DUP2 PUSH20 0xFFFFFFFFFFFFFFFFFFFFFFFFFFFFFFFFFFFFFFFF AND SUB PUSH2 0x488 JUMPI PUSH1 0x40 MLOAD PUSH32 0x8C379A000000000000000000000000000000000000000000000000000000000 DUP2 MSTORE PUSH1 0x4 ADD PUSH2 0x47F SWAP1 PUSH2 0x9E3 JUMP JUMPDEST PUSH1 0x40 MLOAD DUP1 SWAP2 SUB SWAP1 REVERT JUMPDEST CALLVALUE PUSH0 DUP1 DUP5 DUP2 MSTORE PUSH1 0x20 ADD SWAP1 DUP2 MSTORE PUSH1 0x20 ADD PUSH0 KECCAK256 DUP2 SWAP1 SSTORE POP DUP1 PUSH1 0x1 PUSH0 DUP5 DUP2 MSTORE PUSH1 0x20 ADD SWAP1 DUP2 MSTORE PUSH1 0x20 ADD PUSH0 KECCAK256 PUSH0 PUSH2 0x100 EXP DUP2 SLOAD DUP2 PUSH20 0xFFFFFFFFFFFFFFFFFFFFFFFFFFFFFFFFFFFFFFFF MUL NOT AND SWAP1 DUP4 PUSH20 0xFFFFFFFFFFFFFFFFFFFFFFFFFFFFFFFFFFFFFFFF AND MUL OR SWAP1 SSTORE POP DUP2 PUSH32 0x26679FA1F3868C950E9362F1106CF73F3318DE0280E0411A3C68E4B463EADD4F CALLVALUE PUSH1 0x40 MLOAD PUSH2 0x51C SWAP2 SWAP1 PUSH2 0x5F1 JUMP JUMPDEST PUSH1 0x40 MLOAD DUP1 SWAP2 SUB SWAP1 LOG2 POP POP JUMP JUMPDEST PUSH0 DUP1 REVERT JUMPDEST PUSH0 DUP2 SWAP1 POP SWAP2 SWAP1 POP JUMP JUMPDEST PUSH2 0x53E DUP2 PUSH2 0x52C JUMP JUMPDEST DUP2 EQ PUSH2 0x548 JUMPI PUSH0 DUP1 REVERT JUMPDEST POP JUMP JUMPDEST PUSH0 DUP2 CALLDATALOAD SWAP1 POP PUSH2 0x559 DUP2 PUSH2 0x535 JUMP JUMPDEST SWAP3 SWAP2 POP POP JUMP JUMPDEST PUSH0 PUSH1 0x20 DUP3 DUP5 SUB SLT ISZERO PUSH2 0x574 JUMPI PUSH2 0x573 PUSH2 0x528 JUMP JUMPDEST JUMPDEST PUSH0 PUSH2 0x581 DUP5 DUP3 DUP6 ADD PUSH2 0x54B JUMP JUMPDEST SWAP2 POP POP SWAP3 SWAP2 POP POP JUMP JUMPDEST PUSH0 PUSH20 0xFFFFFFFFFFFFFFFFFFFFFFFFFFFFFFFFFFFFFFFF DUP3 AND SWAP1 POP SWAP2 SWAP1 POP JUMP JUMPDEST PUSH0 PUSH2 0x5B3 DUP3 PUSH2 0x58A JUMP JUMPDEST SWAP1 POP SWAP2 SWAP1 POP JUMP JUMPDEST PUSH2 0x5C3 DUP2 PUSH2 0x5A9 JUMP JUMPDEST DUP3 MSTORE POP POP JUMP JUMPDEST PUSH0 PUSH1 0x20 DUP3 ADD SWAP1 POP PUSH2 0x5DC PUSH0 DUP4 ADD DUP5 PUSH2 0x5BA JUMP JUMPDEST SWAP3 SWAP2 POP POP JUMP JUMPDEST PUSH2 0x5EB DUP2 PUSH2 0x52C JUMP JUMPDEST DUP3 MSTORE POP POP JUMP JUMPDEST PUSH0 PUSH1 0x20 DUP3 ADD SWAP1 POP PUSH2 0x604 PUSH0 DUP4 ADD DUP5 PUSH2 0x5E2 JUMP JUMPDEST SWAP3 SWAP2 POP POP JUMP JUMPDEST PUSH2 0x613 DUP2 PUSH2 0x5A9 JUMP JUMPDEST DUP2 EQ PUSH2 0x61D JUMPI PUSH0 DUP1 REVERT JUMPDEST POP JUMP JUMPDEST PUSH0 DUP2 CALLDATALOAD SWAP1 POP PUSH2 0x62E DUP2 PUSH2 0x60A JUMP JUMPDEST SWAP3 SWAP2 POP POP JUMP JUMPDEST PUSH0 DUP1 PUSH1 0x40 DUP4 DUP6 SUB SLT ISZERO PUSH2 0x64A JUMPI PUSH2 0x649 PUSH2 0x528 JUMP JUMPDEST JUMPDEST PUSH0 PUSH2 0x657 DUP6 DUP3 DUP7 ADD PUSH2 0x54B JUMP JUMPDEST SWAP3 POP POP PUSH1 0x20 PUSH2 0x668 DUP6 DUP3 DUP7 ADD PUSH2 0x620 JUMP JUMPDEST SWAP2 POP POP SWAP3 POP SWAP3 SWAP1 POP JUMP JUMPDEST PUSH0 DUP3 DUP3 MSTORE PUSH1 0x20 DUP3 ADD SWAP1 POP SWAP3 SWAP2 POP POP JUMP JUMPDEST PUSH32 0x4E6F2066756E647320696E20657363726F7720666F722074686973206A6F6200 PUSH0 DUP3 ADD MSTORE POP JUMP JUMPDEST PUSH0 PUSH2 0x6B6 PUSH1 0x1F DUP4 PUSH2 0x672 JUMP JUMPDEST SWAP2 POP PUSH2 0x6C1 DUP3 PUSH2 0x682 JUMP JUMPDEST PUSH1 0x20 DUP3 ADD SWAP1 POP SWAP2 SWAP1 POP JUMP JUMPDEST PUSH0 PUSH1 0x20 DUP3 ADD SWAP1 POP DUP2 DUP2 SUB PUSH0 DUP4 ADD MSTORE PUSH2 0x6E3 DUP2 PUSH2 0x6AA JUMP JUMPDEST SWAP1 POP SWAP2 SWAP1 POP JUMP JUMPDEST PUSH32 0x4E6F20667265656C616E6365722061737369676E656400000000000000000000 PUSH0 DUP3 ADD MSTORE POP JUMP JUMPDEST PUSH0 PUSH2 0x71E PUSH1 0x16 DUP4 PUSH2 0x672 JUMP JUMPDEST SWAP2 POP PUSH2 0x729 DUP3 PUSH2 0x6EA JUMP JUMPDEST PUSH1 0x20 DUP3 ADD SWAP1 POP SWAP2 SWAP1 POP JUMP JUMPDEST PUSH0 PUSH1 0x20 DUP3 ADD SWAP1 POP DUP2 DUP2 SUB PUSH0 DUP4 ADD MSTORE PUSH2 0x74B DUP2 PUSH2 0x712 JUMP JUMPDEST SWAP1 POP SWAP2 SWAP1 POP JUMP JUMPDEST PUSH0 DUP2 SWAP1 POP SWAP3 SWAP2 POP POP JUMP JUMPDEST POP JUMP JUMPDEST PUSH0 PUSH2 0x76A PUSH0 DUP4 PUSH2 0x752 JUMP JUMPDEST SWAP2 POP PUSH2 0x775 DUP3 PUSH2 0x75C JUMP JUMPDEST PUSH0 DUP3 ADD SWAP1 POP SWAP2 SWAP1 POP JUMP JUMPDEST PUSH0 PUSH2 0x789 DUP3 PUSH2 0x75F JUMP JUMPDEST SWAP2 POP DUP2 SWAP1 POP SWAP2 SWAP1 POP JUMP JUMPDEST PUSH32 0x4661696C656420746F2073656E642066756E647320746F20667265656C616E63 PUSH0 DUP3 ADD MSTORE PUSH32 0x6572000000000000000000000000000000000000000000000000000000000000 PUSH1 0x20 DUP3 ADD MSTORE POP JUMP JUMPDEST PUSH0 PUSH2 0x7ED PUSH1 0x22 DUP4 PUSH2 0x672 JUMP JUMPDEST SWAP2 POP PUSH2 0x7F8 DUP3 PUSH2 0x793 JUMP JUMPDEST PUSH1 0x40 DUP3 ADD SWAP1 POP SWAP2 SWAP1 POP JUMP JUMPDEST PUSH0 PUSH1 0x20 DUP3 ADD SWAP1 POP DUP2 DUP2 SUB PUSH0 DUP4 ADD MSTORE PUSH2 0x81A DUP2 PUSH2 0x7E1 JUMP JUMPDEST SWAP1 POP SWAP2 SWAP1 POP JUMP JUMPDEST PUSH0 DUP2 SWAP1 POP SWAP2 SWAP1 POP JUMP JUMPDEST PUSH0 PUSH2 0x844 PUSH2 0x83F PUSH2 0x83A DUP5 PUSH2 0x58A JUMP JUMPDEST PUSH2 0x821 JUMP JUMPDEST PUSH2 0x58A JUMP JUMPDEST SWAP1 POP SWAP2 SWAP1 POP JUMP JUMPDEST PUSH0 PUSH2 0x855 DUP3 PUSH2 0x82A JUMP JUMPDEST SWAP1 POP SWAP2 SWAP1 POP JUMP JUMPDEST PUSH0 PUSH2 0x866 DUP3 PUSH2 0x84B JUMP JUMPDEST SWAP1 POP SWAP2 SWAP1 POP JUMP JUMPDEST PUSH2 0x876 DUP2 PUSH2 0x85C JUMP JUMPDEST DUP3 MSTORE POP POP JUMP JUMPDEST PUSH0 PUSH1 0x40 DUP3 ADD SWAP1 POP PUSH2 0x88F PUSH0 DUP4 ADD DUP6 PUSH2 0x5E2 JUMP JUMPDEST PUSH2 0x89C PUSH1 0x20 DUP4 ADD DUP5 PUSH2 0x86D JUMP JUMPDEST SWAP4 SWAP3 POP POP POP JUMP JUMPDEST PUSH32 0x4D7573742073656E642066756E647320746F20657363726F7700000000000000 PUSH0 DUP3 ADD MSTORE POP JUMP JUMPDEST PUSH0 PUSH2 0x8D7 PUSH1 0x19 DUP4 PUSH2 0x672 JUMP JUMPDEST SWAP2 POP PUSH2 0x8E2 DUP3 PUSH2 0x8A3 JUMP JUMPDEST PUSH1 0x20 DUP3 ADD SWAP1 POP SWAP2 SWAP1 POP JUMP JUMPDEST PUSH0 PUSH1 0x20 DUP3 ADD SWAP1 POP DUP2 DUP2 SUB PUSH0 DUP4 ADD MSTORE PUSH2 0x904 DUP2 PUSH2 0x8CB JUMP JUMPDEST SWAP1 POP SWAP2 SWAP1 POP JUMP JUMPDEST PUSH32 0x457363726F7720616C72656164792065786973747320666F722074686973206A PUSH0 DUP3 ADD MSTORE PUSH32 0x6F62000000000000000000000000000000000000000000000000000000000000 PUSH1 0x20 DUP3 ADD MSTORE POP JUMP JUMPDEST PUSH0 PUSH2 0x965 PUSH1 0x22 DUP4 PUSH2 0x672 JUMP JUMPDEST SWAP2 POP PUSH2 0x970 DUP3 PUSH2 0x90B JUMP JUMPDEST PUSH1 0x40 DUP3 ADD SWAP1 POP SWAP2 SWAP1 POP JUMP JUMPDEST PUSH0 PUSH1 0x20 DUP3 ADD SWAP1 POP DUP2 DUP2 SUB PUSH0 DUP4 ADD MSTORE PUSH2 0x992 DUP2 PUSH2 0x959 JUMP JUMPDEST SWAP1 POP SWAP2 SWAP1 POP JUMP JUMPDEST PUSH32 0x496E76616C696420667265656C616E6365722061646472657373000000000000 PUSH0 DUP3 ADD MSTORE POP JUMP JUMPDEST PUSH0 PUSH2 0x9CD PUSH1 0x1A DUP4 PUSH2 0x672 JUMP JUMPDEST SWAP2 POP PUSH2 0x9D8 DUP3 PUSH2 0x999 JUMP JUMPDEST PUSH1 0x20 DUP3 ADD SWAP1 POP SWAP2 SWAP1 POP JUMP JUMPDEST PUSH0 PUSH1 0x20 DUP3 ADD SWAP1 POP DUP2 DUP2 SUB PUSH0 DUP4 ADD MSTORE PUSH2 0x9FA DUP2 PUSH2 0x9C1 JUMP JUMPDEST SWAP1 POP SWAP2 SWAP1 POP JUMP INVALID LOG2 PUSH5 0x6970667358 0x22 SLT KECCAK256 LOG4 STATICCALL 0xBC 0xDB XOR STATICCALL DUP16 PUSH25 0xCC0A5696EAF3E9672C1E8CB205C5A2FA40D401EA617DB08364 PUSH20 0x6F6C634300081A00330000000000000000000000 "
				},
				"gasEstimates": {
					"creation": {
						"codeDepositCost": "523000",
						"executionCost": "554",
						"totalCost": "523554"
					},
					"external": {
						"createEscrow(uint256,address)": "infinite",
						"escrowedFunds(uint256)": "infinite",
						"freelancers(uint256)": "2805",
						"releaseFunds(uint256)": "infinite"
					}
				},
				"methodIdentifiers": {
					"createEscrow(uint256,address)": "dbcd72f0",
					"escrowedFunds(uint256)": "b489e147",
					"freelancers(uint256)": "0b9364d8",
					"releaseFunds(uint256)": "4d68282f"
				}
			},
			"storageLayout": {
				"storage": [
					{
						"astId": 5,
						"contract": "contracts.sol:EscrowContract",
						"label": "escrowedFunds",
						"offset": 0,
						"slot": "0",
						"type": "t_mapping(t_uint256,t_uint256)"
					},
					{
						"astId": 9,
						"contract": "contracts.sol:EscrowContract",
						"label": "freelancers",
						"offset": 0,
						"slot": "1",
						"type": "t_mapping(t_uint256,t_address_payable)"
					}
				],
				"types": {
					"t_address_payable": {
						"encoding": "inplace",
						"label": "address payable",
						"numberOfBytes": "20"
					},
					"t_mapping(t_uint256,t_address_payable)": {
						"encoding": "mapping",
						"key": "t_uint256",
						"label": "mapping(uint256 => address payable)",
						"numberOfBytes": "32",
						"value": "t_address_payable"
					},
					"t_mapping(t_uint256,t_uint256)": {
						"encoding": "mapping",
						"key": "t_uint256",
						"label": "mapping(uint256 => uint256)",
						"numberOfBytes": "32",
						"value": "t_uint256"
					},
					"t_uint256": {
						"encoding": "inplace",
						"label": "uint256",
						"numberOfBytes": "32"
					}
				}
			},
			"userdoc": {
				"kind": "user",
				"methods": {},
				"version": 1
			}
		}
	}
}